{
	"forward.sol": {
		"Forward": {
			"abi": [
				{
					"anonymous": false,
					"inputs": [
						{
							"indexed": true,
							"internalType": "uint256",
							"name": "id",
							"type": "uint256"
						},
						{
							"indexed": false,
							"internalType": "address",
							"name": "signer",
							"type": "address"
						}
					],
					"name": "ContractSigned",
					"type": "event"
				},
				{
					"anonymous": false,
					"inputs": [
						{
							"indexed": true,
							"internalType": "uint256",
							"name": "id",
							"type": "uint256"
						},
						{
							"indexed": false,
							"internalType": "address",
							"name": "issuer",
							"type": "address"
						},
						{
							"indexed": false,
							"internalType": "string",
							"name": "product",
							"type": "string"
						},
						{
							"indexed": false,
							"internalType": "uint256",
							"name": "dueDate",
							"type": "uint256"
						},
						{
							"indexed": false,
							"internalType": "uint256",
							"name": "amount",
							"type": "uint256"
						}
					],
					"name": "Issued",
					"type": "event"
				},
				{
					"anonymous": false,
					"inputs": [
						{
							"indexed": true,
							"internalType": "uint256",
							"name": "mc_id",
							"type": "uint256"
						}
					],
					"name": "MarginCallDone",
					"type": "event"
				},
				{
					"anonymous": false,
					"inputs": [
						{
							"indexed": true,
							"internalType": "uint256",
							"name": "id",
							"type": "uint256"
						},
						{
							"indexed": false,
							"internalType": "address",
							"name": "marginSigner",
							"type": "address"
						},
						{
							"indexed": false,
							"internalType": "uint256",
							"name": "price",
							"type": "uint256"
						},
						{
							"indexed": false,
							"internalType": "uint256",
							"name": "margin",
							"type": "uint256"
						}
					],
					"name": "Offered",
					"type": "event"
				},
				{
					"inputs": [
						{
							"internalType": "uint256",
							"name": "offID",
							"type": "uint256"
						},
						{
							"internalType": "uint256",
							"name": "contractID",
							"type": "uint256"
						}
					],
					"name": "acceptOffer",
					"outputs": [],
					"stateMutability": "nonpayable",
					"type": "function"
				},
				{
					"inputs": [
						{
							"internalType": "uint256",
							"name": "",
							"type": "uint256"
						}
					],
					"name": "contracts",
					"outputs": [
						{
							"internalType": "string",
							"name": "product",
							"type": "string"
						},
						{
							"internalType": "address payable",
							"name": "issuer",
							"type": "address"
						},
						{
							"internalType": "address payable",
							"name": "signer",
							"type": "address"
						},
						{
							"internalType": "uint256",
							"name": "price",
							"type": "uint256"
						},
						{
							"internalType": "uint256",
							"name": "amount",
							"type": "uint256"
						},
						{
							"internalType": "uint256",
							"name": "dueDate",
							"type": "uint256"
						},
						{
							"internalType": "uint256",
							"name": "marginIssuer",
							"type": "uint256"
						},
						{
							"internalType": "uint256",
							"name": "marginSigner",
							"type": "uint256"
						},
						{
							"internalType": "uint256",
							"name": "index",
							"type": "uint256"
						}
					],
					"stateMutability": "view",
					"type": "function"
				},
				{
					"inputs": [
						{
							"internalType": "string",
							"name": "_product",
							"type": "string"
						},
						{
							"internalType": "uint256",
							"name": "_amount",
							"type": "uint256"
						},
						{
							"internalType": "uint256",
							"name": "_dueDate",
							"type": "uint256"
						}
					],
					"name": "createContract",
					"outputs": [
						{
							"internalType": "uint256",
							"name": "index",
							"type": "uint256"
						}
					],
					"stateMutability": "payable",
					"type": "function"
				},
				{
					"inputs": [
						{
							"internalType": "uint256",
							"name": "contractID",
							"type": "uint256"
						},
						{
							"internalType": "uint256",
							"name": "_price",
							"type": "uint256"
						}
					],
					"name": "giveOffer",
					"outputs": [],
					"stateMutability": "payable",
					"type": "function"
				},
				{
					"inputs": [
						{
							"internalType": "uint256",
							"name": "contractID",
							"type": "uint256"
						}
					],
					"name": "margin_Call",
					"outputs": [],
					"stateMutability": "payable",
					"type": "function"
				},
				{
					"inputs": [
						{
							"internalType": "uint256",
							"name": "contractID",
							"type": "uint256"
						}
					],
					"name": "margincallRequestorAccept",
					"outputs": [],
					"stateMutability": "nonpayable",
					"type": "function"
				}
			],
			"devdoc": {
				"kind": "dev",
				"methods": {},
				"version": 1
			},
			"evm": {
				"assembly": "    /* \"forward.sol\":63:3390  contract Forward{... */\n  mstore(0x40, 0x80)\n    /* \"forward.sol\":139:140  0 */\n  0x00\n    /* \"forward.sol\":120:140  uint globalIndex = 0 */\n  dup1\n  sstore\n    /* \"forward.sol\":186:187  0 */\n  0x00\n    /* \"forward.sol\":168:187  uint blockedBal = 0 */\n  0x01\n  sstore\n    /* \"forward.sol\":63:3390  contract Forward{... */\n  callvalue\n  dup1\n  iszero\n  tag_1\n  jumpi\n  0x00\n  dup1\n  revert\ntag_1:\n  pop\n  dataSize(sub_0)\n  dup1\n  dataOffset(sub_0)\n  0x00\n  codecopy\n  0x00\n  return\nstop\n\nsub_0: assembly {\n        /* \"forward.sol\":63:3390  contract Forward{... */\n      mstore(0x40, 0x80)\n      jumpi(tag_1, lt(calldatasize, 0x04))\n      shr(0xe0, calldataload(0x00))\n      dup1\n      0x0a5c8d5e\n      eq\n      tag_2\n      jumpi\n      dup1\n      0x474da79a\n      eq\n      tag_3\n      jumpi\n      dup1\n      0x6328febc\n      eq\n      tag_4\n      jumpi\n      dup1\n      0x6e24f037\n      eq\n      tag_5\n      jumpi\n      dup1\n      0x7e0b8ff0\n      eq\n      tag_6\n      jumpi\n      dup1\n      0x81257bd5\n      eq\n      tag_7\n      jumpi\n    tag_1:\n      0x00\n      dup1\n      revert\n        /* \"forward.sol\":1483:1847  function createContract(... */\n    tag_2:\n      tag_8\n      0x04\n      dup1\n      calldatasize\n      sub\n      dup2\n      add\n      swap1\n      tag_9\n      swap2\n      swap1\n      tag_10\n      jump\t// in\n    tag_9:\n      tag_11\n      jump\t// in\n    tag_8:\n      mload(0x40)\n      tag_12\n      swap2\n      swap1\n      tag_13\n      jump\t// in\n    tag_12:\n      mload(0x40)\n      dup1\n      swap2\n      sub\n      swap1\n      return\n        /* \"forward.sol\":1177:1218  mapping (uint=>Contract) public contracts */\n    tag_3:\n      callvalue\n      dup1\n      iszero\n      tag_14\n      jumpi\n      0x00\n      dup1\n      revert\n    tag_14:\n      pop\n      tag_15\n      0x04\n      dup1\n      calldatasize\n      sub\n      dup2\n      add\n      swap1\n      tag_16\n      swap2\n      swap1\n      tag_17\n      jump\t// in\n    tag_16:\n      tag_18\n      jump\t// in\n    tag_15:\n      mload(0x40)\n      tag_19\n      swap10\n      swap9\n      swap8\n      swap7\n      swap6\n      swap5\n      swap4\n      swap3\n      swap2\n      swap1\n      tag_20\n      jump\t// in\n    tag_19:\n      mload(0x40)\n      dup1\n      swap2\n      sub\n      swap1\n      return\n        /* \"forward.sol\":1855:2114  function giveOffer(uint contractID, uint _price) payable external{... */\n    tag_4:\n      tag_21\n      0x04\n      dup1\n      calldatasize\n      sub\n      dup2\n      add\n      swap1\n      tag_22\n      swap2\n      swap1\n      tag_23\n      jump\t// in\n    tag_22:\n      tag_24\n      jump\t// in\n    tag_21:\n      stop\n        /* \"forward.sol\":2455:2987  function margincallRequestorAccept(uint contractID) external {... */\n    tag_5:\n      callvalue\n      dup1\n      iszero\n      tag_25\n      jumpi\n      0x00\n      dup1\n      revert\n    tag_25:\n      pop\n      tag_26\n      0x04\n      dup1\n      calldatasize\n      sub\n      dup2\n      add\n      swap1\n      tag_27\n      swap2\n      swap1\n      tag_17\n      jump\t// in\n    tag_27:\n      tag_28\n      jump\t// in\n    tag_26:\n      stop\n        /* \"forward.sol\":2992:3334  function margin_Call(uint contractID) external payable {... */\n    tag_6:\n      tag_29\n      0x04\n      dup1\n      calldatasize\n      sub\n      dup2\n      add\n      swap1\n      tag_30\n      swap2\n      swap1\n      tag_17\n      jump\t// in\n    tag_30:\n      tag_31\n      jump\t// in\n    tag_29:\n      stop\n        /* \"forward.sol\":2123:2445  function acceptOffer(uint offID, uint contractID) external onlyIssuer(contractID)  {... */\n    tag_7:\n      callvalue\n      dup1\n      iszero\n      tag_32\n      jumpi\n      0x00\n      dup1\n      revert\n    tag_32:\n      pop\n      tag_33\n      0x04\n      dup1\n      calldatasize\n      sub\n      dup2\n      add\n      swap1\n      tag_34\n      swap2\n      swap1\n      tag_23\n      jump\t// in\n    tag_34:\n      tag_35\n      jump\t// in\n    tag_33:\n      stop\n        /* \"forward.sol\":1483:1847  function createContract(... */\n    tag_11:\n        /* \"forward.sol\":1622:1632  uint index */\n      0x00\n        /* \"forward.sol\":1678:1683  86400 */\n      0x015180\n        /* \"forward.sol\":1662:1677  block.timestamp */\n      timestamp\n        /* \"forward.sol\":1662:1683  block.timestamp+86400 */\n      tag_37\n      swap2\n      swap1\n      tag_38\n      jump\t// in\n    tag_37:\n        /* \"forward.sol\":1653:1661  _dueDate */\n      dup3\n        /* \"forward.sol\":1653:1683  _dueDate>block.timestamp+86400 */\n      gt\n        /* \"forward.sol\":1645:1703  require(_dueDate>block.timestamp+86400,\"At least one day\") */\n      tag_39\n      jumpi\n      mload(0x40)\n      0x08c379a000000000000000000000000000000000000000000000000000000000\n      dup2\n      mstore\n      0x04\n      add\n      tag_40\n      swap1\n      tag_41\n      jump\t// in\n    tag_40:\n      mload(0x40)\n      dup1\n      swap2\n      sub\n      swap1\n      revert\n    tag_39:\n        /* \"forward.sol\":1728:1737  msg.value */\n      callvalue\n        /* \"forward.sol\":1714:1724  blockedBal */\n      0x01\n      0x00\n        /* \"forward.sol\":1714:1737  blockedBal += msg.value */\n      dup3\n      dup3\n      sload\n      tag_42\n      swap2\n      swap1\n      tag_38\n      jump\t// in\n    tag_42:\n      swap3\n      pop\n      pop\n      dup2\n      swap1\n      sstore\n      pop\n        /* \"forward.sol\":1760:1771  globalIndex */\n      sload(0x00)\n        /* \"forward.sol\":1753:1811  Issued(globalIndex,msg.sender,_product,_dueDate,msg.value) */\n      0xffb39da08503bbf77fd07dd25e2cd85029abeb9618ee7fd7aa5adc468a51ffe2\n        /* \"forward.sol\":1772:1782  msg.sender */\n      caller\n        /* \"forward.sol\":1783:1791  _product */\n      dup8\n      dup8\n        /* \"forward.sol\":1792:1800  _dueDate */\n      dup7\n        /* \"forward.sol\":1801:1810  msg.value */\n      callvalue\n        /* \"forward.sol\":1753:1811  Issued(globalIndex,msg.sender,_product,_dueDate,msg.value) */\n      mload(0x40)\n      tag_43\n      swap6\n      swap5\n      swap4\n      swap3\n      swap2\n      swap1\n      tag_44\n      jump\t// in\n    tag_43:\n      mload(0x40)\n      dup1\n      swap2\n      sub\n      swap1\n      log2\n        /* \"forward.sol\":1822:1833  globalIndex */\n      0x00\n      dup1\n        /* \"forward.sol\":1822:1835  globalIndex++ */\n      dup2\n      sload\n      dup1\n      swap3\n      swap2\n      swap1\n      tag_45\n      swap1\n      tag_46\n      jump\t// in\n    tag_45:\n      swap2\n      swap1\n      pop\n      sstore\n      pop\n        /* \"forward.sol\":1483:1847  function createContract(... */\n      swap5\n      swap4\n      pop\n      pop\n      pop\n      pop\n      jump\t// out\n        /* \"forward.sol\":1177:1218  mapping (uint=>Contract) public contracts */\n    tag_18:\n      mstore(0x20, 0x02)\n      dup1\n      0x00\n      mstore\n      keccak256(0x00, 0x40)\n      0x00\n      swap2\n      pop\n      swap1\n      pop\n      dup1\n      0x00\n      add\n      dup1\n      sload\n      tag_47\n      swap1\n      tag_48\n      jump\t// in\n    tag_47:\n      dup1\n      0x1f\n      add\n      0x20\n      dup1\n      swap2\n      div\n      mul\n      0x20\n      add\n      mload(0x40)\n      swap1\n      dup2\n      add\n      0x40\n      mstore\n      dup1\n      swap3\n      swap2\n      swap1\n      dup2\n      dup2\n      mstore\n      0x20\n      add\n      dup3\n      dup1\n      sload\n      tag_49\n      swap1\n      tag_48\n      jump\t// in\n    tag_49:\n      dup1\n      iszero\n      tag_50\n      jumpi\n      dup1\n      0x1f\n      lt\n      tag_51\n      jumpi\n      0x0100\n      dup1\n      dup4\n      sload\n      div\n      mul\n      dup4\n      mstore\n      swap2\n      0x20\n      add\n      swap2\n      jump(tag_50)\n    tag_51:\n      dup3\n      add\n      swap2\n      swap1\n      0x00\n      mstore\n      keccak256(0x00, 0x20)\n      swap1\n    tag_52:\n      dup2\n      sload\n      dup2\n      mstore\n      swap1\n      0x01\n      add\n      swap1\n      0x20\n      add\n      dup1\n      dup4\n      gt\n      tag_52\n      jumpi\n      dup3\n      swap1\n      sub\n      0x1f\n      and\n      dup3\n      add\n      swap2\n    tag_50:\n      pop\n      pop\n      pop\n      pop\n      pop\n      swap1\n      dup1\n      0x01\n      add\n      0x00\n      swap1\n      sload\n      swap1\n      0x0100\n      exp\n      swap1\n      div\n      0xffffffffffffffffffffffffffffffffffffffff\n      and\n      swap1\n      dup1\n      0x02\n      add\n      0x00\n      swap1\n      sload\n      swap1\n      0x0100\n      exp\n      swap1\n      div\n      0xffffffffffffffffffffffffffffffffffffffff\n      and\n      swap1\n      dup1\n      0x03\n      add\n      sload\n      swap1\n      dup1\n      0x04\n      add\n      sload\n      swap1\n      dup1\n      0x05\n      add\n      sload\n      swap1\n      dup1\n      0x06\n      add\n      sload\n      swap1\n      dup1\n      0x07\n      add\n      sload\n      swap1\n      dup1\n      0x08\n      add\n      sload\n      swap1\n      pop\n      dup10\n      jump\t// out\n        /* \"forward.sol\":1855:2114  function giveOffer(uint contractID, uint _price) payable external{... */\n    tag_24:\n        /* \"forward.sol\":1924:1933  contracts */\n      0x02\n        /* \"forward.sol\":1924:1945  contracts[contractID] */\n      0x00\n        /* \"forward.sol\":1934:1944  contractID */\n      dup4\n        /* \"forward.sol\":1924:1945  contracts[contractID] */\n      dup2\n      mstore\n      0x20\n      add\n      swap1\n      dup2\n      mstore\n      0x20\n      add\n      0x00\n      keccak256\n        /* \"forward.sol\":1924:1952  contracts[contractID].offers */\n      0x09\n      add\n        /* \"forward.sol\":1958:2022  Offer(msg.value,_price,payable(address(msg.sender)),globalIndex) */\n      mload(0x40)\n      dup1\n      0x80\n      add\n      0x40\n      mstore\n      dup1\n        /* \"forward.sol\":1964:1973  msg.value */\n      callvalue\n        /* \"forward.sol\":1958:2022  Offer(msg.value,_price,payable(address(msg.sender)),globalIndex) */\n      dup2\n      mstore\n      0x20\n      add\n        /* \"forward.sol\":1974:1980  _price */\n      dup4\n        /* \"forward.sol\":1958:2022  Offer(msg.value,_price,payable(address(msg.sender)),globalIndex) */\n      dup2\n      mstore\n      0x20\n      add\n        /* \"forward.sol\":1997:2007  msg.sender */\n      caller\n        /* \"forward.sol\":1958:2022  Offer(msg.value,_price,payable(address(msg.sender)),globalIndex) */\n      0xffffffffffffffffffffffffffffffffffffffff\n      and\n      dup2\n      mstore\n      0x20\n      add\n        /* \"forward.sol\":2010:2021  globalIndex */\n      sload(0x00)\n        /* \"forward.sol\":1958:2022  Offer(msg.value,_price,payable(address(msg.sender)),globalIndex) */\n      dup2\n      mstore\n      pop\n        /* \"forward.sol\":1924:2023  contracts[contractID].offers.push(Offer(msg.value,_price,payable(address(msg.sender)),globalIndex)) */\n      swap1\n      dup1\n      0x01\n      dup2\n      sload\n      add\n      dup1\n      dup3\n      sstore\n      dup1\n      swap2\n      pop\n      pop\n      0x01\n      swap1\n      sub\n      swap1\n      0x00\n      mstore\n      keccak256(0x00, 0x20)\n      swap1\n      0x04\n      mul\n      add\n      0x00\n      swap1\n      swap2\n      swap1\n      swap2\n      swap1\n      swap2\n      pop\n      0x00\n      dup3\n      add\n      mload\n      dup2\n      0x00\n      add\n      sstore\n      0x20\n      dup3\n      add\n      mload\n      dup2\n      0x01\n      add\n      sstore\n      0x40\n      dup3\n      add\n      mload\n      dup2\n      0x02\n      add\n      exp(0x0100, 0x00)\n      dup2\n      sload\n      dup2\n      0xffffffffffffffffffffffffffffffffffffffff\n      mul\n      not\n      and\n      swap1\n      dup4\n      0xffffffffffffffffffffffffffffffffffffffff\n      and\n      mul\n      or\n      swap1\n      sstore\n      pop\n      0x60\n      dup3\n      add\n      mload\n      dup2\n      0x03\n      add\n      sstore\n      pop\n      pop\n        /* \"forward.sol\":2041:2050  msg.value */\n      callvalue\n        /* \"forward.sol\":2027:2037  blockedBal */\n      0x01\n      0x00\n        /* \"forward.sol\":2027:2050  blockedBal += msg.value */\n      dup3\n      dup3\n      sload\n      tag_55\n      swap2\n      swap1\n      tag_38\n      jump\t// in\n    tag_55:\n      swap3\n      pop\n      pop\n      dup2\n      swap1\n      sstore\n      pop\n        /* \"forward.sol\":2067:2078  globalIndex */\n      0x00\n      dup1\n        /* \"forward.sol\":2067:2080  globalIndex++ */\n      dup2\n      sload\n      dup1\n      swap3\n      swap2\n      swap1\n      tag_56\n      swap1\n      tag_46\n      jump\t// in\n    tag_56:\n      swap2\n      swap1\n      pop\n      sstore\n        /* \"forward.sol\":2059:2109  Offered(globalIndex++,msg.sender,_price,msg.value) */\n      0xbd50812ed14fe4caeab6a9edec79c48f0cb0efa5a704560c6b8d66bd60e0cfe9\n        /* \"forward.sol\":2081:2091  msg.sender */\n      caller\n        /* \"forward.sol\":2092:2098  _price */\n      dup4\n        /* \"forward.sol\":2099:2108  msg.value */\n      callvalue\n        /* \"forward.sol\":2059:2109  Offered(globalIndex++,msg.sender,_price,msg.value) */\n      mload(0x40)\n      tag_57\n      swap4\n      swap3\n      swap2\n      swap1\n      tag_58\n      jump\t// in\n    tag_57:\n      mload(0x40)\n      dup1\n      swap2\n      sub\n      swap1\n      log2\n        /* \"forward.sol\":1855:2114  function giveOffer(uint contractID, uint _price) payable external{... */\n      pop\n      pop\n      jump\t// out\n        /* \"forward.sol\":2455:2987  function margincallRequestorAccept(uint contractID) external {... */\n    tag_28:\n        /* \"forward.sol\":2537:2546  contracts */\n      0x02\n        /* \"forward.sol\":2537:2558  contracts[contractID] */\n      0x00\n        /* \"forward.sol\":2547:2557  contractID */\n      dup3\n        /* \"forward.sol\":2537:2558  contracts[contractID] */\n      dup2\n      mstore\n      0x20\n      add\n      swap1\n      dup2\n      mstore\n      0x20\n      add\n      0x00\n      keccak256\n        /* \"forward.sol\":2537:2565  contracts[contractID].issuer */\n      0x01\n      add\n      0x00\n      swap1\n      sload\n      swap1\n      0x0100\n      exp\n      swap1\n      div\n      0xffffffffffffffffffffffffffffffffffffffff\n      and\n        /* \"forward.sol\":2523:2565  msg.sender == contracts[contractID].issuer */\n      0xffffffffffffffffffffffffffffffffffffffff\n      and\n        /* \"forward.sol\":2523:2533  msg.sender */\n      caller\n        /* \"forward.sol\":2523:2565  msg.sender == contracts[contractID].issuer */\n      0xffffffffffffffffffffffffffffffffffffffff\n      and\n      eq\n        /* \"forward.sol\":2523:2617  msg.sender == contracts[contractID].issuer &&marginCall[contractID].owner==payable(address(0)) */\n      dup1\n      iszero\n      tag_60\n      jumpi\n      pop\n        /* \"forward.sol\":2614:2615  0 */\n      0x00\n        /* \"forward.sol\":2568:2617  marginCall[contractID].owner==payable(address(0)) */\n      0xffffffffffffffffffffffffffffffffffffffff\n      and\n        /* \"forward.sol\":2568:2578  marginCall */\n      0x03\n        /* \"forward.sol\":2568:2590  marginCall[contractID] */\n      0x00\n        /* \"forward.sol\":2579:2589  contractID */\n      dup4\n        /* \"forward.sol\":2568:2590  marginCall[contractID] */\n      dup2\n      mstore\n      0x20\n      add\n      swap1\n      dup2\n      mstore\n      0x20\n      add\n      0x00\n      keccak256\n        /* \"forward.sol\":2568:2596  marginCall[contractID].owner */\n      0x00\n      add\n      0x02\n      swap1\n      sload\n      swap1\n      0x0100\n      exp\n      swap1\n      div\n      0xffffffffffffffffffffffffffffffffffffffff\n      and\n        /* \"forward.sol\":2568:2617  marginCall[contractID].owner==payable(address(0)) */\n      0xffffffffffffffffffffffffffffffffffffffff\n      and\n      eq\n        /* \"forward.sol\":2523:2617  msg.sender == contracts[contractID].issuer &&marginCall[contractID].owner==payable(address(0)) */\n    tag_60:\n        /* \"forward.sol\":2520:2749  if(msg.sender == contracts[contractID].issuer &&marginCall[contractID].owner==payable(address(0))) {... */\n      iszero\n      tag_61\n      jumpi\n        /* \"forward.sol\":2655:2664  contracts */\n      0x02\n        /* \"forward.sol\":2655:2676  contracts[contractID] */\n      0x00\n        /* \"forward.sol\":2665:2675  contractID */\n      dup3\n        /* \"forward.sol\":2655:2676  contracts[contractID] */\n      dup2\n      mstore\n      0x20\n      add\n      swap1\n      dup2\n      mstore\n      0x20\n      add\n      0x00\n      keccak256\n        /* \"forward.sol\":2655:2683  contracts[contractID].signer */\n      0x02\n      add\n      0x00\n      swap1\n      sload\n      swap1\n      0x0100\n      exp\n      swap1\n      div\n      0xffffffffffffffffffffffffffffffffffffffff\n      and\n        /* \"forward.sol\":2624:2634  marginCall */\n      0x03\n        /* \"forward.sol\":2624:2646  marginCall[contractID] */\n      0x00\n        /* \"forward.sol\":2635:2645  contractID */\n      dup4\n        /* \"forward.sol\":2624:2646  marginCall[contractID] */\n      dup2\n      mstore\n      0x20\n      add\n      swap1\n      dup2\n      mstore\n      0x20\n      add\n      0x00\n      keccak256\n        /* \"forward.sol\":2624:2652  marginCall[contractID].owner */\n      0x00\n      add\n      0x02\n        /* \"forward.sol\":2624:2683  marginCall[contractID].owner = contracts[contractID].signer */\n      0x0100\n      exp\n      dup2\n      sload\n      dup2\n      0xffffffffffffffffffffffffffffffffffffffff\n      mul\n      not\n      and\n      swap1\n      dup4\n      0xffffffffffffffffffffffffffffffffffffffff\n      and\n      mul\n      or\n      swap1\n      sstore\n      pop\n        /* \"forward.sol\":2732:2736  true */\n      0x01\n        /* \"forward.sol\":2694:2704  marginCall */\n      0x03\n        /* \"forward.sol\":2694:2716  marginCall[contractID] */\n      0x00\n        /* \"forward.sol\":2705:2715  contractID */\n      dup4\n        /* \"forward.sol\":2694:2716  marginCall[contractID] */\n      dup2\n      mstore\n      0x20\n      add\n      swap1\n      dup2\n      mstore\n      0x20\n      add\n      0x00\n      keccak256\n        /* \"forward.sol\":2694:2729  marginCall[contractID].marginSigner */\n      0x00\n      add\n      0x00\n        /* \"forward.sol\":2694:2736  marginCall[contractID].marginSigner = true */\n      0x0100\n      exp\n      dup2\n      sload\n      dup2\n      0xff\n      mul\n      not\n      and\n      swap1\n      dup4\n      iszero\n      iszero\n      mul\n      or\n      swap1\n      sstore\n      pop\n        /* \"forward.sol\":2520:2749  if(msg.sender == contracts[contractID].issuer &&marginCall[contractID].owner==payable(address(0))) {... */\n    tag_61:\n        /* \"forward.sol\":2769:2778  contracts */\n      0x02\n        /* \"forward.sol\":2769:2790  contracts[contractID] */\n      0x00\n        /* \"forward.sol\":2779:2789  contractID */\n      dup3\n        /* \"forward.sol\":2769:2790  contracts[contractID] */\n      dup2\n      mstore\n      0x20\n      add\n      swap1\n      dup2\n      mstore\n      0x20\n      add\n      0x00\n      keccak256\n        /* \"forward.sol\":2769:2797  contracts[contractID].signer */\n      0x02\n      add\n      0x00\n      swap1\n      sload\n      swap1\n      0x0100\n      exp\n      swap1\n      div\n      0xffffffffffffffffffffffffffffffffffffffff\n      and\n        /* \"forward.sol\":2755:2797  msg.sender == contracts[contractID].signer */\n      0xffffffffffffffffffffffffffffffffffffffff\n      and\n        /* \"forward.sol\":2755:2765  msg.sender */\n      caller\n        /* \"forward.sol\":2755:2797  msg.sender == contracts[contractID].signer */\n      0xffffffffffffffffffffffffffffffffffffffff\n      and\n      eq\n        /* \"forward.sol\":2755:2849  msg.sender == contracts[contractID].signer &&marginCall[contractID].owner==payable(address(0)) */\n      dup1\n      iszero\n      tag_62\n      jumpi\n      pop\n        /* \"forward.sol\":2846:2847  0 */\n      0x00\n        /* \"forward.sol\":2800:2849  marginCall[contractID].owner==payable(address(0)) */\n      0xffffffffffffffffffffffffffffffffffffffff\n      and\n        /* \"forward.sol\":2800:2810  marginCall */\n      0x03\n        /* \"forward.sol\":2800:2822  marginCall[contractID] */\n      0x00\n        /* \"forward.sol\":2811:2821  contractID */\n      dup4\n        /* \"forward.sol\":2800:2822  marginCall[contractID] */\n      dup2\n      mstore\n      0x20\n      add\n      swap1\n      dup2\n      mstore\n      0x20\n      add\n      0x00\n      keccak256\n        /* \"forward.sol\":2800:2828  marginCall[contractID].owner */\n      0x00\n      add\n      0x02\n      swap1\n      sload\n      swap1\n      0x0100\n      exp\n      swap1\n      div\n      0xffffffffffffffffffffffffffffffffffffffff\n      and\n        /* \"forward.sol\":2800:2849  marginCall[contractID].owner==payable(address(0)) */\n      0xffffffffffffffffffffffffffffffffffffffff\n      and\n      eq\n        /* \"forward.sol\":2755:2849  msg.sender == contracts[contractID].signer &&marginCall[contractID].owner==payable(address(0)) */\n    tag_62:\n        /* \"forward.sol\":2752:2980  if(msg.sender == contracts[contractID].signer &&marginCall[contractID].owner==payable(address(0))) {... */\n      iszero\n      tag_63\n      jumpi\n        /* \"forward.sol\":2887:2896  contracts */\n      0x02\n        /* \"forward.sol\":2887:2908  contracts[contractID] */\n      0x00\n        /* \"forward.sol\":2897:2907  contractID */\n      dup3\n        /* \"forward.sol\":2887:2908  contracts[contractID] */\n      dup2\n      mstore\n      0x20\n      add\n      swap1\n      dup2\n      mstore\n      0x20\n      add\n      0x00\n      keccak256\n        /* \"forward.sol\":2887:2915  contracts[contractID].issuer */\n      0x01\n      add\n      0x00\n      swap1\n      sload\n      swap1\n      0x0100\n      exp\n      swap1\n      div\n      0xffffffffffffffffffffffffffffffffffffffff\n      and\n        /* \"forward.sol\":2856:2866  marginCall */\n      0x03\n        /* \"forward.sol\":2856:2878  marginCall[contractID] */\n      0x00\n        /* \"forward.sol\":2867:2877  contractID */\n      dup4\n        /* \"forward.sol\":2856:2878  marginCall[contractID] */\n      dup2\n      mstore\n      0x20\n      add\n      swap1\n      dup2\n      mstore\n      0x20\n      add\n      0x00\n      keccak256\n        /* \"forward.sol\":2856:2884  marginCall[contractID].owner */\n      0x00\n      add\n      0x02\n        /* \"forward.sol\":2856:2915  marginCall[contractID].owner = contracts[contractID].issuer */\n      0x0100\n      exp\n      dup2\n      sload\n      dup2\n      0xffffffffffffffffffffffffffffffffffffffff\n      mul\n      not\n      and\n      swap1\n      dup4\n      0xffffffffffffffffffffffffffffffffffffffff\n      and\n      mul\n      or\n      swap1\n      sstore\n      pop\n        /* \"forward.sol\":2964:2968  true */\n      0x01\n        /* \"forward.sol\":2926:2936  marginCall */\n      0x03\n        /* \"forward.sol\":2926:2948  marginCall[contractID] */\n      0x00\n        /* \"forward.sol\":2937:2947  contractID */\n      dup4\n        /* \"forward.sol\":2926:2948  marginCall[contractID] */\n      dup2\n      mstore\n      0x20\n      add\n      swap1\n      dup2\n      mstore\n      0x20\n      add\n      0x00\n      keccak256\n        /* \"forward.sol\":2926:2961  marginCall[contractID].marginIssuer */\n      0x00\n      add\n      0x01\n        /* \"forward.sol\":2926:2968  marginCall[contractID].marginIssuer = true */\n      0x0100\n      exp\n      dup2\n      sload\n      dup2\n      0xff\n      mul\n      not\n      and\n      swap1\n      dup4\n      iszero\n      iszero\n      mul\n      or\n      swap1\n      sstore\n      pop\n        /* \"forward.sol\":2752:2980  if(msg.sender == contracts[contractID].signer &&marginCall[contractID].owner==payable(address(0))) {... */\n    tag_63:\n        /* \"forward.sol\":2455:2987  function margincallRequestorAccept(uint contractID) external {... */\n      pop\n      jump\t// out\n        /* \"forward.sol\":2992:3334  function margin_Call(uint contractID) external payable {... */\n    tag_31:\n        /* \"forward.sol\":3101:3105  true */\n      0x01\n        /* \"forward.sol\":3062:3105  marginCall[contractID].marginIssuer == true */\n      iszero\n      iszero\n        /* \"forward.sol\":3062:3072  marginCall */\n      0x03\n        /* \"forward.sol\":3062:3084  marginCall[contractID] */\n      0x00\n        /* \"forward.sol\":3073:3083  contractID */\n      dup4\n        /* \"forward.sol\":3062:3084  marginCall[contractID] */\n      dup2\n      mstore\n      0x20\n      add\n      swap1\n      dup2\n      mstore\n      0x20\n      add\n      0x00\n      keccak256\n        /* \"forward.sol\":3062:3097  marginCall[contractID].marginIssuer */\n      0x00\n      add\n      0x01\n      swap1\n      sload\n      swap1\n      0x0100\n      exp\n      swap1\n      div\n      0xff\n      and\n        /* \"forward.sol\":3062:3105  marginCall[contractID].marginIssuer == true */\n      iszero\n      iszero\n      eq\n        /* \"forward.sol\":3062:3152  marginCall[contractID].marginIssuer == true && marginCall[contractID].marginSigner == true */\n      dup1\n      iszero\n      tag_65\n      jumpi\n      pop\n        /* \"forward.sol\":3148:3152  true */\n      0x01\n        /* \"forward.sol\":3109:3152  marginCall[contractID].marginSigner == true */\n      iszero\n      iszero\n        /* \"forward.sol\":3109:3119  marginCall */\n      0x03\n        /* \"forward.sol\":3109:3131  marginCall[contractID] */\n      0x00\n        /* \"forward.sol\":3120:3130  contractID */\n      dup4\n        /* \"forward.sol\":3109:3131  marginCall[contractID] */\n      dup2\n      mstore\n      0x20\n      add\n      swap1\n      dup2\n      mstore\n      0x20\n      add\n      0x00\n      keccak256\n        /* \"forward.sol\":3109:3144  marginCall[contractID].marginSigner */\n      0x00\n      add\n      0x00\n      swap1\n      sload\n      swap1\n      0x0100\n      exp\n      swap1\n      div\n      0xff\n      and\n        /* \"forward.sol\":3109:3152  marginCall[contractID].marginSigner == true */\n      iszero\n      iszero\n      eq\n        /* \"forward.sol\":3062:3152  marginCall[contractID].marginIssuer == true && marginCall[contractID].marginSigner == true */\n    tag_65:\n        /* \"forward.sol\":3054:3169  require(marginCall[contractID].marginIssuer == true && marginCall[contractID].marginSigner == true, \"Not accepted\") */\n      tag_66\n      jumpi\n      mload(0x40)\n      0x08c379a000000000000000000000000000000000000000000000000000000000\n      dup2\n      mstore\n      0x04\n      add\n      tag_67\n      swap1\n      tag_68\n      jump\t// in\n    tag_67:\n      mload(0x40)\n      dup1\n      swap2\n      sub\n      swap1\n      revert\n    tag_66:\n        /* \"forward.sol\":3180:3190  marginCall */\n      0x03\n        /* \"forward.sol\":3180:3202  marginCall[contractID] */\n      0x00\n        /* \"forward.sol\":3191:3201  contractID */\n      dup3\n        /* \"forward.sol\":3180:3202  marginCall[contractID] */\n      dup2\n      mstore\n      0x20\n      add\n      swap1\n      dup2\n      mstore\n      0x20\n      add\n      0x00\n      keccak256\n        /* \"forward.sol\":3180:3208  marginCall[contractID].owner */\n      0x00\n      add\n      0x02\n      swap1\n      sload\n      swap1\n      0x0100\n      exp\n      swap1\n      div\n      0xffffffffffffffffffffffffffffffffffffffff\n      and\n        /* \"forward.sol\":3180:3217  marginCall[contractID].owner.transfer */\n      0xffffffffffffffffffffffffffffffffffffffff\n      and\n        /* \"forward.sol\":3180:3288  marginCall[contractID].owner.transfer(contracts[contractID].marginIssuer+contracts[contractID].marginSigner) */\n      0x08fc\n        /* \"forward.sol\":3253:3262  contracts */\n      0x02\n        /* \"forward.sol\":3253:3274  contracts[contractID] */\n      0x00\n        /* \"forward.sol\":3263:3273  contractID */\n      dup5\n        /* \"forward.sol\":3253:3274  contracts[contractID] */\n      dup2\n      mstore\n      0x20\n      add\n      swap1\n      dup2\n      mstore\n      0x20\n      add\n      0x00\n      keccak256\n        /* \"forward.sol\":3253:3287  contracts[contractID].marginSigner */\n      0x07\n      add\n      sload\n        /* \"forward.sol\":3218:3227  contracts */\n      0x02\n        /* \"forward.sol\":3218:3239  contracts[contractID] */\n      0x00\n        /* \"forward.sol\":3228:3238  contractID */\n      dup6\n        /* \"forward.sol\":3218:3239  contracts[contractID] */\n      dup2\n      mstore\n      0x20\n      add\n      swap1\n      dup2\n      mstore\n      0x20\n      add\n      0x00\n      keccak256\n        /* \"forward.sol\":3218:3252  contracts[contractID].marginIssuer */\n      0x06\n      add\n      sload\n        /* \"forward.sol\":3218:3287  contracts[contractID].marginIssuer+contracts[contractID].marginSigner */\n      tag_69\n      swap2\n      swap1\n      tag_38\n      jump\t// in\n    tag_69:\n        /* \"forward.sol\":3180:3288  marginCall[contractID].owner.transfer(contracts[contractID].marginIssuer+contracts[contractID].marginSigner) */\n      swap1\n      dup2\n      iszero\n      mul\n      swap1\n      mload(0x40)\n      0x00\n      mload(0x40)\n      dup1\n      dup4\n      sub\n      dup2\n      dup6\n      dup9\n      dup9\n      call\n      swap4\n      pop\n      pop\n      pop\n      pop\n      iszero\n      dup1\n      iszero\n      tag_71\n      jumpi\n      returndatasize\n      0x00\n      dup1\n      returndatacopy\n      revert(0x00, returndatasize)\n    tag_71:\n      pop\n        /* \"forward.sol\":3319:3329  contractID */\n      dup1\n        /* \"forward.sol\":3304:3330  MarginCallDone(contractID) */\n      0x27b37245d19baa7036fac055ec38822b4f3527322bf579a64b862a89459bd0b7\n      mload(0x40)\n      mload(0x40)\n      dup1\n      swap2\n      sub\n      swap1\n      log2\n        /* \"forward.sol\":2992:3334  function margin_Call(uint contractID) external payable {... */\n      pop\n      jump\t// out\n        /* \"forward.sol\":2123:2445  function acceptOffer(uint offID, uint contractID) external onlyIssuer(contractID)  {... */\n    tag_35:\n        /* \"forward.sol\":2193:2203  contractID */\n      dup1\n        /* \"forward.sol\":1334:1343  contracts */\n      0x02\n        /* \"forward.sol\":1334:1352  contracts[contrID] */\n      0x00\n        /* \"forward.sol\":1344:1351  contrID */\n      dup3\n        /* \"forward.sol\":1334:1352  contracts[contrID] */\n      dup2\n      mstore\n      0x20\n      add\n      swap1\n      dup2\n      mstore\n      0x20\n      add\n      0x00\n      keccak256\n        /* \"forward.sol\":1334:1359  contracts[contrID].issuer */\n      0x01\n      add\n      0x00\n      swap1\n      sload\n      swap1\n      0x0100\n      exp\n      swap1\n      div\n      0xffffffffffffffffffffffffffffffffffffffff\n      and\n        /* \"forward.sol\":1322:1359  msg.sender==contracts[contrID].issuer */\n      0xffffffffffffffffffffffffffffffffffffffff\n      and\n        /* \"forward.sol\":1322:1332  msg.sender */\n      caller\n        /* \"forward.sol\":1322:1359  msg.sender==contracts[contrID].issuer */\n      0xffffffffffffffffffffffffffffffffffffffff\n      and\n      eq\n        /* \"forward.sol\":1314:1375  require(msg.sender==contracts[contrID].issuer,\"Unauthorized\") */\n      tag_73\n      jumpi\n      mload(0x40)\n      0x08c379a000000000000000000000000000000000000000000000000000000000\n      dup2\n      mstore\n      0x04\n      add\n      tag_74\n      swap1\n      tag_75\n      jump\t// in\n    tag_74:\n      mload(0x40)\n      dup1\n      swap2\n      sub\n      swap1\n      revert\n    tag_73:\n        /* \"forward.sol\":2247:2256  contracts */\n      0x02\n        /* \"forward.sol\":2247:2268  contracts[contractID] */\n      0x00\n        /* \"forward.sol\":2257:2267  contractID */\n      dup4\n        /* \"forward.sol\":2247:2268  contracts[contractID] */\n      dup2\n      mstore\n      0x20\n      add\n      swap1\n      dup2\n      mstore\n      0x20\n      add\n      0x00\n      keccak256\n        /* \"forward.sol\":2247:2275  contracts[contractID].offers */\n      0x09\n      add\n        /* \"forward.sol\":2276:2281  offID */\n      dup4\n        /* \"forward.sol\":2247:2282  contracts[contractID].offers[offID] */\n      dup2\n      sload\n      dup2\n      lt\n      tag_77\n      jumpi\n      tag_78\n      tag_79\n      jump\t// in\n    tag_78:\n    tag_77:\n      swap1\n      0x00\n      mstore\n      keccak256(0x00, 0x20)\n      swap1\n      0x04\n      mul\n      add\n        /* \"forward.sol\":2247:2289  contracts[contractID].offers[offID].margin */\n      0x00\n      add\n      sload\n        /* \"forward.sol\":2210:2219  contracts */\n      0x02\n        /* \"forward.sol\":2210:2231  contracts[contractID] */\n      0x00\n        /* \"forward.sol\":2220:2230  contractID */\n      dup5\n        /* \"forward.sol\":2210:2231  contracts[contractID] */\n      dup2\n      mstore\n      0x20\n      add\n      swap1\n      dup2\n      mstore\n      0x20\n      add\n      0x00\n      keccak256\n        /* \"forward.sol\":2210:2244  contracts[contractID].marginSigner */\n      0x07\n      add\n        /* \"forward.sol\":2210:2289  contracts[contractID].marginSigner = contracts[contractID].offers[offID].margin */\n      dup2\n      swap1\n      sstore\n      pop\n        /* \"forward.sol\":2324:2333  contracts */\n      0x02\n        /* \"forward.sol\":2324:2345  contracts[contractID] */\n      0x00\n        /* \"forward.sol\":2334:2344  contractID */\n      dup4\n        /* \"forward.sol\":2324:2345  contracts[contractID] */\n      dup2\n      mstore\n      0x20\n      add\n      swap1\n      dup2\n      mstore\n      0x20\n      add\n      0x00\n      keccak256\n        /* \"forward.sol\":2324:2352  contracts[contractID].offers */\n      0x09\n      add\n        /* \"forward.sol\":2353:2358  offID */\n      dup4\n        /* \"forward.sol\":2324:2359  contracts[contractID].offers[offID] */\n      dup2\n      sload\n      dup2\n      lt\n      tag_81\n      jumpi\n      tag_82\n      tag_79\n      jump\t// in\n    tag_82:\n    tag_81:\n      swap1\n      0x00\n      mstore\n      keccak256(0x00, 0x20)\n      swap1\n      0x04\n      mul\n      add\n        /* \"forward.sol\":2324:2368  contracts[contractID].offers[offID].offering */\n      0x02\n      add\n      0x00\n      swap1\n      sload\n      swap1\n      0x0100\n      exp\n      swap1\n      div\n      0xffffffffffffffffffffffffffffffffffffffff\n      and\n        /* \"forward.sol\":2293:2302  contracts */\n      0x02\n        /* \"forward.sol\":2293:2314  contracts[contractID] */\n      0x00\n        /* \"forward.sol\":2303:2313  contractID */\n      dup5\n        /* \"forward.sol\":2293:2314  contracts[contractID] */\n      dup2\n      mstore\n      0x20\n      add\n      swap1\n      dup2\n      mstore\n      0x20\n      add\n      0x00\n      keccak256\n        /* \"forward.sol\":2293:2321  contracts[contractID].signer */\n      0x02\n      add\n      0x00\n        /* \"forward.sol\":2293:2368  contracts[contractID].signer = contracts[contractID].offers[offID].offering */\n      0x0100\n      exp\n      dup2\n      sload\n      dup2\n      0xffffffffffffffffffffffffffffffffffffffff\n      mul\n      not\n      and\n      swap1\n      dup4\n      0xffffffffffffffffffffffffffffffffffffffff\n      and\n      mul\n      or\n      swap1\n      sstore\n      pop\n        /* \"forward.sol\":2397:2440  MarginCall(false,false,payable(address(0))) */\n      mload(0x40)\n      dup1\n      0x60\n      add\n      0x40\n      mstore\n      dup1\n        /* \"forward.sol\":2408:2413  false */\n      0x00\n        /* \"forward.sol\":2397:2440  MarginCall(false,false,payable(address(0))) */\n      iszero\n      iszero\n      dup2\n      mstore\n      0x20\n      add\n        /* \"forward.sol\":2414:2419  false */\n      0x00\n        /* \"forward.sol\":2397:2440  MarginCall(false,false,payable(address(0))) */\n      iszero\n      iszero\n      dup2\n      mstore\n      0x20\n      add\n        /* \"forward.sol\":2436:2437  0 */\n      0x00\n        /* \"forward.sol\":2397:2440  MarginCall(false,false,payable(address(0))) */\n      0xffffffffffffffffffffffffffffffffffffffff\n      and\n      dup2\n      mstore\n      pop\n        /* \"forward.sol\":2372:2382  marginCall */\n      0x03\n        /* \"forward.sol\":2372:2394  marginCall[contractID] */\n      0x00\n        /* \"forward.sol\":2383:2393  contractID */\n      dup5\n        /* \"forward.sol\":2372:2394  marginCall[contractID] */\n      dup2\n      mstore\n      0x20\n      add\n      swap1\n      dup2\n      mstore\n      0x20\n      add\n      0x00\n      keccak256\n        /* \"forward.sol\":2372:2440  marginCall[contractID] = MarginCall(false,false,payable(address(0))) */\n      0x00\n      dup3\n      add\n      mload\n      dup2\n      0x00\n      add\n      exp(0x0100, 0x00)\n      dup2\n      sload\n      dup2\n      0xff\n      mul\n      not\n      and\n      swap1\n      dup4\n      iszero\n      iszero\n      mul\n      or\n      swap1\n      sstore\n      pop\n      0x20\n      dup3\n      add\n      mload\n      dup2\n      0x00\n      add\n      exp(0x0100, 0x01)\n      dup2\n      sload\n      dup2\n      0xff\n      mul\n      not\n      and\n      swap1\n      dup4\n      iszero\n      iszero\n      mul\n      or\n      swap1\n      sstore\n      pop\n      0x40\n      dup3\n      add\n      mload\n      dup2\n      0x00\n      add\n      exp(0x0100, 0x02)\n      dup2\n      sload\n      dup2\n      0xffffffffffffffffffffffffffffffffffffffff\n      mul\n      not\n      and\n      swap1\n      dup4\n      0xffffffffffffffffffffffffffffffffffffffff\n      and\n      mul\n      or\n      swap1\n      sstore\n      pop\n      swap1\n      pop\n      pop\n        /* \"forward.sol\":2123:2445  function acceptOffer(uint offID, uint contractID) external onlyIssuer(contractID)  {... */\n      pop\n      pop\n      pop\n      jump\t// out\n        /* \"#utility.yul\":88:205   */\n    tag_85:\n        /* \"#utility.yul\":197:198   */\n      0x00\n        /* \"#utility.yul\":194:195   */\n      dup1\n        /* \"#utility.yul\":187:199   */\n      revert\n        /* \"#utility.yul\":211:328   */\n    tag_86:\n        /* \"#utility.yul\":320:321   */\n      0x00\n        /* \"#utility.yul\":317:318   */\n      dup1\n        /* \"#utility.yul\":310:322   */\n      revert\n        /* \"#utility.yul\":334:451   */\n    tag_87:\n        /* \"#utility.yul\":443:444   */\n      0x00\n        /* \"#utility.yul\":440:441   */\n      dup1\n        /* \"#utility.yul\":433:445   */\n      revert\n        /* \"#utility.yul\":457:574   */\n    tag_88:\n        /* \"#utility.yul\":566:567   */\n      0x00\n        /* \"#utility.yul\":563:564   */\n      dup1\n        /* \"#utility.yul\":556:568   */\n      revert\n        /* \"#utility.yul\":580:697   */\n    tag_89:\n        /* \"#utility.yul\":689:690   */\n      0x00\n        /* \"#utility.yul\":686:687   */\n      dup1\n        /* \"#utility.yul\":679:691   */\n      revert\n        /* \"#utility.yul\":717:1270   */\n    tag_90:\n        /* \"#utility.yul\":775:783   */\n      0x00\n        /* \"#utility.yul\":785:791   */\n      dup1\n        /* \"#utility.yul\":835:838   */\n      dup4\n        /* \"#utility.yul\":828:832   */\n      0x1f\n        /* \"#utility.yul\":820:826   */\n      dup5\n        /* \"#utility.yul\":816:833   */\n      add\n        /* \"#utility.yul\":812:839   */\n      slt\n        /* \"#utility.yul\":802:924   */\n      tag_123\n      jumpi\n        /* \"#utility.yul\":843:922   */\n      tag_124\n      tag_87\n      jump\t// in\n    tag_124:\n        /* \"#utility.yul\":802:924   */\n    tag_123:\n        /* \"#utility.yul\":956:962   */\n      dup3\n        /* \"#utility.yul\":943:963   */\n      calldataload\n        /* \"#utility.yul\":933:963   */\n      swap1\n      pop\n        /* \"#utility.yul\":986:1004   */\n      0xffffffffffffffff\n        /* \"#utility.yul\":978:984   */\n      dup2\n        /* \"#utility.yul\":975:1005   */\n      gt\n        /* \"#utility.yul\":972:1089   */\n      iszero\n      tag_125\n      jumpi\n        /* \"#utility.yul\":1008:1087   */\n      tag_126\n      tag_88\n      jump\t// in\n    tag_126:\n        /* \"#utility.yul\":972:1089   */\n    tag_125:\n        /* \"#utility.yul\":1122:1126   */\n      0x20\n        /* \"#utility.yul\":1114:1120   */\n      dup4\n        /* \"#utility.yul\":1110:1127   */\n      add\n        /* \"#utility.yul\":1098:1127   */\n      swap2\n      pop\n        /* \"#utility.yul\":1176:1179   */\n      dup4\n        /* \"#utility.yul\":1168:1172   */\n      0x01\n        /* \"#utility.yul\":1160:1166   */\n      dup3\n        /* \"#utility.yul\":1156:1173   */\n      mul\n        /* \"#utility.yul\":1146:1154   */\n      dup4\n        /* \"#utility.yul\":1142:1174   */\n      add\n        /* \"#utility.yul\":1139:1180   */\n      gt\n        /* \"#utility.yul\":1136:1264   */\n      iszero\n      tag_127\n      jumpi\n        /* \"#utility.yul\":1183:1262   */\n      tag_128\n      tag_89\n      jump\t// in\n    tag_128:\n        /* \"#utility.yul\":1136:1264   */\n    tag_127:\n        /* \"#utility.yul\":717:1270   */\n      swap3\n      pop\n      swap3\n      swap1\n      pop\n      jump\t// out\n        /* \"#utility.yul\":1276:1353   */\n    tag_91:\n        /* \"#utility.yul\":1313:1320   */\n      0x00\n        /* \"#utility.yul\":1342:1347   */\n      dup2\n        /* \"#utility.yul\":1331:1347   */\n      swap1\n      pop\n        /* \"#utility.yul\":1276:1353   */\n      swap2\n      swap1\n      pop\n      jump\t// out\n        /* \"#utility.yul\":1359:1481   */\n    tag_92:\n        /* \"#utility.yul\":1432:1456   */\n      tag_131\n        /* \"#utility.yul\":1450:1455   */\n      dup2\n        /* \"#utility.yul\":1432:1456   */\n      tag_91\n      jump\t// in\n    tag_131:\n        /* \"#utility.yul\":1425:1430   */\n      dup2\n        /* \"#utility.yul\":1422:1457   */\n      eq\n        /* \"#utility.yul\":1412:1475   */\n      tag_132\n      jumpi\n        /* \"#utility.yul\":1471:1472   */\n      0x00\n        /* \"#utility.yul\":1468:1469   */\n      dup1\n        /* \"#utility.yul\":1461:1473   */\n      revert\n        /* \"#utility.yul\":1412:1475   */\n    tag_132:\n        /* \"#utility.yul\":1359:1481   */\n      pop\n      jump\t// out\n        /* \"#utility.yul\":1487:1626   */\n    tag_93:\n        /* \"#utility.yul\":1533:1538   */\n      0x00\n        /* \"#utility.yul\":1571:1577   */\n      dup2\n        /* \"#utility.yul\":1558:1578   */\n      calldataload\n        /* \"#utility.yul\":1549:1578   */\n      swap1\n      pop\n        /* \"#utility.yul\":1587:1620   */\n      tag_134\n        /* \"#utility.yul\":1614:1619   */\n      dup2\n        /* \"#utility.yul\":1587:1620   */\n      tag_92\n      jump\t// in\n    tag_134:\n        /* \"#utility.yul\":1487:1626   */\n      swap3\n      swap2\n      pop\n      pop\n      jump\t// out\n        /* \"#utility.yul\":1632:2451   */\n    tag_10:\n        /* \"#utility.yul\":1721:1727   */\n      0x00\n        /* \"#utility.yul\":1729:1735   */\n      dup1\n        /* \"#utility.yul\":1737:1743   */\n      0x00\n        /* \"#utility.yul\":1745:1751   */\n      dup1\n        /* \"#utility.yul\":1794:1796   */\n      0x60\n        /* \"#utility.yul\":1782:1791   */\n      dup6\n        /* \"#utility.yul\":1773:1780   */\n      dup8\n        /* \"#utility.yul\":1769:1792   */\n      sub\n        /* \"#utility.yul\":1765:1797   */\n      slt\n        /* \"#utility.yul\":1762:1881   */\n      iszero\n      tag_136\n      jumpi\n        /* \"#utility.yul\":1800:1879   */\n      tag_137\n      tag_85\n      jump\t// in\n    tag_137:\n        /* \"#utility.yul\":1762:1881   */\n    tag_136:\n        /* \"#utility.yul\":1948:1949   */\n      0x00\n        /* \"#utility.yul\":1937:1946   */\n      dup6\n        /* \"#utility.yul\":1933:1950   */\n      add\n        /* \"#utility.yul\":1920:1951   */\n      calldataload\n        /* \"#utility.yul\":1978:1996   */\n      0xffffffffffffffff\n        /* \"#utility.yul\":1970:1976   */\n      dup2\n        /* \"#utility.yul\":1967:1997   */\n      gt\n        /* \"#utility.yul\":1964:2081   */\n      iszero\n      tag_138\n      jumpi\n        /* \"#utility.yul\":2000:2079   */\n      tag_139\n      tag_86\n      jump\t// in\n    tag_139:\n        /* \"#utility.yul\":1964:2081   */\n    tag_138:\n        /* \"#utility.yul\":2113:2178   */\n      tag_140\n        /* \"#utility.yul\":2170:2177   */\n      dup8\n        /* \"#utility.yul\":2161:2167   */\n      dup3\n        /* \"#utility.yul\":2150:2159   */\n      dup9\n        /* \"#utility.yul\":2146:2168   */\n      add\n        /* \"#utility.yul\":2113:2178   */\n      tag_90\n      jump\t// in\n    tag_140:\n        /* \"#utility.yul\":2095:2178   */\n      swap5\n      pop\n      swap5\n      pop\n        /* \"#utility.yul\":1891:2188   */\n      pop\n        /* \"#utility.yul\":2227:2229   */\n      0x20\n        /* \"#utility.yul\":2253:2306   */\n      tag_141\n        /* \"#utility.yul\":2298:2305   */\n      dup8\n        /* \"#utility.yul\":2289:2295   */\n      dup3\n        /* \"#utility.yul\":2278:2287   */\n      dup9\n        /* \"#utility.yul\":2274:2296   */\n      add\n        /* \"#utility.yul\":2253:2306   */\n      tag_93\n      jump\t// in\n    tag_141:\n        /* \"#utility.yul\":2243:2306   */\n      swap3\n      pop\n        /* \"#utility.yul\":2198:2316   */\n      pop\n        /* \"#utility.yul\":2355:2357   */\n      0x40\n        /* \"#utility.yul\":2381:2434   */\n      tag_142\n        /* \"#utility.yul\":2426:2433   */\n      dup8\n        /* \"#utility.yul\":2417:2423   */\n      dup3\n        /* \"#utility.yul\":2406:2415   */\n      dup9\n        /* \"#utility.yul\":2402:2424   */\n      add\n        /* \"#utility.yul\":2381:2434   */\n      tag_93\n      jump\t// in\n    tag_142:\n        /* \"#utility.yul\":2371:2434   */\n      swap2\n      pop\n        /* \"#utility.yul\":2326:2444   */\n      pop\n        /* \"#utility.yul\":1632:2451   */\n      swap3\n      swap6\n      swap2\n      swap5\n      pop\n      swap3\n      pop\n      jump\t// out\n        /* \"#utility.yul\":2457:2575   */\n    tag_94:\n        /* \"#utility.yul\":2544:2568   */\n      tag_144\n        /* \"#utility.yul\":2562:2567   */\n      dup2\n        /* \"#utility.yul\":2544:2568   */\n      tag_91\n      jump\t// in\n    tag_144:\n        /* \"#utility.yul\":2539:2542   */\n      dup3\n        /* \"#utility.yul\":2532:2569   */\n      mstore\n        /* \"#utility.yul\":2457:2575   */\n      pop\n      pop\n      jump\t// out\n        /* \"#utility.yul\":2581:2803   */\n    tag_13:\n        /* \"#utility.yul\":2674:2678   */\n      0x00\n        /* \"#utility.yul\":2712:2714   */\n      0x20\n        /* \"#utility.yul\":2701:2710   */\n      dup3\n        /* \"#utility.yul\":2697:2715   */\n      add\n        /* \"#utility.yul\":2689:2715   */\n      swap1\n      pop\n        /* \"#utility.yul\":2725:2796   */\n      tag_146\n        /* \"#utility.yul\":2793:2794   */\n      0x00\n        /* \"#utility.yul\":2782:2791   */\n      dup4\n        /* \"#utility.yul\":2778:2795   */\n      add\n        /* \"#utility.yul\":2769:2775   */\n      dup5\n        /* \"#utility.yul\":2725:2796   */\n      tag_94\n      jump\t// in\n    tag_146:\n        /* \"#utility.yul\":2581:2803   */\n      swap3\n      swap2\n      pop\n      pop\n      jump\t// out\n        /* \"#utility.yul\":2809:3138   */\n    tag_17:\n        /* \"#utility.yul\":2868:2874   */\n      0x00\n        /* \"#utility.yul\":2917:2919   */\n      0x20\n        /* \"#utility.yul\":2905:2914   */\n      dup3\n        /* \"#utility.yul\":2896:2903   */\n      dup5\n        /* \"#utility.yul\":2892:2915   */\n      sub\n        /* \"#utility.yul\":2888:2920   */\n      slt\n        /* \"#utility.yul\":2885:3004   */\n      iszero\n      tag_148\n      jumpi\n        /* \"#utility.yul\":2923:3002   */\n      tag_149\n      tag_85\n      jump\t// in\n    tag_149:\n        /* \"#utility.yul\":2885:3004   */\n    tag_148:\n        /* \"#utility.yul\":3043:3044   */\n      0x00\n        /* \"#utility.yul\":3068:3121   */\n      tag_150\n        /* \"#utility.yul\":3113:3120   */\n      dup5\n        /* \"#utility.yul\":3104:3110   */\n      dup3\n        /* \"#utility.yul\":3093:3102   */\n      dup6\n        /* \"#utility.yul\":3089:3111   */\n      add\n        /* \"#utility.yul\":3068:3121   */\n      tag_93\n      jump\t// in\n    tag_150:\n        /* \"#utility.yul\":3058:3121   */\n      swap2\n      pop\n        /* \"#utility.yul\":3014:3131   */\n      pop\n        /* \"#utility.yul\":2809:3138   */\n      swap3\n      swap2\n      pop\n      pop\n      jump\t// out\n        /* \"#utility.yul\":3144:3243   */\n    tag_95:\n        /* \"#utility.yul\":3196:3202   */\n      0x00\n        /* \"#utility.yul\":3230:3235   */\n      dup2\n        /* \"#utility.yul\":3224:3236   */\n      mload\n        /* \"#utility.yul\":3214:3236   */\n      swap1\n      pop\n        /* \"#utility.yul\":3144:3243   */\n      swap2\n      swap1\n      pop\n      jump\t// out\n        /* \"#utility.yul\":3249:3418   */\n    tag_96:\n        /* \"#utility.yul\":3333:3344   */\n      0x00\n        /* \"#utility.yul\":3367:3373   */\n      dup3\n        /* \"#utility.yul\":3362:3365   */\n      dup3\n        /* \"#utility.yul\":3355:3374   */\n      mstore\n        /* \"#utility.yul\":3407:3411   */\n      0x20\n        /* \"#utility.yul\":3402:3405   */\n      dup3\n        /* \"#utility.yul\":3398:3412   */\n      add\n        /* \"#utility.yul\":3383:3412   */\n      swap1\n      pop\n        /* \"#utility.yul\":3249:3418   */\n      swap3\n      swap2\n      pop\n      pop\n      jump\t// out\n        /* \"#utility.yul\":3424:3670   */\n    tag_97:\n        /* \"#utility.yul\":3505:3506   */\n      0x00\n        /* \"#utility.yul\":3515:3628   */\n    tag_154:\n        /* \"#utility.yul\":3529:3535   */\n      dup4\n        /* \"#utility.yul\":3526:3527   */\n      dup2\n        /* \"#utility.yul\":3523:3536   */\n      lt\n        /* \"#utility.yul\":3515:3628   */\n      iszero\n      tag_156\n      jumpi\n        /* \"#utility.yul\":3614:3615   */\n      dup1\n        /* \"#utility.yul\":3609:3612   */\n      dup3\n        /* \"#utility.yul\":3605:3616   */\n      add\n        /* \"#utility.yul\":3599:3617   */\n      mload\n        /* \"#utility.yul\":3595:3596   */\n      dup2\n        /* \"#utility.yul\":3590:3593   */\n      dup5\n        /* \"#utility.yul\":3586:3597   */\n      add\n        /* \"#utility.yul\":3579:3618   */\n      mstore\n        /* \"#utility.yul\":3551:3553   */\n      0x20\n        /* \"#utility.yul\":3548:3549   */\n      dup2\n        /* \"#utility.yul\":3544:3554   */\n      add\n        /* \"#utility.yul\":3539:3554   */\n      swap1\n      pop\n        /* \"#utility.yul\":3515:3628   */\n      jump(tag_154)\n    tag_156:\n        /* \"#utility.yul\":3662:3663   */\n      0x00\n        /* \"#utility.yul\":3653:3659   */\n      dup5\n        /* \"#utility.yul\":3648:3651   */\n      dup5\n        /* \"#utility.yul\":3644:3660   */\n      add\n        /* \"#utility.yul\":3637:3664   */\n      mstore\n        /* \"#utility.yul\":3486:3670   */\n      pop\n        /* \"#utility.yul\":3424:3670   */\n      pop\n      pop\n      pop\n      jump\t// out\n        /* \"#utility.yul\":3676:3778   */\n    tag_98:\n        /* \"#utility.yul\":3717:3723   */\n      0x00\n        /* \"#utility.yul\":3768:3770   */\n      0x1f\n        /* \"#utility.yul\":3764:3771   */\n      not\n        /* \"#utility.yul\":3759:3761   */\n      0x1f\n        /* \"#utility.yul\":3752:3757   */\n      dup4\n        /* \"#utility.yul\":3748:3762   */\n      add\n        /* \"#utility.yul\":3744:3772   */\n      and\n        /* \"#utility.yul\":3734:3772   */\n      swap1\n      pop\n        /* \"#utility.yul\":3676:3778   */\n      swap2\n      swap1\n      pop\n      jump\t// out\n        /* \"#utility.yul\":3784:4161   */\n    tag_99:\n        /* \"#utility.yul\":3872:3875   */\n      0x00\n        /* \"#utility.yul\":3900:3939   */\n      tag_159\n        /* \"#utility.yul\":3933:3938   */\n      dup3\n        /* \"#utility.yul\":3900:3939   */\n      tag_95\n      jump\t// in\n    tag_159:\n        /* \"#utility.yul\":3955:4026   */\n      tag_160\n        /* \"#utility.yul\":4019:4025   */\n      dup2\n        /* \"#utility.yul\":4014:4017   */\n      dup6\n        /* \"#utility.yul\":3955:4026   */\n      tag_96\n      jump\t// in\n    tag_160:\n        /* \"#utility.yul\":3948:4026   */\n      swap4\n      pop\n        /* \"#utility.yul\":4035:4100   */\n      tag_161\n        /* \"#utility.yul\":4093:4099   */\n      dup2\n        /* \"#utility.yul\":4088:4091   */\n      dup6\n        /* \"#utility.yul\":4081:4085   */\n      0x20\n        /* \"#utility.yul\":4074:4079   */\n      dup7\n        /* \"#utility.yul\":4070:4086   */\n      add\n        /* \"#utility.yul\":4035:4100   */\n      tag_97\n      jump\t// in\n    tag_161:\n        /* \"#utility.yul\":4125:4154   */\n      tag_162\n        /* \"#utility.yul\":4147:4153   */\n      dup2\n        /* \"#utility.yul\":4125:4154   */\n      tag_98\n      jump\t// in\n    tag_162:\n        /* \"#utility.yul\":4120:4123   */\n      dup5\n        /* \"#utility.yul\":4116:4155   */\n      add\n        /* \"#utility.yul\":4109:4155   */\n      swap2\n      pop\n        /* \"#utility.yul\":3876:4161   */\n      pop\n        /* \"#utility.yul\":3784:4161   */\n      swap3\n      swap2\n      pop\n      pop\n      jump\t// out\n        /* \"#utility.yul\":4167:4293   */\n    tag_100:\n        /* \"#utility.yul\":4204:4211   */\n      0x00\n        /* \"#utility.yul\":4244:4286   */\n      0xffffffffffffffffffffffffffffffffffffffff\n        /* \"#utility.yul\":4237:4242   */\n      dup3\n        /* \"#utility.yul\":4233:4287   */\n      and\n        /* \"#utility.yul\":4222:4287   */\n      swap1\n      pop\n        /* \"#utility.yul\":4167:4293   */\n      swap2\n      swap1\n      pop\n      jump\t// out\n        /* \"#utility.yul\":4299:4403   */\n    tag_101:\n        /* \"#utility.yul\":4344:4351   */\n      0x00\n        /* \"#utility.yul\":4373:4397   */\n      tag_165\n        /* \"#utility.yul\":4391:4396   */\n      dup3\n        /* \"#utility.yul\":4373:4397   */\n      tag_100\n      jump\t// in\n    tag_165:\n        /* \"#utility.yul\":4362:4397   */\n      swap1\n      pop\n        /* \"#utility.yul\":4299:4403   */\n      swap2\n      swap1\n      pop\n      jump\t// out\n        /* \"#utility.yul\":4409:4551   */\n    tag_102:\n        /* \"#utility.yul\":4512:4544   */\n      tag_167\n        /* \"#utility.yul\":4538:4543   */\n      dup2\n        /* \"#utility.yul\":4512:4544   */\n      tag_101\n      jump\t// in\n    tag_167:\n        /* \"#utility.yul\":4507:4510   */\n      dup3\n        /* \"#utility.yul\":4500:4545   */\n      mstore\n        /* \"#utility.yul\":4409:4551   */\n      pop\n      pop\n      jump\t// out\n        /* \"#utility.yul\":4557:5820   */\n    tag_20:\n        /* \"#utility.yul\":4926:4930   */\n      0x00\n        /* \"#utility.yul\":4964:4967   */\n      0x0120\n        /* \"#utility.yul\":4953:4962   */\n      dup3\n        /* \"#utility.yul\":4949:4968   */\n      add\n        /* \"#utility.yul\":4941:4968   */\n      swap1\n      pop\n        /* \"#utility.yul\":5014:5023   */\n      dup2\n        /* \"#utility.yul\":5008:5012   */\n      dup2\n        /* \"#utility.yul\":5004:5024   */\n      sub\n        /* \"#utility.yul\":5000:5001   */\n      0x00\n        /* \"#utility.yul\":4989:4998   */\n      dup4\n        /* \"#utility.yul\":4985:5002   */\n      add\n        /* \"#utility.yul\":4978:5025   */\n      mstore\n        /* \"#utility.yul\":5042:5120   */\n      tag_169\n        /* \"#utility.yul\":5115:5119   */\n      dup2\n        /* \"#utility.yul\":5106:5112   */\n      dup13\n        /* \"#utility.yul\":5042:5120   */\n      tag_99\n      jump\t// in\n    tag_169:\n        /* \"#utility.yul\":5034:5120   */\n      swap1\n      pop\n        /* \"#utility.yul\":5130:5218   */\n      tag_170\n        /* \"#utility.yul\":5214:5216   */\n      0x20\n        /* \"#utility.yul\":5203:5212   */\n      dup4\n        /* \"#utility.yul\":5199:5217   */\n      add\n        /* \"#utility.yul\":5190:5196   */\n      dup12\n        /* \"#utility.yul\":5130:5218   */\n      tag_102\n      jump\t// in\n    tag_170:\n        /* \"#utility.yul\":5228:5316   */\n      tag_171\n        /* \"#utility.yul\":5312:5314   */\n      0x40\n        /* \"#utility.yul\":5301:5310   */\n      dup4\n        /* \"#utility.yul\":5297:5315   */\n      add\n        /* \"#utility.yul\":5288:5294   */\n      dup11\n        /* \"#utility.yul\":5228:5316   */\n      tag_102\n      jump\t// in\n    tag_171:\n        /* \"#utility.yul\":5326:5398   */\n      tag_172\n        /* \"#utility.yul\":5394:5396   */\n      0x60\n        /* \"#utility.yul\":5383:5392   */\n      dup4\n        /* \"#utility.yul\":5379:5397   */\n      add\n        /* \"#utility.yul\":5370:5376   */\n      dup10\n        /* \"#utility.yul\":5326:5398   */\n      tag_94\n      jump\t// in\n    tag_172:\n        /* \"#utility.yul\":5408:5481   */\n      tag_173\n        /* \"#utility.yul\":5476:5479   */\n      0x80\n        /* \"#utility.yul\":5465:5474   */\n      dup4\n        /* \"#utility.yul\":5461:5480   */\n      add\n        /* \"#utility.yul\":5452:5458   */\n      dup9\n        /* \"#utility.yul\":5408:5481   */\n      tag_94\n      jump\t// in\n    tag_173:\n        /* \"#utility.yul\":5491:5564   */\n      tag_174\n        /* \"#utility.yul\":5559:5562   */\n      0xa0\n        /* \"#utility.yul\":5548:5557   */\n      dup4\n        /* \"#utility.yul\":5544:5563   */\n      add\n        /* \"#utility.yul\":5535:5541   */\n      dup8\n        /* \"#utility.yul\":5491:5564   */\n      tag_94\n      jump\t// in\n    tag_174:\n        /* \"#utility.yul\":5574:5647   */\n      tag_175\n        /* \"#utility.yul\":5642:5645   */\n      0xc0\n        /* \"#utility.yul\":5631:5640   */\n      dup4\n        /* \"#utility.yul\":5627:5646   */\n      add\n        /* \"#utility.yul\":5618:5624   */\n      dup7\n        /* \"#utility.yul\":5574:5647   */\n      tag_94\n      jump\t// in\n    tag_175:\n        /* \"#utility.yul\":5657:5730   */\n      tag_176\n        /* \"#utility.yul\":5725:5728   */\n      0xe0\n        /* \"#utility.yul\":5714:5723   */\n      dup4\n        /* \"#utility.yul\":5710:5729   */\n      add\n        /* \"#utility.yul\":5701:5707   */\n      dup6\n        /* \"#utility.yul\":5657:5730   */\n      tag_94\n      jump\t// in\n    tag_176:\n        /* \"#utility.yul\":5740:5813   */\n      tag_177\n        /* \"#utility.yul\":5808:5811   */\n      0x0100\n        /* \"#utility.yul\":5797:5806   */\n      dup4\n        /* \"#utility.yul\":5793:5812   */\n      add\n        /* \"#utility.yul\":5784:5790   */\n      dup5\n        /* \"#utility.yul\":5740:5813   */\n      tag_94\n      jump\t// in\n    tag_177:\n        /* \"#utility.yul\":4557:5820   */\n      swap11\n      swap10\n      pop\n      pop\n      pop\n      pop\n      pop\n      pop\n      pop\n      pop\n      pop\n      pop\n      jump\t// out\n        /* \"#utility.yul\":5826:6300   */\n    tag_23:\n        /* \"#utility.yul\":5894:5900   */\n      0x00\n        /* \"#utility.yul\":5902:5908   */\n      dup1\n        /* \"#utility.yul\":5951:5953   */\n      0x40\n        /* \"#utility.yul\":5939:5948   */\n      dup4\n        /* \"#utility.yul\":5930:5937   */\n      dup6\n        /* \"#utility.yul\":5926:5949   */\n      sub\n        /* \"#utility.yul\":5922:5954   */\n      slt\n        /* \"#utility.yul\":5919:6038   */\n      iszero\n      tag_179\n      jumpi\n        /* \"#utility.yul\":5957:6036   */\n      tag_180\n      tag_85\n      jump\t// in\n    tag_180:\n        /* \"#utility.yul\":5919:6038   */\n    tag_179:\n        /* \"#utility.yul\":6077:6078   */\n      0x00\n        /* \"#utility.yul\":6102:6155   */\n      tag_181\n        /* \"#utility.yul\":6147:6154   */\n      dup6\n        /* \"#utility.yul\":6138:6144   */\n      dup3\n        /* \"#utility.yul\":6127:6136   */\n      dup7\n        /* \"#utility.yul\":6123:6145   */\n      add\n        /* \"#utility.yul\":6102:6155   */\n      tag_93\n      jump\t// in\n    tag_181:\n        /* \"#utility.yul\":6092:6155   */\n      swap3\n      pop\n        /* \"#utility.yul\":6048:6165   */\n      pop\n        /* \"#utility.yul\":6204:6206   */\n      0x20\n        /* \"#utility.yul\":6230:6283   */\n      tag_182\n        /* \"#utility.yul\":6275:6282   */\n      dup6\n        /* \"#utility.yul\":6266:6272   */\n      dup3\n        /* \"#utility.yul\":6255:6264   */\n      dup7\n        /* \"#utility.yul\":6251:6273   */\n      add\n        /* \"#utility.yul\":6230:6283   */\n      tag_93\n      jump\t// in\n    tag_182:\n        /* \"#utility.yul\":6220:6283   */\n      swap2\n      pop\n        /* \"#utility.yul\":6175:6293   */\n      pop\n        /* \"#utility.yul\":5826:6300   */\n      swap3\n      pop\n      swap3\n      swap1\n      pop\n      jump\t// out\n        /* \"#utility.yul\":6306:6486   */\n    tag_103:\n        /* \"#utility.yul\":6354:6431   */\n      0x4e487b7100000000000000000000000000000000000000000000000000000000\n        /* \"#utility.yul\":6351:6352   */\n      0x00\n        /* \"#utility.yul\":6344:6432   */\n      mstore\n        /* \"#utility.yul\":6451:6455   */\n      0x11\n        /* \"#utility.yul\":6448:6449   */\n      0x04\n        /* \"#utility.yul\":6441:6456   */\n      mstore\n        /* \"#utility.yul\":6475:6479   */\n      0x24\n        /* \"#utility.yul\":6472:6473   */\n      0x00\n        /* \"#utility.yul\":6465:6480   */\n      revert\n        /* \"#utility.yul\":6492:6683   */\n    tag_38:\n        /* \"#utility.yul\":6532:6535   */\n      0x00\n        /* \"#utility.yul\":6551:6571   */\n      tag_185\n        /* \"#utility.yul\":6569:6570   */\n      dup3\n        /* \"#utility.yul\":6551:6571   */\n      tag_91\n      jump\t// in\n    tag_185:\n        /* \"#utility.yul\":6546:6571   */\n      swap2\n      pop\n        /* \"#utility.yul\":6585:6605   */\n      tag_186\n        /* \"#utility.yul\":6603:6604   */\n      dup4\n        /* \"#utility.yul\":6585:6605   */\n      tag_91\n      jump\t// in\n    tag_186:\n        /* \"#utility.yul\":6580:6605   */\n      swap3\n      pop\n        /* \"#utility.yul\":6628:6629   */\n      dup3\n        /* \"#utility.yul\":6625:6626   */\n      dup3\n        /* \"#utility.yul\":6621:6630   */\n      add\n        /* \"#utility.yul\":6614:6630   */\n      swap1\n      pop\n        /* \"#utility.yul\":6649:6652   */\n      dup1\n        /* \"#utility.yul\":6646:6647   */\n      dup3\n        /* \"#utility.yul\":6643:6653   */\n      gt\n        /* \"#utility.yul\":6640:6676   */\n      iszero\n      tag_187\n      jumpi\n        /* \"#utility.yul\":6656:6674   */\n      tag_188\n      tag_103\n      jump\t// in\n    tag_188:\n        /* \"#utility.yul\":6640:6676   */\n    tag_187:\n        /* \"#utility.yul\":6492:6683   */\n      swap3\n      swap2\n      pop\n      pop\n      jump\t// out\n        /* \"#utility.yul\":6689:6855   */\n    tag_104:\n        /* \"#utility.yul\":6829:6847   */\n      0x4174206c65617374206f6e652064617900000000000000000000000000000000\n        /* \"#utility.yul\":6825:6826   */\n      0x00\n        /* \"#utility.yul\":6817:6823   */\n      dup3\n        /* \"#utility.yul\":6813:6827   */\n      add\n        /* \"#utility.yul\":6806:6848   */\n      mstore\n        /* \"#utility.yul\":6689:6855   */\n      pop\n      jump\t// out\n        /* \"#utility.yul\":6861:7227   */\n    tag_105:\n        /* \"#utility.yul\":7003:7006   */\n      0x00\n        /* \"#utility.yul\":7024:7091   */\n      tag_191\n        /* \"#utility.yul\":7088:7090   */\n      0x10\n        /* \"#utility.yul\":7083:7086   */\n      dup4\n        /* \"#utility.yul\":7024:7091   */\n      tag_96\n      jump\t// in\n    tag_191:\n        /* \"#utility.yul\":7017:7091   */\n      swap2\n      pop\n        /* \"#utility.yul\":7100:7193   */\n      tag_192\n        /* \"#utility.yul\":7189:7192   */\n      dup3\n        /* \"#utility.yul\":7100:7193   */\n      tag_104\n      jump\t// in\n    tag_192:\n        /* \"#utility.yul\":7218:7220   */\n      0x20\n        /* \"#utility.yul\":7213:7216   */\n      dup3\n        /* \"#utility.yul\":7209:7221   */\n      add\n        /* \"#utility.yul\":7202:7221   */\n      swap1\n      pop\n        /* \"#utility.yul\":6861:7227   */\n      swap2\n      swap1\n      pop\n      jump\t// out\n        /* \"#utility.yul\":7233:7652   */\n    tag_41:\n        /* \"#utility.yul\":7399:7403   */\n      0x00\n        /* \"#utility.yul\":7437:7439   */\n      0x20\n        /* \"#utility.yul\":7426:7435   */\n      dup3\n        /* \"#utility.yul\":7422:7440   */\n      add\n        /* \"#utility.yul\":7414:7440   */\n      swap1\n      pop\n        /* \"#utility.yul\":7486:7495   */\n      dup2\n        /* \"#utility.yul\":7480:7484   */\n      dup2\n        /* \"#utility.yul\":7476:7496   */\n      sub\n        /* \"#utility.yul\":7472:7473   */\n      0x00\n        /* \"#utility.yul\":7461:7470   */\n      dup4\n        /* \"#utility.yul\":7457:7474   */\n      add\n        /* \"#utility.yul\":7450:7497   */\n      mstore\n        /* \"#utility.yul\":7514:7645   */\n      tag_194\n        /* \"#utility.yul\":7640:7644   */\n      dup2\n        /* \"#utility.yul\":7514:7645   */\n      tag_105\n      jump\t// in\n    tag_194:\n        /* \"#utility.yul\":7506:7645   */\n      swap1\n      pop\n        /* \"#utility.yul\":7233:7652   */\n      swap2\n      swap1\n      pop\n      jump\t// out\n        /* \"#utility.yul\":7658:7754   */\n    tag_106:\n        /* \"#utility.yul\":7695:7702   */\n      0x00\n        /* \"#utility.yul\":7724:7748   */\n      tag_196\n        /* \"#utility.yul\":7742:7747   */\n      dup3\n        /* \"#utility.yul\":7724:7748   */\n      tag_100\n      jump\t// in\n    tag_196:\n        /* \"#utility.yul\":7713:7748   */\n      swap1\n      pop\n        /* \"#utility.yul\":7658:7754   */\n      swap2\n      swap1\n      pop\n      jump\t// out\n        /* \"#utility.yul\":7760:7878   */\n    tag_107:\n        /* \"#utility.yul\":7847:7871   */\n      tag_198\n        /* \"#utility.yul\":7865:7870   */\n      dup2\n        /* \"#utility.yul\":7847:7871   */\n      tag_106\n      jump\t// in\n    tag_198:\n        /* \"#utility.yul\":7842:7845   */\n      dup3\n        /* \"#utility.yul\":7835:7872   */\n      mstore\n        /* \"#utility.yul\":7760:7878   */\n      pop\n      pop\n      jump\t// out\n        /* \"#utility.yul\":7884:8030   */\n    tag_108:\n        /* \"#utility.yul\":7981:7987   */\n      dup3\n        /* \"#utility.yul\":7976:7979   */\n      dup2\n        /* \"#utility.yul\":7971:7974   */\n      dup4\n        /* \"#utility.yul\":7958:7988   */\n      calldatacopy\n        /* \"#utility.yul\":8022:8023   */\n      0x00\n        /* \"#utility.yul\":8013:8019   */\n      dup4\n        /* \"#utility.yul\":8008:8011   */\n      dup4\n        /* \"#utility.yul\":8004:8020   */\n      add\n        /* \"#utility.yul\":7997:8024   */\n      mstore\n        /* \"#utility.yul\":7884:8030   */\n      pop\n      pop\n      pop\n      jump\t// out\n        /* \"#utility.yul\":8060:8377   */\n    tag_109:\n        /* \"#utility.yul\":8158:8161   */\n      0x00\n        /* \"#utility.yul\":8179:8250   */\n      tag_201\n        /* \"#utility.yul\":8243:8249   */\n      dup4\n        /* \"#utility.yul\":8238:8241   */\n      dup6\n        /* \"#utility.yul\":8179:8250   */\n      tag_96\n      jump\t// in\n    tag_201:\n        /* \"#utility.yul\":8172:8250   */\n      swap4\n      pop\n        /* \"#utility.yul\":8260:8316   */\n      tag_202\n        /* \"#utility.yul\":8309:8315   */\n      dup4\n        /* \"#utility.yul\":8304:8307   */\n      dup6\n        /* \"#utility.yul\":8297:8302   */\n      dup5\n        /* \"#utility.yul\":8260:8316   */\n      tag_108\n      jump\t// in\n    tag_202:\n        /* \"#utility.yul\":8341:8370   */\n      tag_203\n        /* \"#utility.yul\":8363:8369   */\n      dup4\n        /* \"#utility.yul\":8341:8370   */\n      tag_98\n      jump\t// in\n    tag_203:\n        /* \"#utility.yul\":8336:8339   */\n      dup5\n        /* \"#utility.yul\":8332:8371   */\n      add\n        /* \"#utility.yul\":8325:8371   */\n      swap1\n      pop\n        /* \"#utility.yul\":8060:8377   */\n      swap4\n      swap3\n      pop\n      pop\n      pop\n      jump\t// out\n        /* \"#utility.yul\":8383:9047   */\n    tag_44:\n        /* \"#utility.yul\":8590:8594   */\n      0x00\n        /* \"#utility.yul\":8628:8631   */\n      0x80\n        /* \"#utility.yul\":8617:8626   */\n      dup3\n        /* \"#utility.yul\":8613:8632   */\n      add\n        /* \"#utility.yul\":8605:8632   */\n      swap1\n      pop\n        /* \"#utility.yul\":8642:8713   */\n      tag_205\n        /* \"#utility.yul\":8710:8711   */\n      0x00\n        /* \"#utility.yul\":8699:8708   */\n      dup4\n        /* \"#utility.yul\":8695:8712   */\n      add\n        /* \"#utility.yul\":8686:8692   */\n      dup9\n        /* \"#utility.yul\":8642:8713   */\n      tag_107\n      jump\t// in\n    tag_205:\n        /* \"#utility.yul\":8760:8769   */\n      dup2\n        /* \"#utility.yul\":8754:8758   */\n      dup2\n        /* \"#utility.yul\":8750:8770   */\n      sub\n        /* \"#utility.yul\":8745:8747   */\n      0x20\n        /* \"#utility.yul\":8734:8743   */\n      dup4\n        /* \"#utility.yul\":8730:8748   */\n      add\n        /* \"#utility.yul\":8723:8771   */\n      mstore\n        /* \"#utility.yul\":8788:8876   */\n      tag_206\n        /* \"#utility.yul\":8871:8875   */\n      dup2\n        /* \"#utility.yul\":8862:8868   */\n      dup7\n        /* \"#utility.yul\":8854:8860   */\n      dup9\n        /* \"#utility.yul\":8788:8876   */\n      tag_109\n      jump\t// in\n    tag_206:\n        /* \"#utility.yul\":8780:8876   */\n      swap1\n      pop\n        /* \"#utility.yul\":8886:8958   */\n      tag_207\n        /* \"#utility.yul\":8954:8956   */\n      0x40\n        /* \"#utility.yul\":8943:8952   */\n      dup4\n        /* \"#utility.yul\":8939:8957   */\n      add\n        /* \"#utility.yul\":8930:8936   */\n      dup6\n        /* \"#utility.yul\":8886:8958   */\n      tag_94\n      jump\t// in\n    tag_207:\n        /* \"#utility.yul\":8968:9040   */\n      tag_208\n        /* \"#utility.yul\":9036:9038   */\n      0x60\n        /* \"#utility.yul\":9025:9034   */\n      dup4\n        /* \"#utility.yul\":9021:9039   */\n      add\n        /* \"#utility.yul\":9012:9018   */\n      dup5\n        /* \"#utility.yul\":8968:9040   */\n      tag_94\n      jump\t// in\n    tag_208:\n        /* \"#utility.yul\":8383:9047   */\n      swap7\n      swap6\n      pop\n      pop\n      pop\n      pop\n      pop\n      pop\n      jump\t// out\n        /* \"#utility.yul\":9053:9286   */\n    tag_46:\n        /* \"#utility.yul\":9092:9095   */\n      0x00\n        /* \"#utility.yul\":9115:9139   */\n      tag_210\n        /* \"#utility.yul\":9133:9138   */\n      dup3\n        /* \"#utility.yul\":9115:9139   */\n      tag_91\n      jump\t// in\n    tag_210:\n        /* \"#utility.yul\":9106:9139   */\n      swap2\n      pop\n        /* \"#utility.yul\":9161:9227   */\n      0xffffffffffffffffffffffffffffffffffffffffffffffffffffffffffffffff\n        /* \"#utility.yul\":9154:9159   */\n      dup3\n        /* \"#utility.yul\":9151:9228   */\n      sub\n        /* \"#utility.yul\":9148:9251   */\n      tag_211\n      jumpi\n        /* \"#utility.yul\":9231:9249   */\n      tag_212\n      tag_103\n      jump\t// in\n    tag_212:\n        /* \"#utility.yul\":9148:9251   */\n    tag_211:\n        /* \"#utility.yul\":9278:9279   */\n      0x01\n        /* \"#utility.yul\":9271:9276   */\n      dup3\n        /* \"#utility.yul\":9267:9280   */\n      add\n        /* \"#utility.yul\":9260:9280   */\n      swap1\n      pop\n        /* \"#utility.yul\":9053:9286   */\n      swap2\n      swap1\n      pop\n      jump\t// out\n        /* \"#utility.yul\":9292:9472   */\n    tag_110:\n        /* \"#utility.yul\":9340:9417   */\n      0x4e487b7100000000000000000000000000000000000000000000000000000000\n        /* \"#utility.yul\":9337:9338   */\n      0x00\n        /* \"#utility.yul\":9330:9418   */\n      mstore\n        /* \"#utility.yul\":9437:9441   */\n      0x22\n        /* \"#utility.yul\":9434:9435   */\n      0x04\n        /* \"#utility.yul\":9427:9442   */\n      mstore\n        /* \"#utility.yul\":9461:9465   */\n      0x24\n        /* \"#utility.yul\":9458:9459   */\n      0x00\n        /* \"#utility.yul\":9451:9466   */\n      revert\n        /* \"#utility.yul\":9478:9798   */\n    tag_48:\n        /* \"#utility.yul\":9522:9528   */\n      0x00\n        /* \"#utility.yul\":9559:9560   */\n      0x02\n        /* \"#utility.yul\":9553:9557   */\n      dup3\n        /* \"#utility.yul\":9549:9561   */\n      div\n        /* \"#utility.yul\":9539:9561   */\n      swap1\n      pop\n        /* \"#utility.yul\":9606:9607   */\n      0x01\n        /* \"#utility.yul\":9600:9604   */\n      dup3\n        /* \"#utility.yul\":9596:9608   */\n      and\n        /* \"#utility.yul\":9627:9645   */\n      dup1\n        /* \"#utility.yul\":9617:9698   */\n      tag_215\n      jumpi\n        /* \"#utility.yul\":9683:9687   */\n      0x7f\n        /* \"#utility.yul\":9675:9681   */\n      dup3\n        /* \"#utility.yul\":9671:9688   */\n      and\n        /* \"#utility.yul\":9661:9688   */\n      swap2\n      pop\n        /* \"#utility.yul\":9617:9698   */\n    tag_215:\n        /* \"#utility.yul\":9745:9747   */\n      0x20\n        /* \"#utility.yul\":9737:9743   */\n      dup3\n        /* \"#utility.yul\":9734:9748   */\n      lt\n        /* \"#utility.yul\":9714:9732   */\n      dup2\n        /* \"#utility.yul\":9711:9749   */\n      sub\n        /* \"#utility.yul\":9708:9792   */\n      tag_216\n      jumpi\n        /* \"#utility.yul\":9764:9782   */\n      tag_217\n      tag_110\n      jump\t// in\n    tag_217:\n        /* \"#utility.yul\":9708:9792   */\n    tag_216:\n        /* \"#utility.yul\":9529:9798   */\n      pop\n        /* \"#utility.yul\":9478:9798   */\n      swap2\n      swap1\n      pop\n      jump\t// out\n        /* \"#utility.yul\":9804:10246   */\n    tag_58:\n        /* \"#utility.yul\":9953:9957   */\n      0x00\n        /* \"#utility.yul\":9991:9993   */\n      0x60\n        /* \"#utility.yul\":9980:9989   */\n      dup3\n        /* \"#utility.yul\":9976:9994   */\n      add\n        /* \"#utility.yul\":9968:9994   */\n      swap1\n      pop\n        /* \"#utility.yul\":10004:10075   */\n      tag_219\n        /* \"#utility.yul\":10072:10073   */\n      0x00\n        /* \"#utility.yul\":10061:10070   */\n      dup4\n        /* \"#utility.yul\":10057:10074   */\n      add\n        /* \"#utility.yul\":10048:10054   */\n      dup7\n        /* \"#utility.yul\":10004:10075   */\n      tag_107\n      jump\t// in\n    tag_219:\n        /* \"#utility.yul\":10085:10157   */\n      tag_220\n        /* \"#utility.yul\":10153:10155   */\n      0x20\n        /* \"#utility.yul\":10142:10151   */\n      dup4\n        /* \"#utility.yul\":10138:10156   */\n      add\n        /* \"#utility.yul\":10129:10135   */\n      dup6\n        /* \"#utility.yul\":10085:10157   */\n      tag_94\n      jump\t// in\n    tag_220:\n        /* \"#utility.yul\":10167:10239   */\n      tag_221\n        /* \"#utility.yul\":10235:10237   */\n      0x40\n        /* \"#utility.yul\":10224:10233   */\n      dup4\n        /* \"#utility.yul\":10220:10238   */\n      add\n        /* \"#utility.yul\":10211:10217   */\n      dup5\n        /* \"#utility.yul\":10167:10239   */\n      tag_94\n      jump\t// in\n    tag_221:\n        /* \"#utility.yul\":9804:10246   */\n      swap5\n      swap4\n      pop\n      pop\n      pop\n      pop\n      jump\t// out\n        /* \"#utility.yul\":10252:10414   */\n    tag_111:\n        /* \"#utility.yul\":10392:10406   */\n      0x4e6f742061636365707465640000000000000000000000000000000000000000\n        /* \"#utility.yul\":10388:10389   */\n      0x00\n        /* \"#utility.yul\":10380:10386   */\n      dup3\n        /* \"#utility.yul\":10376:10390   */\n      add\n        /* \"#utility.yul\":10369:10407   */\n      mstore\n        /* \"#utility.yul\":10252:10414   */\n      pop\n      jump\t// out\n        /* \"#utility.yul\":10420:10786   */\n    tag_112:\n        /* \"#utility.yul\":10562:10565   */\n      0x00\n        /* \"#utility.yul\":10583:10650   */\n      tag_224\n        /* \"#utility.yul\":10647:10649   */\n      0x0c\n        /* \"#utility.yul\":10642:10645   */\n      dup4\n        /* \"#utility.yul\":10583:10650   */\n      tag_96\n      jump\t// in\n    tag_224:\n        /* \"#utility.yul\":10576:10650   */\n      swap2\n      pop\n        /* \"#utility.yul\":10659:10752   */\n      tag_225\n        /* \"#utility.yul\":10748:10751   */\n      dup3\n        /* \"#utility.yul\":10659:10752   */\n      tag_111\n      jump\t// in\n    tag_225:\n        /* \"#utility.yul\":10777:10779   */\n      0x20\n        /* \"#utility.yul\":10772:10775   */\n      dup3\n        /* \"#utility.yul\":10768:10780   */\n      add\n        /* \"#utility.yul\":10761:10780   */\n      swap1\n      pop\n        /* \"#utility.yul\":10420:10786   */\n      swap2\n      swap1\n      pop\n      jump\t// out\n        /* \"#utility.yul\":10792:11211   */\n    tag_68:\n        /* \"#utility.yul\":10958:10962   */\n      0x00\n        /* \"#utility.yul\":10996:10998   */\n      0x20\n        /* \"#utility.yul\":10985:10994   */\n      dup3\n        /* \"#utility.yul\":10981:10999   */\n      add\n        /* \"#utility.yul\":10973:10999   */\n      swap1\n      pop\n        /* \"#utility.yul\":11045:11054   */\n      dup2\n        /* \"#utility.yul\":11039:11043   */\n      dup2\n        /* \"#utility.yul\":11035:11055   */\n      sub\n        /* \"#utility.yul\":11031:11032   */\n      0x00\n        /* \"#utility.yul\":11020:11029   */\n      dup4\n        /* \"#utility.yul\":11016:11033   */\n      add\n        /* \"#utility.yul\":11009:11056   */\n      mstore\n        /* \"#utility.yul\":11073:11204   */\n      tag_227\n        /* \"#utility.yul\":11199:11203   */\n      dup2\n        /* \"#utility.yul\":11073:11204   */\n      tag_112\n      jump\t// in\n    tag_227:\n        /* \"#utility.yul\":11065:11204   */\n      swap1\n      pop\n        /* \"#utility.yul\":10792:11211   */\n      swap2\n      swap1\n      pop\n      jump\t// out\n        /* \"#utility.yul\":11217:11379   */\n    tag_113:\n        /* \"#utility.yul\":11357:11371   */\n      0x556e617574686f72697a65640000000000000000000000000000000000000000\n        /* \"#utility.yul\":11353:11354   */\n      0x00\n        /* \"#utility.yul\":11345:11351   */\n      dup3\n        /* \"#utility.yul\":11341:11355   */\n      add\n        /* \"#utility.yul\":11334:11372   */\n      mstore\n        /* \"#utility.yul\":11217:11379   */\n      pop\n      jump\t// out\n        /* \"#utility.yul\":11385:11751   */\n    tag_114:\n        /* \"#utility.yul\":11527:11530   */\n      0x00\n        /* \"#utility.yul\":11548:11615   */\n      tag_230\n        /* \"#utility.yul\":11612:11614   */\n      0x0c\n        /* \"#utility.yul\":11607:11610   */\n      dup4\n        /* \"#utility.yul\":11548:11615   */\n      tag_96\n      jump\t// in\n    tag_230:\n        /* \"#utility.yul\":11541:11615   */\n      swap2\n      pop\n        /* \"#utility.yul\":11624:11717   */\n      tag_231\n        /* \"#utility.yul\":11713:11716   */\n      dup3\n        /* \"#utility.yul\":11624:11717   */\n      tag_113\n      jump\t// in\n    tag_231:\n        /* \"#utility.yul\":11742:11744   */\n      0x20\n        /* \"#utility.yul\":11737:11740   */\n      dup3\n        /* \"#utility.yul\":11733:11745   */\n      add\n        /* \"#utility.yul\":11726:11745   */\n      swap1\n      pop\n        /* \"#utility.yul\":11385:11751   */\n      swap2\n      swap1\n      pop\n      jump\t// out\n        /* \"#utility.yul\":11757:12176   */\n    tag_75:\n        /* \"#utility.yul\":11923:11927   */\n      0x00\n        /* \"#utility.yul\":11961:11963   */\n      0x20\n        /* \"#utility.yul\":11950:11959   */\n      dup3\n        /* \"#utility.yul\":11946:11964   */\n      add\n        /* \"#utility.yul\":11938:11964   */\n      swap1\n      pop\n        /* \"#utility.yul\":12010:12019   */\n      dup2\n        /* \"#utility.yul\":12004:12008   */\n      dup2\n        /* \"#utility.yul\":12000:12020   */\n      sub\n        /* \"#utility.yul\":11996:11997   */\n      0x00\n        /* \"#utility.yul\":11985:11994   */\n      dup4\n        /* \"#utility.yul\":11981:11998   */\n      add\n        /* \"#utility.yul\":11974:12021   */\n      mstore\n        /* \"#utility.yul\":12038:12169   */\n      tag_233\n        /* \"#utility.yul\":12164:12168   */\n      dup2\n        /* \"#utility.yul\":12038:12169   */\n      tag_114\n      jump\t// in\n    tag_233:\n        /* \"#utility.yul\":12030:12169   */\n      swap1\n      pop\n        /* \"#utility.yul\":11757:12176   */\n      swap2\n      swap1\n      pop\n      jump\t// out\n        /* \"#utility.yul\":12182:12362   */\n    tag_79:\n        /* \"#utility.yul\":12230:12307   */\n      0x4e487b7100000000000000000000000000000000000000000000000000000000\n        /* \"#utility.yul\":12227:12228   */\n      0x00\n        /* \"#utility.yul\":12220:12308   */\n      mstore\n        /* \"#utility.yul\":12327:12331   */\n      0x32\n        /* \"#utility.yul\":12324:12325   */\n      0x04\n        /* \"#utility.yul\":12317:12332   */\n      mstore\n        /* \"#utility.yul\":12351:12355   */\n      0x24\n        /* \"#utility.yul\":12348:12349   */\n      0x00\n        /* \"#utility.yul\":12341:12356   */\n      revert\n\n    auxdata: 0xa264697066735822122018270587eb527d74f4282f7e60b6451c486c5aa87534607a7f9cde99558299c264736f6c63430008110033\n}\n",
				"bytecode": {
					"linkReferences": {},
					"object": "608060405260008055600060015534801561001957600080fd5b5061125e806100296000396000f3fe6080604052600436106100555760003560e01c80630a5c8d5e1461005a578063474da79a1461008a5780636328febc146100cf5780636e24f037146100eb5780637e0b8ff01461011457806381257bd514610130575b600080fd5b610074600480360381019061006f9190610c58565b610159565b6040516100819190610cdb565b60405180910390f35b34801561009657600080fd5b506100b160048036038101906100ac9190610cf6565b610225565b6040516100c699989796959493929190610df4565b60405180910390f35b6100e960048036038101906100e49190610e88565b61033b565b005b3480156100f757600080fd5b50610112600480360381019061010d9190610cf6565b610488565b005b61012e60048036038101906101299190610cf6565b6107b1565b005b34801561013c57600080fd5b5061015760048036038101906101529190610e88565b610932565b005b6000620151804261016a9190610ef7565b82116101ab576040517f08c379a00000000000000000000000000000000000000000000000000000000081526004016101a290610f77565b60405180910390fd5b34600160008282546101bd9190610ef7565b925050819055506000547fffb39da08503bbf77fd07dd25e2cd85029abeb9618ee7fd7aa5adc468a51ffe233878786346040516101fe959493929190610ff4565b60405180910390a260008081548092919061021890611042565b9190505550949350505050565b6002602052806000526040600020600091509050806000018054610248906110b9565b80601f0160208091040260200160405190810160405280929190818152602001828054610274906110b9565b80156102c15780601f10610296576101008083540402835291602001916102c1565b820191906000526020600020905b8154815290600101906020018083116102a457829003601f168201915b5050505050908060010160009054906101000a900473ffffffffffffffffffffffffffffffffffffffff16908060020160009054906101000a900473ffffffffffffffffffffffffffffffffffffffff16908060030154908060040154908060050154908060060154908060070154908060080154905089565b6002600083815260200190815260200160002060090160405180608001604052803481526020018381526020013373ffffffffffffffffffffffffffffffffffffffff1681526020016000548152509080600181540180825580915050600190039060005260206000209060040201600090919091909150600082015181600001556020820151816001015560408201518160020160006101000a81548173ffffffffffffffffffffffffffffffffffffffff021916908373ffffffffffffffffffffffffffffffffffffffff160217905550606082015181600301555050346001600082825461042c9190610ef7565b9250508190555060008081548092919061044590611042565b919050557fbd50812ed14fe4caeab6a9edec79c48f0cb0efa5a704560c6b8d66bd60e0cfe933833460405161047c939291906110ea565b60405180910390a25050565b6002600082815260200190815260200160002060010160009054906101000a900473ffffffffffffffffffffffffffffffffffffffff1673ffffffffffffffffffffffffffffffffffffffff163373ffffffffffffffffffffffffffffffffffffffff1614801561055b5750600073ffffffffffffffffffffffffffffffffffffffff166003600083815260200190815260200160002060000160029054906101000a900473ffffffffffffffffffffffffffffffffffffffff1673ffffffffffffffffffffffffffffffffffffffff16145b1561061b576002600082815260200190815260200160002060020160009054906101000a900473ffffffffffffffffffffffffffffffffffffffff166003600083815260200190815260200160002060000160026101000a81548173ffffffffffffffffffffffffffffffffffffffff021916908373ffffffffffffffffffffffffffffffffffffffff16021790555060016003600083815260200190815260200160002060000160006101000a81548160ff0219169083151502179055505b6002600082815260200190815260200160002060020160009054906101000a900473ffffffffffffffffffffffffffffffffffffffff1673ffffffffffffffffffffffffffffffffffffffff163373ffffffffffffffffffffffffffffffffffffffff161480156106ee5750600073ffffffffffffffffffffffffffffffffffffffff166003600083815260200190815260200160002060000160029054906101000a900473ffffffffffffffffffffffffffffffffffffffff1673ffffffffffffffffffffffffffffffffffffffff16145b156107ae576002600082815260200190815260200160002060010160009054906101000a900473ffffffffffffffffffffffffffffffffffffffff166003600083815260200190815260200160002060000160026101000a81548173ffffffffffffffffffffffffffffffffffffffff021916908373ffffffffffffffffffffffffffffffffffffffff16021790555060016003600083815260200190815260200160002060000160016101000a81548160ff0219169083151502179055505b50565b600115156003600083815260200190815260200160002060000160019054906101000a900460ff16151514801561080f5750600115156003600083815260200190815260200160002060000160009054906101000a900460ff161515145b61084e576040517f08c379a00000000000000000000000000000000000000000000000000000000081526004016108459061116d565b60405180910390fd5b6003600082815260200190815260200160002060000160029054906101000a900473ffffffffffffffffffffffffffffffffffffffff1673ffffffffffffffffffffffffffffffffffffffff166108fc600260008481526020019081526020016000206007015460026000858152602001908152602001600020600601546108d69190610ef7565b9081150290604051600060405180830381858888f19350505050158015610901573d6000803e3d6000fd5b50807f27b37245d19baa7036fac055ec38822b4f3527322bf579a64b862a89459bd0b760405160405180910390a250565b806002600082815260200190815260200160002060010160009054906101000a900473ffffffffffffffffffffffffffffffffffffffff1673ffffffffffffffffffffffffffffffffffffffff163373ffffffffffffffffffffffffffffffffffffffff16146109d7576040517f08c379a00000000000000000000000000000000000000000000000000000000081526004016109ce906111d9565b60405180910390fd5b6002600083815260200190815260200160002060090183815481106109ff576109fe6111f9565b5b9060005260206000209060040201600001546002600084815260200190815260200160002060070181905550600260008381526020019081526020016000206009018381548110610a5357610a526111f9565b5b906000526020600020906004020160020160009054906101000a900473ffffffffffffffffffffffffffffffffffffffff166002600084815260200190815260200160002060020160006101000a81548173ffffffffffffffffffffffffffffffffffffffff021916908373ffffffffffffffffffffffffffffffffffffffff1602179055506040518060600160405280600015158152602001600015158152602001600073ffffffffffffffffffffffffffffffffffffffff168152506003600084815260200190815260200160002060008201518160000160006101000a81548160ff02191690831515021790555060208201518160000160016101000a81548160ff02191690831515021790555060408201518160000160026101000a81548173ffffffffffffffffffffffffffffffffffffffff021916908373ffffffffffffffffffffffffffffffffffffffff160217905550905050505050565b600080fd5b600080fd5b600080fd5b600080fd5b600080fd5b60008083601f840112610be257610be1610bbd565b5b8235905067ffffffffffffffff811115610bff57610bfe610bc2565b5b602083019150836001820283011115610c1b57610c1a610bc7565b5b9250929050565b6000819050919050565b610c3581610c22565b8114610c4057600080fd5b50565b600081359050610c5281610c2c565b92915050565b60008060008060608587031215610c7257610c71610bb3565b5b600085013567ffffffffffffffff811115610c9057610c8f610bb8565b5b610c9c87828801610bcc565b94509450506020610caf87828801610c43565b9250506040610cc087828801610c43565b91505092959194509250565b610cd581610c22565b82525050565b6000602082019050610cf06000830184610ccc565b92915050565b600060208284031215610d0c57610d0b610bb3565b5b6000610d1a84828501610c43565b91505092915050565b600081519050919050565b600082825260208201905092915050565b60005b83811015610d5d578082015181840152602081019050610d42565b60008484015250505050565b6000601f19601f8301169050919050565b6000610d8582610d23565b610d8f8185610d2e565b9350610d9f818560208601610d3f565b610da881610d69565b840191505092915050565b600073ffffffffffffffffffffffffffffffffffffffff82169050919050565b6000610dde82610db3565b9050919050565b610dee81610dd3565b82525050565b6000610120820190508181036000830152610e0f818c610d7a565b9050610e1e602083018b610de5565b610e2b604083018a610de5565b610e386060830189610ccc565b610e456080830188610ccc565b610e5260a0830187610ccc565b610e5f60c0830186610ccc565b610e6c60e0830185610ccc565b610e7a610100830184610ccc565b9a9950505050505050505050565b60008060408385031215610e9f57610e9e610bb3565b5b6000610ead85828601610c43565b9250506020610ebe85828601610c43565b9150509250929050565b7f4e487b7100000000000000000000000000000000000000000000000000000000600052601160045260246000fd5b6000610f0282610c22565b9150610f0d83610c22565b9250828201905080821115610f2557610f24610ec8565b5b92915050565b7f4174206c65617374206f6e652064617900000000000000000000000000000000600082015250565b6000610f61601083610d2e565b9150610f6c82610f2b565b602082019050919050565b60006020820190508181036000830152610f9081610f54565b9050919050565b6000610fa282610db3565b9050919050565b610fb281610f97565b82525050565b82818337600083830152505050565b6000610fd38385610d2e565b9350610fe0838584610fb8565b610fe983610d69565b840190509392505050565b60006080820190506110096000830188610fa9565b818103602083015261101c818688610fc7565b905061102b6040830185610ccc565b6110386060830184610ccc565b9695505050505050565b600061104d82610c22565b91507fffffffffffffffffffffffffffffffffffffffffffffffffffffffffffffffff820361107f5761107e610ec8565b5b600182019050919050565b7f4e487b7100000000000000000000000000000000000000000000000000000000600052602260045260246000fd5b600060028204905060018216806110d157607f821691505b6020821081036110e4576110e361108a565b5b50919050565b60006060820190506110ff6000830186610fa9565b61110c6020830185610ccc565b6111196040830184610ccc565b949350505050565b7f4e6f742061636365707465640000000000000000000000000000000000000000600082015250565b6000611157600c83610d2e565b915061116282611121565b602082019050919050565b600060208201905081810360008301526111868161114a565b9050919050565b7f556e617574686f72697a65640000000000000000000000000000000000000000600082015250565b60006111c3600c83610d2e565b91506111ce8261118d565b602082019050919050565b600060208201905081810360008301526111f2816111b6565b9050919050565b7f4e487b7100000000000000000000000000000000000000000000000000000000600052603260045260246000fdfea264697066735822122018270587eb527d74f4282f7e60b6451c486c5aa87534607a7f9cde99558299c264736f6c63430008110033",
					"opcodes": "PUSH1 0x80 PUSH1 0x40 MSTORE PUSH1 0x0 DUP1 SSTORE PUSH1 0x0 PUSH1 0x1 SSTORE CALLVALUE DUP1 ISZERO PUSH2 0x19 JUMPI PUSH1 0x0 DUP1 REVERT JUMPDEST POP PUSH2 0x125E DUP1 PUSH2 0x29 PUSH1 0x0 CODECOPY PUSH1 0x0 RETURN INVALID PUSH1 0x80 PUSH1 0x40 MSTORE PUSH1 0x4 CALLDATASIZE LT PUSH2 0x55 JUMPI PUSH1 0x0 CALLDATALOAD PUSH1 0xE0 SHR DUP1 PUSH4 0xA5C8D5E EQ PUSH2 0x5A JUMPI DUP1 PUSH4 0x474DA79A EQ PUSH2 0x8A JUMPI DUP1 PUSH4 0x6328FEBC EQ PUSH2 0xCF JUMPI DUP1 PUSH4 0x6E24F037 EQ PUSH2 0xEB JUMPI DUP1 PUSH4 0x7E0B8FF0 EQ PUSH2 0x114 JUMPI DUP1 PUSH4 0x81257BD5 EQ PUSH2 0x130 JUMPI JUMPDEST PUSH1 0x0 DUP1 REVERT JUMPDEST PUSH2 0x74 PUSH1 0x4 DUP1 CALLDATASIZE SUB DUP2 ADD SWAP1 PUSH2 0x6F SWAP2 SWAP1 PUSH2 0xC58 JUMP JUMPDEST PUSH2 0x159 JUMP JUMPDEST PUSH1 0x40 MLOAD PUSH2 0x81 SWAP2 SWAP1 PUSH2 0xCDB JUMP JUMPDEST PUSH1 0x40 MLOAD DUP1 SWAP2 SUB SWAP1 RETURN JUMPDEST CALLVALUE DUP1 ISZERO PUSH2 0x96 JUMPI PUSH1 0x0 DUP1 REVERT JUMPDEST POP PUSH2 0xB1 PUSH1 0x4 DUP1 CALLDATASIZE SUB DUP2 ADD SWAP1 PUSH2 0xAC SWAP2 SWAP1 PUSH2 0xCF6 JUMP JUMPDEST PUSH2 0x225 JUMP JUMPDEST PUSH1 0x40 MLOAD PUSH2 0xC6 SWAP10 SWAP9 SWAP8 SWAP7 SWAP6 SWAP5 SWAP4 SWAP3 SWAP2 SWAP1 PUSH2 0xDF4 JUMP JUMPDEST PUSH1 0x40 MLOAD DUP1 SWAP2 SUB SWAP1 RETURN JUMPDEST PUSH2 0xE9 PUSH1 0x4 DUP1 CALLDATASIZE SUB DUP2 ADD SWAP1 PUSH2 0xE4 SWAP2 SWAP1 PUSH2 0xE88 JUMP JUMPDEST PUSH2 0x33B JUMP JUMPDEST STOP JUMPDEST CALLVALUE DUP1 ISZERO PUSH2 0xF7 JUMPI PUSH1 0x0 DUP1 REVERT JUMPDEST POP PUSH2 0x112 PUSH1 0x4 DUP1 CALLDATASIZE SUB DUP2 ADD SWAP1 PUSH2 0x10D SWAP2 SWAP1 PUSH2 0xCF6 JUMP JUMPDEST PUSH2 0x488 JUMP JUMPDEST STOP JUMPDEST PUSH2 0x12E PUSH1 0x4 DUP1 CALLDATASIZE SUB DUP2 ADD SWAP1 PUSH2 0x129 SWAP2 SWAP1 PUSH2 0xCF6 JUMP JUMPDEST PUSH2 0x7B1 JUMP JUMPDEST STOP JUMPDEST CALLVALUE DUP1 ISZERO PUSH2 0x13C JUMPI PUSH1 0x0 DUP1 REVERT JUMPDEST POP PUSH2 0x157 PUSH1 0x4 DUP1 CALLDATASIZE SUB DUP2 ADD SWAP1 PUSH2 0x152 SWAP2 SWAP1 PUSH2 0xE88 JUMP JUMPDEST PUSH2 0x932 JUMP JUMPDEST STOP JUMPDEST PUSH1 0x0 PUSH3 0x15180 TIMESTAMP PUSH2 0x16A SWAP2 SWAP1 PUSH2 0xEF7 JUMP JUMPDEST DUP3 GT PUSH2 0x1AB JUMPI PUSH1 0x40 MLOAD PUSH32 0x8C379A000000000000000000000000000000000000000000000000000000000 DUP2 MSTORE PUSH1 0x4 ADD PUSH2 0x1A2 SWAP1 PUSH2 0xF77 JUMP JUMPDEST PUSH1 0x40 MLOAD DUP1 SWAP2 SUB SWAP1 REVERT JUMPDEST CALLVALUE PUSH1 0x1 PUSH1 0x0 DUP3 DUP3 SLOAD PUSH2 0x1BD SWAP2 SWAP1 PUSH2 0xEF7 JUMP JUMPDEST SWAP3 POP POP DUP2 SWAP1 SSTORE POP PUSH1 0x0 SLOAD PUSH32 0xFFB39DA08503BBF77FD07DD25E2CD85029ABEB9618EE7FD7AA5ADC468A51FFE2 CALLER DUP8 DUP8 DUP7 CALLVALUE PUSH1 0x40 MLOAD PUSH2 0x1FE SWAP6 SWAP5 SWAP4 SWAP3 SWAP2 SWAP1 PUSH2 0xFF4 JUMP JUMPDEST PUSH1 0x40 MLOAD DUP1 SWAP2 SUB SWAP1 LOG2 PUSH1 0x0 DUP1 DUP2 SLOAD DUP1 SWAP3 SWAP2 SWAP1 PUSH2 0x218 SWAP1 PUSH2 0x1042 JUMP JUMPDEST SWAP2 SWAP1 POP SSTORE POP SWAP5 SWAP4 POP POP POP POP JUMP JUMPDEST PUSH1 0x2 PUSH1 0x20 MSTORE DUP1 PUSH1 0x0 MSTORE PUSH1 0x40 PUSH1 0x0 KECCAK256 PUSH1 0x0 SWAP2 POP SWAP1 POP DUP1 PUSH1 0x0 ADD DUP1 SLOAD PUSH2 0x248 SWAP1 PUSH2 0x10B9 JUMP JUMPDEST DUP1 PUSH1 0x1F ADD PUSH1 0x20 DUP1 SWAP2 DIV MUL PUSH1 0x20 ADD PUSH1 0x40 MLOAD SWAP1 DUP2 ADD PUSH1 0x40 MSTORE DUP1 SWAP3 SWAP2 SWAP1 DUP2 DUP2 MSTORE PUSH1 0x20 ADD DUP3 DUP1 SLOAD PUSH2 0x274 SWAP1 PUSH2 0x10B9 JUMP JUMPDEST DUP1 ISZERO PUSH2 0x2C1 JUMPI DUP1 PUSH1 0x1F LT PUSH2 0x296 JUMPI PUSH2 0x100 DUP1 DUP4 SLOAD DIV MUL DUP4 MSTORE SWAP2 PUSH1 0x20 ADD SWAP2 PUSH2 0x2C1 JUMP JUMPDEST DUP3 ADD SWAP2 SWAP1 PUSH1 0x0 MSTORE PUSH1 0x20 PUSH1 0x0 KECCAK256 SWAP1 JUMPDEST DUP2 SLOAD DUP2 MSTORE SWAP1 PUSH1 0x1 ADD SWAP1 PUSH1 0x20 ADD DUP1 DUP4 GT PUSH2 0x2A4 JUMPI DUP3 SWAP1 SUB PUSH1 0x1F AND DUP3 ADD SWAP2 JUMPDEST POP POP POP POP POP SWAP1 DUP1 PUSH1 0x1 ADD PUSH1 0x0 SWAP1 SLOAD SWAP1 PUSH2 0x100 EXP SWAP1 DIV PUSH20 0xFFFFFFFFFFFFFFFFFFFFFFFFFFFFFFFFFFFFFFFF AND SWAP1 DUP1 PUSH1 0x2 ADD PUSH1 0x0 SWAP1 SLOAD SWAP1 PUSH2 0x100 EXP SWAP1 DIV PUSH20 0xFFFFFFFFFFFFFFFFFFFFFFFFFFFFFFFFFFFFFFFF AND SWAP1 DUP1 PUSH1 0x3 ADD SLOAD SWAP1 DUP1 PUSH1 0x4 ADD SLOAD SWAP1 DUP1 PUSH1 0x5 ADD SLOAD SWAP1 DUP1 PUSH1 0x6 ADD SLOAD SWAP1 DUP1 PUSH1 0x7 ADD SLOAD SWAP1 DUP1 PUSH1 0x8 ADD SLOAD SWAP1 POP DUP10 JUMP JUMPDEST PUSH1 0x2 PUSH1 0x0 DUP4 DUP2 MSTORE PUSH1 0x20 ADD SWAP1 DUP2 MSTORE PUSH1 0x20 ADD PUSH1 0x0 KECCAK256 PUSH1 0x9 ADD PUSH1 0x40 MLOAD DUP1 PUSH1 0x80 ADD PUSH1 0x40 MSTORE DUP1 CALLVALUE DUP2 MSTORE PUSH1 0x20 ADD DUP4 DUP2 MSTORE PUSH1 0x20 ADD CALLER PUSH20 0xFFFFFFFFFFFFFFFFFFFFFFFFFFFFFFFFFFFFFFFF AND DUP2 MSTORE PUSH1 0x20 ADD PUSH1 0x0 SLOAD DUP2 MSTORE POP SWAP1 DUP1 PUSH1 0x1 DUP2 SLOAD ADD DUP1 DUP3 SSTORE DUP1 SWAP2 POP POP PUSH1 0x1 SWAP1 SUB SWAP1 PUSH1 0x0 MSTORE PUSH1 0x20 PUSH1 0x0 KECCAK256 SWAP1 PUSH1 0x4 MUL ADD PUSH1 0x0 SWAP1 SWAP2 SWAP1 SWAP2 SWAP1 SWAP2 POP PUSH1 0x0 DUP3 ADD MLOAD DUP2 PUSH1 0x0 ADD SSTORE PUSH1 0x20 DUP3 ADD MLOAD DUP2 PUSH1 0x1 ADD SSTORE PUSH1 0x40 DUP3 ADD MLOAD DUP2 PUSH1 0x2 ADD PUSH1 0x0 PUSH2 0x100 EXP DUP2 SLOAD DUP2 PUSH20 0xFFFFFFFFFFFFFFFFFFFFFFFFFFFFFFFFFFFFFFFF MUL NOT AND SWAP1 DUP4 PUSH20 0xFFFFFFFFFFFFFFFFFFFFFFFFFFFFFFFFFFFFFFFF AND MUL OR SWAP1 SSTORE POP PUSH1 0x60 DUP3 ADD MLOAD DUP2 PUSH1 0x3 ADD SSTORE POP POP CALLVALUE PUSH1 0x1 PUSH1 0x0 DUP3 DUP3 SLOAD PUSH2 0x42C SWAP2 SWAP1 PUSH2 0xEF7 JUMP JUMPDEST SWAP3 POP POP DUP2 SWAP1 SSTORE POP PUSH1 0x0 DUP1 DUP2 SLOAD DUP1 SWAP3 SWAP2 SWAP1 PUSH2 0x445 SWAP1 PUSH2 0x1042 JUMP JUMPDEST SWAP2 SWAP1 POP SSTORE PUSH32 0xBD50812ED14FE4CAEAB6A9EDEC79C48F0CB0EFA5A704560C6B8D66BD60E0CFE9 CALLER DUP4 CALLVALUE PUSH1 0x40 MLOAD PUSH2 0x47C SWAP4 SWAP3 SWAP2 SWAP1 PUSH2 0x10EA JUMP JUMPDEST PUSH1 0x40 MLOAD DUP1 SWAP2 SUB SWAP1 LOG2 POP POP JUMP JUMPDEST PUSH1 0x2 PUSH1 0x0 DUP3 DUP2 MSTORE PUSH1 0x20 ADD SWAP1 DUP2 MSTORE PUSH1 0x20 ADD PUSH1 0x0 KECCAK256 PUSH1 0x1 ADD PUSH1 0x0 SWAP1 SLOAD SWAP1 PUSH2 0x100 EXP SWAP1 DIV PUSH20 0xFFFFFFFFFFFFFFFFFFFFFFFFFFFFFFFFFFFFFFFF AND PUSH20 0xFFFFFFFFFFFFFFFFFFFFFFFFFFFFFFFFFFFFFFFF AND CALLER PUSH20 0xFFFFFFFFFFFFFFFFFFFFFFFFFFFFFFFFFFFFFFFF AND EQ DUP1 ISZERO PUSH2 0x55B JUMPI POP PUSH1 0x0 PUSH20 0xFFFFFFFFFFFFFFFFFFFFFFFFFFFFFFFFFFFFFFFF AND PUSH1 0x3 PUSH1 0x0 DUP4 DUP2 MSTORE PUSH1 0x20 ADD SWAP1 DUP2 MSTORE PUSH1 0x20 ADD PUSH1 0x0 KECCAK256 PUSH1 0x0 ADD PUSH1 0x2 SWAP1 SLOAD SWAP1 PUSH2 0x100 EXP SWAP1 DIV PUSH20 0xFFFFFFFFFFFFFFFFFFFFFFFFFFFFFFFFFFFFFFFF AND PUSH20 0xFFFFFFFFFFFFFFFFFFFFFFFFFFFFFFFFFFFFFFFF AND EQ JUMPDEST ISZERO PUSH2 0x61B JUMPI PUSH1 0x2 PUSH1 0x0 DUP3 DUP2 MSTORE PUSH1 0x20 ADD SWAP1 DUP2 MSTORE PUSH1 0x20 ADD PUSH1 0x0 KECCAK256 PUSH1 0x2 ADD PUSH1 0x0 SWAP1 SLOAD SWAP1 PUSH2 0x100 EXP SWAP1 DIV PUSH20 0xFFFFFFFFFFFFFFFFFFFFFFFFFFFFFFFFFFFFFFFF AND PUSH1 0x3 PUSH1 0x0 DUP4 DUP2 MSTORE PUSH1 0x20 ADD SWAP1 DUP2 MSTORE PUSH1 0x20 ADD PUSH1 0x0 KECCAK256 PUSH1 0x0 ADD PUSH1 0x2 PUSH2 0x100 EXP DUP2 SLOAD DUP2 PUSH20 0xFFFFFFFFFFFFFFFFFFFFFFFFFFFFFFFFFFFFFFFF MUL NOT AND SWAP1 DUP4 PUSH20 0xFFFFFFFFFFFFFFFFFFFFFFFFFFFFFFFFFFFFFFFF AND MUL OR SWAP1 SSTORE POP PUSH1 0x1 PUSH1 0x3 PUSH1 0x0 DUP4 DUP2 MSTORE PUSH1 0x20 ADD SWAP1 DUP2 MSTORE PUSH1 0x20 ADD PUSH1 0x0 KECCAK256 PUSH1 0x0 ADD PUSH1 0x0 PUSH2 0x100 EXP DUP2 SLOAD DUP2 PUSH1 0xFF MUL NOT AND SWAP1 DUP4 ISZERO ISZERO MUL OR SWAP1 SSTORE POP JUMPDEST PUSH1 0x2 PUSH1 0x0 DUP3 DUP2 MSTORE PUSH1 0x20 ADD SWAP1 DUP2 MSTORE PUSH1 0x20 ADD PUSH1 0x0 KECCAK256 PUSH1 0x2 ADD PUSH1 0x0 SWAP1 SLOAD SWAP1 PUSH2 0x100 EXP SWAP1 DIV PUSH20 0xFFFFFFFFFFFFFFFFFFFFFFFFFFFFFFFFFFFFFFFF AND PUSH20 0xFFFFFFFFFFFFFFFFFFFFFFFFFFFFFFFFFFFFFFFF AND CALLER PUSH20 0xFFFFFFFFFFFFFFFFFFFFFFFFFFFFFFFFFFFFFFFF AND EQ DUP1 ISZERO PUSH2 0x6EE JUMPI POP PUSH1 0x0 PUSH20 0xFFFFFFFFFFFFFFFFFFFFFFFFFFFFFFFFFFFFFFFF AND PUSH1 0x3 PUSH1 0x0 DUP4 DUP2 MSTORE PUSH1 0x20 ADD SWAP1 DUP2 MSTORE PUSH1 0x20 ADD PUSH1 0x0 KECCAK256 PUSH1 0x0 ADD PUSH1 0x2 SWAP1 SLOAD SWAP1 PUSH2 0x100 EXP SWAP1 DIV PUSH20 0xFFFFFFFFFFFFFFFFFFFFFFFFFFFFFFFFFFFFFFFF AND PUSH20 0xFFFFFFFFFFFFFFFFFFFFFFFFFFFFFFFFFFFFFFFF AND EQ JUMPDEST ISZERO PUSH2 0x7AE JUMPI PUSH1 0x2 PUSH1 0x0 DUP3 DUP2 MSTORE PUSH1 0x20 ADD SWAP1 DUP2 MSTORE PUSH1 0x20 ADD PUSH1 0x0 KECCAK256 PUSH1 0x1 ADD PUSH1 0x0 SWAP1 SLOAD SWAP1 PUSH2 0x100 EXP SWAP1 DIV PUSH20 0xFFFFFFFFFFFFFFFFFFFFFFFFFFFFFFFFFFFFFFFF AND PUSH1 0x3 PUSH1 0x0 DUP4 DUP2 MSTORE PUSH1 0x20 ADD SWAP1 DUP2 MSTORE PUSH1 0x20 ADD PUSH1 0x0 KECCAK256 PUSH1 0x0 ADD PUSH1 0x2 PUSH2 0x100 EXP DUP2 SLOAD DUP2 PUSH20 0xFFFFFFFFFFFFFFFFFFFFFFFFFFFFFFFFFFFFFFFF MUL NOT AND SWAP1 DUP4 PUSH20 0xFFFFFFFFFFFFFFFFFFFFFFFFFFFFFFFFFFFFFFFF AND MUL OR SWAP1 SSTORE POP PUSH1 0x1 PUSH1 0x3 PUSH1 0x0 DUP4 DUP2 MSTORE PUSH1 0x20 ADD SWAP1 DUP2 MSTORE PUSH1 0x20 ADD PUSH1 0x0 KECCAK256 PUSH1 0x0 ADD PUSH1 0x1 PUSH2 0x100 EXP DUP2 SLOAD DUP2 PUSH1 0xFF MUL NOT AND SWAP1 DUP4 ISZERO ISZERO MUL OR SWAP1 SSTORE POP JUMPDEST POP JUMP JUMPDEST PUSH1 0x1 ISZERO ISZERO PUSH1 0x3 PUSH1 0x0 DUP4 DUP2 MSTORE PUSH1 0x20 ADD SWAP1 DUP2 MSTORE PUSH1 0x20 ADD PUSH1 0x0 KECCAK256 PUSH1 0x0 ADD PUSH1 0x1 SWAP1 SLOAD SWAP1 PUSH2 0x100 EXP SWAP1 DIV PUSH1 0xFF AND ISZERO ISZERO EQ DUP1 ISZERO PUSH2 0x80F JUMPI POP PUSH1 0x1 ISZERO ISZERO PUSH1 0x3 PUSH1 0x0 DUP4 DUP2 MSTORE PUSH1 0x20 ADD SWAP1 DUP2 MSTORE PUSH1 0x20 ADD PUSH1 0x0 KECCAK256 PUSH1 0x0 ADD PUSH1 0x0 SWAP1 SLOAD SWAP1 PUSH2 0x100 EXP SWAP1 DIV PUSH1 0xFF AND ISZERO ISZERO EQ JUMPDEST PUSH2 0x84E JUMPI PUSH1 0x40 MLOAD PUSH32 0x8C379A000000000000000000000000000000000000000000000000000000000 DUP2 MSTORE PUSH1 0x4 ADD PUSH2 0x845 SWAP1 PUSH2 0x116D JUMP JUMPDEST PUSH1 0x40 MLOAD DUP1 SWAP2 SUB SWAP1 REVERT JUMPDEST PUSH1 0x3 PUSH1 0x0 DUP3 DUP2 MSTORE PUSH1 0x20 ADD SWAP1 DUP2 MSTORE PUSH1 0x20 ADD PUSH1 0x0 KECCAK256 PUSH1 0x0 ADD PUSH1 0x2 SWAP1 SLOAD SWAP1 PUSH2 0x100 EXP SWAP1 DIV PUSH20 0xFFFFFFFFFFFFFFFFFFFFFFFFFFFFFFFFFFFFFFFF AND PUSH20 0xFFFFFFFFFFFFFFFFFFFFFFFFFFFFFFFFFFFFFFFF AND PUSH2 0x8FC PUSH1 0x2 PUSH1 0x0 DUP5 DUP2 MSTORE PUSH1 0x20 ADD SWAP1 DUP2 MSTORE PUSH1 0x20 ADD PUSH1 0x0 KECCAK256 PUSH1 0x7 ADD SLOAD PUSH1 0x2 PUSH1 0x0 DUP6 DUP2 MSTORE PUSH1 0x20 ADD SWAP1 DUP2 MSTORE PUSH1 0x20 ADD PUSH1 0x0 KECCAK256 PUSH1 0x6 ADD SLOAD PUSH2 0x8D6 SWAP2 SWAP1 PUSH2 0xEF7 JUMP JUMPDEST SWAP1 DUP2 ISZERO MUL SWAP1 PUSH1 0x40 MLOAD PUSH1 0x0 PUSH1 0x40 MLOAD DUP1 DUP4 SUB DUP2 DUP6 DUP9 DUP9 CALL SWAP4 POP POP POP POP ISZERO DUP1 ISZERO PUSH2 0x901 JUMPI RETURNDATASIZE PUSH1 0x0 DUP1 RETURNDATACOPY RETURNDATASIZE PUSH1 0x0 REVERT JUMPDEST POP DUP1 PUSH32 0x27B37245D19BAA7036FAC055EC38822B4F3527322BF579A64B862A89459BD0B7 PUSH1 0x40 MLOAD PUSH1 0x40 MLOAD DUP1 SWAP2 SUB SWAP1 LOG2 POP JUMP JUMPDEST DUP1 PUSH1 0x2 PUSH1 0x0 DUP3 DUP2 MSTORE PUSH1 0x20 ADD SWAP1 DUP2 MSTORE PUSH1 0x20 ADD PUSH1 0x0 KECCAK256 PUSH1 0x1 ADD PUSH1 0x0 SWAP1 SLOAD SWAP1 PUSH2 0x100 EXP SWAP1 DIV PUSH20 0xFFFFFFFFFFFFFFFFFFFFFFFFFFFFFFFFFFFFFFFF AND PUSH20 0xFFFFFFFFFFFFFFFFFFFFFFFFFFFFFFFFFFFFFFFF AND CALLER PUSH20 0xFFFFFFFFFFFFFFFFFFFFFFFFFFFFFFFFFFFFFFFF AND EQ PUSH2 0x9D7 JUMPI PUSH1 0x40 MLOAD PUSH32 0x8C379A000000000000000000000000000000000000000000000000000000000 DUP2 MSTORE PUSH1 0x4 ADD PUSH2 0x9CE SWAP1 PUSH2 0x11D9 JUMP JUMPDEST PUSH1 0x40 MLOAD DUP1 SWAP2 SUB SWAP1 REVERT JUMPDEST PUSH1 0x2 PUSH1 0x0 DUP4 DUP2 MSTORE PUSH1 0x20 ADD SWAP1 DUP2 MSTORE PUSH1 0x20 ADD PUSH1 0x0 KECCAK256 PUSH1 0x9 ADD DUP4 DUP2 SLOAD DUP2 LT PUSH2 0x9FF JUMPI PUSH2 0x9FE PUSH2 0x11F9 JUMP JUMPDEST JUMPDEST SWAP1 PUSH1 0x0 MSTORE PUSH1 0x20 PUSH1 0x0 KECCAK256 SWAP1 PUSH1 0x4 MUL ADD PUSH1 0x0 ADD SLOAD PUSH1 0x2 PUSH1 0x0 DUP5 DUP2 MSTORE PUSH1 0x20 ADD SWAP1 DUP2 MSTORE PUSH1 0x20 ADD PUSH1 0x0 KECCAK256 PUSH1 0x7 ADD DUP2 SWAP1 SSTORE POP PUSH1 0x2 PUSH1 0x0 DUP4 DUP2 MSTORE PUSH1 0x20 ADD SWAP1 DUP2 MSTORE PUSH1 0x20 ADD PUSH1 0x0 KECCAK256 PUSH1 0x9 ADD DUP4 DUP2 SLOAD DUP2 LT PUSH2 0xA53 JUMPI PUSH2 0xA52 PUSH2 0x11F9 JUMP JUMPDEST JUMPDEST SWAP1 PUSH1 0x0 MSTORE PUSH1 0x20 PUSH1 0x0 KECCAK256 SWAP1 PUSH1 0x4 MUL ADD PUSH1 0x2 ADD PUSH1 0x0 SWAP1 SLOAD SWAP1 PUSH2 0x100 EXP SWAP1 DIV PUSH20 0xFFFFFFFFFFFFFFFFFFFFFFFFFFFFFFFFFFFFFFFF AND PUSH1 0x2 PUSH1 0x0 DUP5 DUP2 MSTORE PUSH1 0x20 ADD SWAP1 DUP2 MSTORE PUSH1 0x20 ADD PUSH1 0x0 KECCAK256 PUSH1 0x2 ADD PUSH1 0x0 PUSH2 0x100 EXP DUP2 SLOAD DUP2 PUSH20 0xFFFFFFFFFFFFFFFFFFFFFFFFFFFFFFFFFFFFFFFF MUL NOT AND SWAP1 DUP4 PUSH20 0xFFFFFFFFFFFFFFFFFFFFFFFFFFFFFFFFFFFFFFFF AND MUL OR SWAP1 SSTORE POP PUSH1 0x40 MLOAD DUP1 PUSH1 0x60 ADD PUSH1 0x40 MSTORE DUP1 PUSH1 0x0 ISZERO ISZERO DUP2 MSTORE PUSH1 0x20 ADD PUSH1 0x0 ISZERO ISZERO DUP2 MSTORE PUSH1 0x20 ADD PUSH1 0x0 PUSH20 0xFFFFFFFFFFFFFFFFFFFFFFFFFFFFFFFFFFFFFFFF AND DUP2 MSTORE POP PUSH1 0x3 PUSH1 0x0 DUP5 DUP2 MSTORE PUSH1 0x20 ADD SWAP1 DUP2 MSTORE PUSH1 0x20 ADD PUSH1 0x0 KECCAK256 PUSH1 0x0 DUP3 ADD MLOAD DUP2 PUSH1 0x0 ADD PUSH1 0x0 PUSH2 0x100 EXP DUP2 SLOAD DUP2 PUSH1 0xFF MUL NOT AND SWAP1 DUP4 ISZERO ISZERO MUL OR SWAP1 SSTORE POP PUSH1 0x20 DUP3 ADD MLOAD DUP2 PUSH1 0x0 ADD PUSH1 0x1 PUSH2 0x100 EXP DUP2 SLOAD DUP2 PUSH1 0xFF MUL NOT AND SWAP1 DUP4 ISZERO ISZERO MUL OR SWAP1 SSTORE POP PUSH1 0x40 DUP3 ADD MLOAD DUP2 PUSH1 0x0 ADD PUSH1 0x2 PUSH2 0x100 EXP DUP2 SLOAD DUP2 PUSH20 0xFFFFFFFFFFFFFFFFFFFFFFFFFFFFFFFFFFFFFFFF MUL NOT AND SWAP1 DUP4 PUSH20 0xFFFFFFFFFFFFFFFFFFFFFFFFFFFFFFFFFFFFFFFF AND MUL OR SWAP1 SSTORE POP SWAP1 POP POP POP POP POP JUMP JUMPDEST PUSH1 0x0 DUP1 REVERT JUMPDEST PUSH1 0x0 DUP1 REVERT JUMPDEST PUSH1 0x0 DUP1 REVERT JUMPDEST PUSH1 0x0 DUP1 REVERT JUMPDEST PUSH1 0x0 DUP1 REVERT JUMPDEST PUSH1 0x0 DUP1 DUP4 PUSH1 0x1F DUP5 ADD SLT PUSH2 0xBE2 JUMPI PUSH2 0xBE1 PUSH2 0xBBD JUMP JUMPDEST JUMPDEST DUP3 CALLDATALOAD SWAP1 POP PUSH8 0xFFFFFFFFFFFFFFFF DUP2 GT ISZERO PUSH2 0xBFF JUMPI PUSH2 0xBFE PUSH2 0xBC2 JUMP JUMPDEST JUMPDEST PUSH1 0x20 DUP4 ADD SWAP2 POP DUP4 PUSH1 0x1 DUP3 MUL DUP4 ADD GT ISZERO PUSH2 0xC1B JUMPI PUSH2 0xC1A PUSH2 0xBC7 JUMP JUMPDEST JUMPDEST SWAP3 POP SWAP3 SWAP1 POP JUMP JUMPDEST PUSH1 0x0 DUP2 SWAP1 POP SWAP2 SWAP1 POP JUMP JUMPDEST PUSH2 0xC35 DUP2 PUSH2 0xC22 JUMP JUMPDEST DUP2 EQ PUSH2 0xC40 JUMPI PUSH1 0x0 DUP1 REVERT JUMPDEST POP JUMP JUMPDEST PUSH1 0x0 DUP2 CALLDATALOAD SWAP1 POP PUSH2 0xC52 DUP2 PUSH2 0xC2C JUMP JUMPDEST SWAP3 SWAP2 POP POP JUMP JUMPDEST PUSH1 0x0 DUP1 PUSH1 0x0 DUP1 PUSH1 0x60 DUP6 DUP8 SUB SLT ISZERO PUSH2 0xC72 JUMPI PUSH2 0xC71 PUSH2 0xBB3 JUMP JUMPDEST JUMPDEST PUSH1 0x0 DUP6 ADD CALLDATALOAD PUSH8 0xFFFFFFFFFFFFFFFF DUP2 GT ISZERO PUSH2 0xC90 JUMPI PUSH2 0xC8F PUSH2 0xBB8 JUMP JUMPDEST JUMPDEST PUSH2 0xC9C DUP8 DUP3 DUP9 ADD PUSH2 0xBCC JUMP JUMPDEST SWAP5 POP SWAP5 POP POP PUSH1 0x20 PUSH2 0xCAF DUP8 DUP3 DUP9 ADD PUSH2 0xC43 JUMP JUMPDEST SWAP3 POP POP PUSH1 0x40 PUSH2 0xCC0 DUP8 DUP3 DUP9 ADD PUSH2 0xC43 JUMP JUMPDEST SWAP2 POP POP SWAP3 SWAP6 SWAP2 SWAP5 POP SWAP3 POP JUMP JUMPDEST PUSH2 0xCD5 DUP2 PUSH2 0xC22 JUMP JUMPDEST DUP3 MSTORE POP POP JUMP JUMPDEST PUSH1 0x0 PUSH1 0x20 DUP3 ADD SWAP1 POP PUSH2 0xCF0 PUSH1 0x0 DUP4 ADD DUP5 PUSH2 0xCCC JUMP JUMPDEST SWAP3 SWAP2 POP POP JUMP JUMPDEST PUSH1 0x0 PUSH1 0x20 DUP3 DUP5 SUB SLT ISZERO PUSH2 0xD0C JUMPI PUSH2 0xD0B PUSH2 0xBB3 JUMP JUMPDEST JUMPDEST PUSH1 0x0 PUSH2 0xD1A DUP5 DUP3 DUP6 ADD PUSH2 0xC43 JUMP JUMPDEST SWAP2 POP POP SWAP3 SWAP2 POP POP JUMP JUMPDEST PUSH1 0x0 DUP2 MLOAD SWAP1 POP SWAP2 SWAP1 POP JUMP JUMPDEST PUSH1 0x0 DUP3 DUP3 MSTORE PUSH1 0x20 DUP3 ADD SWAP1 POP SWAP3 SWAP2 POP POP JUMP JUMPDEST PUSH1 0x0 JUMPDEST DUP4 DUP2 LT ISZERO PUSH2 0xD5D JUMPI DUP1 DUP3 ADD MLOAD DUP2 DUP5 ADD MSTORE PUSH1 0x20 DUP2 ADD SWAP1 POP PUSH2 0xD42 JUMP JUMPDEST PUSH1 0x0 DUP5 DUP5 ADD MSTORE POP POP POP POP JUMP JUMPDEST PUSH1 0x0 PUSH1 0x1F NOT PUSH1 0x1F DUP4 ADD AND SWAP1 POP SWAP2 SWAP1 POP JUMP JUMPDEST PUSH1 0x0 PUSH2 0xD85 DUP3 PUSH2 0xD23 JUMP JUMPDEST PUSH2 0xD8F DUP2 DUP6 PUSH2 0xD2E JUMP JUMPDEST SWAP4 POP PUSH2 0xD9F DUP2 DUP6 PUSH1 0x20 DUP7 ADD PUSH2 0xD3F JUMP JUMPDEST PUSH2 0xDA8 DUP2 PUSH2 0xD69 JUMP JUMPDEST DUP5 ADD SWAP2 POP POP SWAP3 SWAP2 POP POP JUMP JUMPDEST PUSH1 0x0 PUSH20 0xFFFFFFFFFFFFFFFFFFFFFFFFFFFFFFFFFFFFFFFF DUP3 AND SWAP1 POP SWAP2 SWAP1 POP JUMP JUMPDEST PUSH1 0x0 PUSH2 0xDDE DUP3 PUSH2 0xDB3 JUMP JUMPDEST SWAP1 POP SWAP2 SWAP1 POP JUMP JUMPDEST PUSH2 0xDEE DUP2 PUSH2 0xDD3 JUMP JUMPDEST DUP3 MSTORE POP POP JUMP JUMPDEST PUSH1 0x0 PUSH2 0x120 DUP3 ADD SWAP1 POP DUP2 DUP2 SUB PUSH1 0x0 DUP4 ADD MSTORE PUSH2 0xE0F DUP2 DUP13 PUSH2 0xD7A JUMP JUMPDEST SWAP1 POP PUSH2 0xE1E PUSH1 0x20 DUP4 ADD DUP12 PUSH2 0xDE5 JUMP JUMPDEST PUSH2 0xE2B PUSH1 0x40 DUP4 ADD DUP11 PUSH2 0xDE5 JUMP JUMPDEST PUSH2 0xE38 PUSH1 0x60 DUP4 ADD DUP10 PUSH2 0xCCC JUMP JUMPDEST PUSH2 0xE45 PUSH1 0x80 DUP4 ADD DUP9 PUSH2 0xCCC JUMP JUMPDEST PUSH2 0xE52 PUSH1 0xA0 DUP4 ADD DUP8 PUSH2 0xCCC JUMP JUMPDEST PUSH2 0xE5F PUSH1 0xC0 DUP4 ADD DUP7 PUSH2 0xCCC JUMP JUMPDEST PUSH2 0xE6C PUSH1 0xE0 DUP4 ADD DUP6 PUSH2 0xCCC JUMP JUMPDEST PUSH2 0xE7A PUSH2 0x100 DUP4 ADD DUP5 PUSH2 0xCCC JUMP JUMPDEST SWAP11 SWAP10 POP POP POP POP POP POP POP POP POP POP JUMP JUMPDEST PUSH1 0x0 DUP1 PUSH1 0x40 DUP4 DUP6 SUB SLT ISZERO PUSH2 0xE9F JUMPI PUSH2 0xE9E PUSH2 0xBB3 JUMP JUMPDEST JUMPDEST PUSH1 0x0 PUSH2 0xEAD DUP6 DUP3 DUP7 ADD PUSH2 0xC43 JUMP JUMPDEST SWAP3 POP POP PUSH1 0x20 PUSH2 0xEBE DUP6 DUP3 DUP7 ADD PUSH2 0xC43 JUMP JUMPDEST SWAP2 POP POP SWAP3 POP SWAP3 SWAP1 POP JUMP JUMPDEST PUSH32 0x4E487B7100000000000000000000000000000000000000000000000000000000 PUSH1 0x0 MSTORE PUSH1 0x11 PUSH1 0x4 MSTORE PUSH1 0x24 PUSH1 0x0 REVERT JUMPDEST PUSH1 0x0 PUSH2 0xF02 DUP3 PUSH2 0xC22 JUMP JUMPDEST SWAP2 POP PUSH2 0xF0D DUP4 PUSH2 0xC22 JUMP JUMPDEST SWAP3 POP DUP3 DUP3 ADD SWAP1 POP DUP1 DUP3 GT ISZERO PUSH2 0xF25 JUMPI PUSH2 0xF24 PUSH2 0xEC8 JUMP JUMPDEST JUMPDEST SWAP3 SWAP2 POP POP JUMP JUMPDEST PUSH32 0x4174206C65617374206F6E652064617900000000000000000000000000000000 PUSH1 0x0 DUP3 ADD MSTORE POP JUMP JUMPDEST PUSH1 0x0 PUSH2 0xF61 PUSH1 0x10 DUP4 PUSH2 0xD2E JUMP JUMPDEST SWAP2 POP PUSH2 0xF6C DUP3 PUSH2 0xF2B JUMP JUMPDEST PUSH1 0x20 DUP3 ADD SWAP1 POP SWAP2 SWAP1 POP JUMP JUMPDEST PUSH1 0x0 PUSH1 0x20 DUP3 ADD SWAP1 POP DUP2 DUP2 SUB PUSH1 0x0 DUP4 ADD MSTORE PUSH2 0xF90 DUP2 PUSH2 0xF54 JUMP JUMPDEST SWAP1 POP SWAP2 SWAP1 POP JUMP JUMPDEST PUSH1 0x0 PUSH2 0xFA2 DUP3 PUSH2 0xDB3 JUMP JUMPDEST SWAP1 POP SWAP2 SWAP1 POP JUMP JUMPDEST PUSH2 0xFB2 DUP2 PUSH2 0xF97 JUMP JUMPDEST DUP3 MSTORE POP POP JUMP JUMPDEST DUP3 DUP2 DUP4 CALLDATACOPY PUSH1 0x0 DUP4 DUP4 ADD MSTORE POP POP POP JUMP JUMPDEST PUSH1 0x0 PUSH2 0xFD3 DUP4 DUP6 PUSH2 0xD2E JUMP JUMPDEST SWAP4 POP PUSH2 0xFE0 DUP4 DUP6 DUP5 PUSH2 0xFB8 JUMP JUMPDEST PUSH2 0xFE9 DUP4 PUSH2 0xD69 JUMP JUMPDEST DUP5 ADD SWAP1 POP SWAP4 SWAP3 POP POP POP JUMP JUMPDEST PUSH1 0x0 PUSH1 0x80 DUP3 ADD SWAP1 POP PUSH2 0x1009 PUSH1 0x0 DUP4 ADD DUP9 PUSH2 0xFA9 JUMP JUMPDEST DUP2 DUP2 SUB PUSH1 0x20 DUP4 ADD MSTORE PUSH2 0x101C DUP2 DUP7 DUP9 PUSH2 0xFC7 JUMP JUMPDEST SWAP1 POP PUSH2 0x102B PUSH1 0x40 DUP4 ADD DUP6 PUSH2 0xCCC JUMP JUMPDEST PUSH2 0x1038 PUSH1 0x60 DUP4 ADD DUP5 PUSH2 0xCCC JUMP JUMPDEST SWAP7 SWAP6 POP POP POP POP POP POP JUMP JUMPDEST PUSH1 0x0 PUSH2 0x104D DUP3 PUSH2 0xC22 JUMP JUMPDEST SWAP2 POP PUSH32 0xFFFFFFFFFFFFFFFFFFFFFFFFFFFFFFFFFFFFFFFFFFFFFFFFFFFFFFFFFFFFFFFF DUP3 SUB PUSH2 0x107F JUMPI PUSH2 0x107E PUSH2 0xEC8 JUMP JUMPDEST JUMPDEST PUSH1 0x1 DUP3 ADD SWAP1 POP SWAP2 SWAP1 POP JUMP JUMPDEST PUSH32 0x4E487B7100000000000000000000000000000000000000000000000000000000 PUSH1 0x0 MSTORE PUSH1 0x22 PUSH1 0x4 MSTORE PUSH1 0x24 PUSH1 0x0 REVERT JUMPDEST PUSH1 0x0 PUSH1 0x2 DUP3 DIV SWAP1 POP PUSH1 0x1 DUP3 AND DUP1 PUSH2 0x10D1 JUMPI PUSH1 0x7F DUP3 AND SWAP2 POP JUMPDEST PUSH1 0x20 DUP3 LT DUP2 SUB PUSH2 0x10E4 JUMPI PUSH2 0x10E3 PUSH2 0x108A JUMP JUMPDEST JUMPDEST POP SWAP2 SWAP1 POP JUMP JUMPDEST PUSH1 0x0 PUSH1 0x60 DUP3 ADD SWAP1 POP PUSH2 0x10FF PUSH1 0x0 DUP4 ADD DUP7 PUSH2 0xFA9 JUMP JUMPDEST PUSH2 0x110C PUSH1 0x20 DUP4 ADD DUP6 PUSH2 0xCCC JUMP JUMPDEST PUSH2 0x1119 PUSH1 0x40 DUP4 ADD DUP5 PUSH2 0xCCC JUMP JUMPDEST SWAP5 SWAP4 POP POP POP POP JUMP JUMPDEST PUSH32 0x4E6F742061636365707465640000000000000000000000000000000000000000 PUSH1 0x0 DUP3 ADD MSTORE POP JUMP JUMPDEST PUSH1 0x0 PUSH2 0x1157 PUSH1 0xC DUP4 PUSH2 0xD2E JUMP JUMPDEST SWAP2 POP PUSH2 0x1162 DUP3 PUSH2 0x1121 JUMP JUMPDEST PUSH1 0x20 DUP3 ADD SWAP1 POP SWAP2 SWAP1 POP JUMP JUMPDEST PUSH1 0x0 PUSH1 0x20 DUP3 ADD SWAP1 POP DUP2 DUP2 SUB PUSH1 0x0 DUP4 ADD MSTORE PUSH2 0x1186 DUP2 PUSH2 0x114A JUMP JUMPDEST SWAP1 POP SWAP2 SWAP1 POP JUMP JUMPDEST PUSH32 0x556E617574686F72697A65640000000000000000000000000000000000000000 PUSH1 0x0 DUP3 ADD MSTORE POP JUMP JUMPDEST PUSH1 0x0 PUSH2 0x11C3 PUSH1 0xC DUP4 PUSH2 0xD2E JUMP JUMPDEST SWAP2 POP PUSH2 0x11CE DUP3 PUSH2 0x118D JUMP JUMPDEST PUSH1 0x20 DUP3 ADD SWAP1 POP SWAP2 SWAP1 POP JUMP JUMPDEST PUSH1 0x0 PUSH1 0x20 DUP3 ADD SWAP1 POP DUP2 DUP2 SUB PUSH1 0x0 DUP4 ADD MSTORE PUSH2 0x11F2 DUP2 PUSH2 0x11B6 JUMP JUMPDEST SWAP1 POP SWAP2 SWAP1 POP JUMP JUMPDEST PUSH32 0x4E487B7100000000000000000000000000000000000000000000000000000000 PUSH1 0x0 MSTORE PUSH1 0x32 PUSH1 0x4 MSTORE PUSH1 0x24 PUSH1 0x0 REVERT INVALID LOG2 PUSH5 0x6970667358 0x22 SLT KECCAK256 XOR 0x27 SDIV DUP8 0xEB MSTORE PUSH30 0x74F4282F7E60B6451C486C5AA87534607A7F9CDE99558299C264736F6C63 NUMBER STOP ADDMOD GT STOP CALLER "
				},
				"gasEstimates": {
					"creation": {
						"codeDepositCost": "940400",
						"executionCost": "10987",
						"totalCost": "951387"
					},
					"external": {
						"acceptOffer(uint256,uint256)": "infinite",
						"contracts(uint256)": "infinite",
						"createContract(string,uint256,uint256)": "infinite",
						"giveOffer(uint256,uint256)": "infinite",
						"margin_Call(uint256)": "infinite",
						"margincallRequestorAccept(uint256)": "111584"
					}
				},
				"methodIdentifiers": {
					"acceptOffer(uint256,uint256)": "81257bd5",
					"contracts(uint256)": "474da79a",
					"createContract(string,uint256,uint256)": "0a5c8d5e",
					"giveOffer(uint256,uint256)": "6328febc",
					"margin_Call(uint256)": "7e0b8ff0",
					"margincallRequestorAccept(uint256)": "6e24f037"
				}
			},
			"storageLayout": {
				"storage": [
					{
						"astId": 4,
						"contract": "forward.sol:Forward",
						"label": "globalIndex",
						"offset": 0,
						"slot": "0",
						"type": "t_uint256"
					},
					{
						"astId": 7,
						"contract": "forward.sol:Forward",
						"label": "blockedBal",
						"offset": 0,
						"slot": "1",
						"type": "t_uint256"
					},
					{
						"astId": 83,
						"contract": "forward.sol:Forward",
						"label": "contracts",
						"offset": 0,
						"slot": "2",
						"type": "t_mapping(t_uint256,t_struct(Contract)62_storage)"
					},
					{
						"astId": 88,
						"contract": "forward.sol:Forward",
						"label": "marginCall",
						"offset": 0,
						"slot": "3",
						"type": "t_mapping(t_uint256,t_struct(MarginCall)78_storage)"
					}
				],
				"types": {
					"t_address_payable": {
						"encoding": "inplace",
						"label": "address payable",
						"numberOfBytes": "20"
					},
					"t_array(t_struct(Offer)71_storage)dyn_storage": {
						"base": "t_struct(Offer)71_storage",
						"encoding": "dynamic_array",
						"label": "struct Forward.Offer[]",
						"numberOfBytes": "32"
					},
					"t_bool": {
						"encoding": "inplace",
						"label": "bool",
						"numberOfBytes": "1"
					},
					"t_mapping(t_uint256,t_struct(Contract)62_storage)": {
						"encoding": "mapping",
						"key": "t_uint256",
						"label": "mapping(uint256 => struct Forward.Contract)",
						"numberOfBytes": "32",
						"value": "t_struct(Contract)62_storage"
					},
					"t_mapping(t_uint256,t_struct(MarginCall)78_storage)": {
						"encoding": "mapping",
						"key": "t_uint256",
						"label": "mapping(uint256 => struct Forward.MarginCall)",
						"numberOfBytes": "32",
						"value": "t_struct(MarginCall)78_storage"
					},
					"t_string_storage": {
						"encoding": "bytes",
						"label": "string",
						"numberOfBytes": "32"
					},
					"t_struct(Contract)62_storage": {
						"encoding": "inplace",
						"label": "struct Forward.Contract",
						"members": [
							{
								"astId": 41,
								"contract": "forward.sol:Forward",
								"label": "product",
								"offset": 0,
								"slot": "0",
								"type": "t_string_storage"
							},
							{
								"astId": 43,
								"contract": "forward.sol:Forward",
								"label": "issuer",
								"offset": 0,
								"slot": "1",
								"type": "t_address_payable"
							},
							{
								"astId": 45,
								"contract": "forward.sol:Forward",
								"label": "signer",
								"offset": 0,
								"slot": "2",
								"type": "t_address_payable"
							},
							{
								"astId": 47,
								"contract": "forward.sol:Forward",
								"label": "price",
								"offset": 0,
								"slot": "3",
								"type": "t_uint256"
							},
							{
								"astId": 49,
								"contract": "forward.sol:Forward",
								"label": "amount",
								"offset": 0,
								"slot": "4",
								"type": "t_uint256"
							},
							{
								"astId": 51,
								"contract": "forward.sol:Forward",
								"label": "dueDate",
								"offset": 0,
								"slot": "5",
								"type": "t_uint256"
							},
							{
								"astId": 53,
								"contract": "forward.sol:Forward",
								"label": "marginIssuer",
								"offset": 0,
								"slot": "6",
								"type": "t_uint256"
							},
							{
								"astId": 55,
								"contract": "forward.sol:Forward",
								"label": "marginSigner",
								"offset": 0,
								"slot": "7",
								"type": "t_uint256"
							},
							{
								"astId": 57,
								"contract": "forward.sol:Forward",
								"label": "index",
								"offset": 0,
								"slot": "8",
								"type": "t_uint256"
							},
							{
								"astId": 61,
								"contract": "forward.sol:Forward",
								"label": "offers",
								"offset": 0,
								"slot": "9",
								"type": "t_array(t_struct(Offer)71_storage)dyn_storage"
							}
						],
						"numberOfBytes": "320"
					},
					"t_struct(MarginCall)78_storage": {
						"encoding": "inplace",
						"label": "struct Forward.MarginCall",
						"members": [
							{
								"astId": 73,
								"contract": "forward.sol:Forward",
								"label": "marginSigner",
								"offset": 0,
								"slot": "0",
								"type": "t_bool"
							},
							{
								"astId": 75,
								"contract": "forward.sol:Forward",
								"label": "marginIssuer",
								"offset": 1,
								"slot": "0",
								"type": "t_bool"
							},
							{
								"astId": 77,
								"contract": "forward.sol:Forward",
								"label": "owner",
								"offset": 2,
								"slot": "0",
								"type": "t_address_payable"
							}
						],
						"numberOfBytes": "32"
					},
					"t_struct(Offer)71_storage": {
						"encoding": "inplace",
						"label": "struct Forward.Offer",
						"members": [
							{
								"astId": 64,
								"contract": "forward.sol:Forward",
								"label": "margin",
								"offset": 0,
								"slot": "0",
								"type": "t_uint256"
							},
							{
								"astId": 66,
								"contract": "forward.sol:Forward",
								"label": "price",
								"offset": 0,
								"slot": "1",
								"type": "t_uint256"
							},
							{
								"astId": 68,
								"contract": "forward.sol:Forward",
								"label": "offering",
								"offset": 0,
								"slot": "2",
								"type": "t_address_payable"
							},
							{
								"astId": 70,
								"contract": "forward.sol:Forward",
								"label": "index",
								"offset": 0,
								"slot": "3",
								"type": "t_uint256"
							}
						],
						"numberOfBytes": "128"
					},
					"t_uint256": {
						"encoding": "inplace",
						"label": "uint256",
						"numberOfBytes": "32"
					}
				}
			},
			"userdoc": {
				"kind": "user",
				"methods": {},
				"version": 1
			}
		}
	}
}