{
	"forward.sol": {
		"Forward": {
			"abi": [
				{
					"anonymous": false,
					"inputs": [
						{
							"indexed": true,
							"internalType": "uint256",
							"name": "id",
							"type": "uint256"
						},
						{
							"indexed": false,
							"internalType": "address",
							"name": "signer",
							"type": "address"
						}
					],
					"name": "ContractSigned",
					"type": "event"
				},
				{
					"anonymous": false,
					"inputs": [
						{
							"indexed": true,
							"internalType": "uint256",
							"name": "id",
							"type": "uint256"
						},
						{
							"indexed": false,
							"internalType": "address",
							"name": "issuer",
							"type": "address"
						},
						{
							"indexed": false,
							"internalType": "string",
							"name": "product",
							"type": "string"
						},
						{
							"indexed": false,
							"internalType": "uint256",
							"name": "dueDate",
							"type": "uint256"
						},
						{
							"indexed": false,
							"internalType": "uint256",
							"name": "amount",
							"type": "uint256"
						}
					],
					"name": "Issued",
					"type": "event"
				},
				{
					"anonymous": false,
					"inputs": [
						{
							"indexed": true,
							"internalType": "uint256",
							"name": "mc_id",
							"type": "uint256"
						}
					],
					"name": "MarginCallDone",
					"type": "event"
				},
				{
					"anonymous": false,
					"inputs": [
						{
							"indexed": true,
							"internalType": "uint256",
							"name": "id",
							"type": "uint256"
						},
						{
							"indexed": false,
							"internalType": "address",
							"name": "marginSigner",
							"type": "address"
						},
						{
							"indexed": false,
							"internalType": "uint256",
							"name": "price",
							"type": "uint256"
						},
						{
							"indexed": false,
							"internalType": "uint256",
							"name": "margin",
							"type": "uint256"
						}
					],
					"name": "Offered",
					"type": "event"
				},
				{
					"inputs": [
						{
							"internalType": "uint256",
							"name": "offID",
							"type": "uint256"
						},
						{
							"internalType": "uint256",
							"name": "contractID",
							"type": "uint256"
						}
					],
					"name": "acceptOffer",
					"outputs": [],
					"stateMutability": "nonpayable",
					"type": "function"
				},
				{
					"inputs": [
						{
							"internalType": "uint256",
							"name": "",
							"type": "uint256"
						}
					],
					"name": "contracts",
					"outputs": [
						{
							"internalType": "string",
							"name": "product",
							"type": "string"
						},
						{
							"internalType": "address payable",
							"name": "issuer",
							"type": "address"
						},
						{
							"internalType": "address payable",
							"name": "signer",
							"type": "address"
						},
						{
							"internalType": "uint256",
							"name": "price",
							"type": "uint256"
						},
						{
							"internalType": "uint256",
							"name": "amount",
							"type": "uint256"
						},
						{
							"internalType": "uint256",
							"name": "dueDate",
							"type": "uint256"
						},
						{
							"internalType": "uint256",
							"name": "marginIssuer",
							"type": "uint256"
						},
						{
							"internalType": "uint256",
							"name": "marginSigner",
							"type": "uint256"
						},
						{
							"internalType": "uint256",
							"name": "index",
							"type": "uint256"
						}
					],
					"stateMutability": "view",
					"type": "function"
				},
				{
					"inputs": [
						{
							"internalType": "string",
							"name": "_product",
							"type": "string"
						},
						{
							"internalType": "uint256",
							"name": "_dueDate",
							"type": "uint256"
						}
					],
					"name": "createContract",
					"outputs": [
						{
							"internalType": "uint256",
							"name": "index",
							"type": "uint256"
						}
					],
					"stateMutability": "payable",
					"type": "function"
				},
				{
					"inputs": [
						{
							"internalType": "uint256",
							"name": "contractID",
							"type": "uint256"
						},
						{
							"internalType": "uint256",
							"name": "_price",
							"type": "uint256"
						}
					],
					"name": "giveOffer",
					"outputs": [],
					"stateMutability": "payable",
					"type": "function"
				},
				{
					"inputs": [
						{
							"internalType": "uint256",
							"name": "contractID",
							"type": "uint256"
						}
					],
					"name": "margin_Call",
					"outputs": [],
					"stateMutability": "payable",
					"type": "function"
				},
				{
					"inputs": [
						{
							"internalType": "uint256",
							"name": "contractID",
							"type": "uint256"
						}
					],
					"name": "margincallRequestorAccept",
					"outputs": [],
					"stateMutability": "nonpayable",
					"type": "function"
				}
			],
			"devdoc": {
				"kind": "dev",
				"methods": {},
				"version": 1
			},
			"evm": {
				"assembly": "    /* \"forward.sol\":63:3400  contract Forward{... */\n  mstore(0x40, 0x80)\n    /* \"forward.sol\":139:140  0 */\n  0x00\n    /* \"forward.sol\":120:140  uint globalIndex = 0 */\n  dup1\n  sstore\n    /* \"forward.sol\":186:187  0 */\n  0x00\n    /* \"forward.sol\":168:187  uint blockedBal = 0 */\n  0x01\n  sstore\n    /* \"forward.sol\":63:3400  contract Forward{... */\n  callvalue\n  dup1\n  iszero\n  tag_1\n  jumpi\n  0x00\n  dup1\n  revert\ntag_1:\n  pop\n  dataSize(sub_0)\n  dup1\n  dataOffset(sub_0)\n  0x00\n  codecopy\n  0x00\n  return\nstop\n\nsub_0: assembly {\n        /* \"forward.sol\":63:3400  contract Forward{... */\n      mstore(0x40, 0x80)\n      jumpi(tag_1, lt(calldatasize, 0x04))\n      shr(0xe0, calldataload(0x00))\n      dup1\n      0x474da79a\n      eq\n      tag_2\n      jumpi\n      dup1\n      0x6328febc\n      eq\n      tag_3\n      jumpi\n      dup1\n      0x6e24f037\n      eq\n      tag_4\n      jumpi\n      dup1\n      0x7e0b8ff0\n      eq\n      tag_5\n      jumpi\n      dup1\n      0x81257bd5\n      eq\n      tag_6\n      jumpi\n      dup1\n      0xa962fb39\n      eq\n      tag_7\n      jumpi\n    tag_1:\n      0x00\n      dup1\n      revert\n        /* \"forward.sol\":1181:1222  mapping (uint=>Contract) public contracts */\n    tag_2:\n      callvalue\n      dup1\n      iszero\n      tag_8\n      jumpi\n      0x00\n      dup1\n      revert\n    tag_8:\n      pop\n      tag_9\n      0x04\n      dup1\n      calldatasize\n      sub\n      dup2\n      add\n      swap1\n      tag_10\n      swap2\n      swap1\n      tag_11\n      jump\t// in\n    tag_10:\n      tag_12\n      jump\t// in\n    tag_9:\n      mload(0x40)\n      tag_13\n      swap10\n      swap9\n      swap8\n      swap7\n      swap6\n      swap5\n      swap4\n      swap3\n      swap2\n      swap1\n      tag_14\n      jump\t// in\n    tag_13:\n      mload(0x40)\n      dup1\n      swap2\n      sub\n      swap1\n      return\n        /* \"forward.sol\":1865:2124  function giveOffer(uint contractID, uint _price) payable external{... */\n    tag_3:\n      tag_15\n      0x04\n      dup1\n      calldatasize\n      sub\n      dup2\n      add\n      swap1\n      tag_16\n      swap2\n      swap1\n      tag_17\n      jump\t// in\n    tag_16:\n      tag_18\n      jump\t// in\n    tag_15:\n      stop\n        /* \"forward.sol\":2465:2997  function margincallRequestorAccept(uint contractID) external {... */\n    tag_4:\n      callvalue\n      dup1\n      iszero\n      tag_19\n      jumpi\n      0x00\n      dup1\n      revert\n    tag_19:\n      pop\n      tag_20\n      0x04\n      dup1\n      calldatasize\n      sub\n      dup2\n      add\n      swap1\n      tag_21\n      swap2\n      swap1\n      tag_11\n      jump\t// in\n    tag_21:\n      tag_22\n      jump\t// in\n    tag_20:\n      stop\n        /* \"forward.sol\":3002:3344  function margin_Call(uint contractID) external payable {... */\n    tag_5:\n      tag_23\n      0x04\n      dup1\n      calldatasize\n      sub\n      dup2\n      add\n      swap1\n      tag_24\n      swap2\n      swap1\n      tag_11\n      jump\t// in\n    tag_24:\n      tag_25\n      jump\t// in\n    tag_23:\n      stop\n        /* \"forward.sol\":2133:2455  function acceptOffer(uint offID, uint contractID) external onlyIssuer(contractID)  {... */\n    tag_6:\n      callvalue\n      dup1\n      iszero\n      tag_26\n      jumpi\n      0x00\n      dup1\n      revert\n    tag_26:\n      pop\n      tag_27\n      0x04\n      dup1\n      calldatasize\n      sub\n      dup2\n      add\n      swap1\n      tag_28\n      swap2\n      swap1\n      tag_17\n      jump\t// in\n    tag_28:\n      tag_29\n      jump\t// in\n    tag_27:\n      stop\n        /* \"forward.sol\":1487:1857  function createContract(... */\n    tag_7:\n      tag_30\n      0x04\n      dup1\n      calldatasize\n      sub\n      dup2\n      add\n      swap1\n      tag_31\n      swap2\n      swap1\n      tag_32\n      jump\t// in\n    tag_31:\n      tag_33\n      jump\t// in\n    tag_30:\n      mload(0x40)\n      tag_34\n      swap2\n      swap1\n      tag_35\n      jump\t// in\n    tag_34:\n      mload(0x40)\n      dup1\n      swap2\n      sub\n      swap1\n      return\n        /* \"forward.sol\":1181:1222  mapping (uint=>Contract) public contracts */\n    tag_12:\n      mstore(0x20, 0x02)\n      dup1\n      0x00\n      mstore\n      keccak256(0x00, 0x40)\n      0x00\n      swap2\n      pop\n      swap1\n      pop\n      dup1\n      0x00\n      add\n      dup1\n      sload\n      tag_36\n      swap1\n      tag_37\n      jump\t// in\n    tag_36:\n      dup1\n      0x1f\n      add\n      0x20\n      dup1\n      swap2\n      div\n      mul\n      0x20\n      add\n      mload(0x40)\n      swap1\n      dup2\n      add\n      0x40\n      mstore\n      dup1\n      swap3\n      swap2\n      swap1\n      dup2\n      dup2\n      mstore\n      0x20\n      add\n      dup3\n      dup1\n      sload\n      tag_38\n      swap1\n      tag_37\n      jump\t// in\n    tag_38:\n      dup1\n      iszero\n      tag_39\n      jumpi\n      dup1\n      0x1f\n      lt\n      tag_40\n      jumpi\n      0x0100\n      dup1\n      dup4\n      sload\n      div\n      mul\n      dup4\n      mstore\n      swap2\n      0x20\n      add\n      swap2\n      jump(tag_39)\n    tag_40:\n      dup3\n      add\n      swap2\n      swap1\n      0x00\n      mstore\n      keccak256(0x00, 0x20)\n      swap1\n    tag_41:\n      dup2\n      sload\n      dup2\n      mstore\n      swap1\n      0x01\n      add\n      swap1\n      0x20\n      add\n      dup1\n      dup4\n      gt\n      tag_41\n      jumpi\n      dup3\n      swap1\n      sub\n      0x1f\n      and\n      dup3\n      add\n      swap2\n    tag_39:\n      pop\n      pop\n      pop\n      pop\n      pop\n      swap1\n      dup1\n      0x01\n      add\n      0x00\n      swap1\n      sload\n      swap1\n      0x0100\n      exp\n      swap1\n      div\n      0xffffffffffffffffffffffffffffffffffffffff\n      and\n      swap1\n      dup1\n      0x02\n      add\n      0x00\n      swap1\n      sload\n      swap1\n      0x0100\n      exp\n      swap1\n      div\n      0xffffffffffffffffffffffffffffffffffffffff\n      and\n      swap1\n      dup1\n      0x03\n      add\n      sload\n      swap1\n      dup1\n      0x04\n      add\n      sload\n      swap1\n      dup1\n      0x05\n      add\n      sload\n      swap1\n      dup1\n      0x06\n      add\n      sload\n      swap1\n      dup1\n      0x07\n      add\n      sload\n      swap1\n      dup1\n      0x08\n      add\n      sload\n      swap1\n      pop\n      dup10\n      jump\t// out\n        /* \"forward.sol\":1865:2124  function giveOffer(uint contractID, uint _price) payable external{... */\n    tag_18:\n        /* \"forward.sol\":1934:1943  contracts */\n      0x02\n        /* \"forward.sol\":1934:1955  contracts[contractID] */\n      0x00\n        /* \"forward.sol\":1944:1954  contractID */\n      dup4\n        /* \"forward.sol\":1934:1955  contracts[contractID] */\n      dup2\n      mstore\n      0x20\n      add\n      swap1\n      dup2\n      mstore\n      0x20\n      add\n      0x00\n      keccak256\n        /* \"forward.sol\":1934:1962  contracts[contractID].offers */\n      0x09\n      add\n        /* \"forward.sol\":1968:2032  Offer(msg.value,_price,payable(address(msg.sender)),globalIndex) */\n      mload(0x40)\n      dup1\n      0x80\n      add\n      0x40\n      mstore\n      dup1\n        /* \"forward.sol\":1974:1983  msg.value */\n      callvalue\n        /* \"forward.sol\":1968:2032  Offer(msg.value,_price,payable(address(msg.sender)),globalIndex) */\n      dup2\n      mstore\n      0x20\n      add\n        /* \"forward.sol\":1984:1990  _price */\n      dup4\n        /* \"forward.sol\":1968:2032  Offer(msg.value,_price,payable(address(msg.sender)),globalIndex) */\n      dup2\n      mstore\n      0x20\n      add\n        /* \"forward.sol\":2007:2017  msg.sender */\n      caller\n        /* \"forward.sol\":1968:2032  Offer(msg.value,_price,payable(address(msg.sender)),globalIndex) */\n      0xffffffffffffffffffffffffffffffffffffffff\n      and\n      dup2\n      mstore\n      0x20\n      add\n        /* \"forward.sol\":2020:2031  globalIndex */\n      sload(0x00)\n        /* \"forward.sol\":1968:2032  Offer(msg.value,_price,payable(address(msg.sender)),globalIndex) */\n      dup2\n      mstore\n      pop\n        /* \"forward.sol\":1934:2033  contracts[contractID].offers.push(Offer(msg.value,_price,payable(address(msg.sender)),globalIndex)) */\n      swap1\n      dup1\n      0x01\n      dup2\n      sload\n      add\n      dup1\n      dup3\n      sstore\n      dup1\n      swap2\n      pop\n      pop\n      0x01\n      swap1\n      sub\n      swap1\n      0x00\n      mstore\n      keccak256(0x00, 0x20)\n      swap1\n      0x04\n      mul\n      add\n      0x00\n      swap1\n      swap2\n      swap1\n      swap2\n      swap1\n      swap2\n      pop\n      0x00\n      dup3\n      add\n      mload\n      dup2\n      0x00\n      add\n      sstore\n      0x20\n      dup3\n      add\n      mload\n      dup2\n      0x01\n      add\n      sstore\n      0x40\n      dup3\n      add\n      mload\n      dup2\n      0x02\n      add\n      exp(0x0100, 0x00)\n      dup2\n      sload\n      dup2\n      0xffffffffffffffffffffffffffffffffffffffff\n      mul\n      not\n      and\n      swap1\n      dup4\n      0xffffffffffffffffffffffffffffffffffffffff\n      and\n      mul\n      or\n      swap1\n      sstore\n      pop\n      0x60\n      dup3\n      add\n      mload\n      dup2\n      0x03\n      add\n      sstore\n      pop\n      pop\n        /* \"forward.sol\":2051:2060  msg.value */\n      callvalue\n        /* \"forward.sol\":2037:2047  blockedBal */\n      0x01\n      0x00\n        /* \"forward.sol\":2037:2060  blockedBal += msg.value */\n      dup3\n      dup3\n      sload\n      tag_44\n      swap2\n      swap1\n      tag_45\n      jump\t// in\n    tag_44:\n      swap3\n      pop\n      pop\n      dup2\n      swap1\n      sstore\n      pop\n        /* \"forward.sol\":2077:2088  globalIndex */\n      0x00\n      dup1\n        /* \"forward.sol\":2077:2090  globalIndex++ */\n      dup2\n      sload\n      dup1\n      swap3\n      swap2\n      swap1\n      tag_46\n      swap1\n      tag_47\n      jump\t// in\n    tag_46:\n      swap2\n      swap1\n      pop\n      sstore\n        /* \"forward.sol\":2069:2119  Offered(globalIndex++,msg.sender,_price,msg.value) */\n      0xbd50812ed14fe4caeab6a9edec79c48f0cb0efa5a704560c6b8d66bd60e0cfe9\n        /* \"forward.sol\":2091:2101  msg.sender */\n      caller\n        /* \"forward.sol\":2102:2108  _price */\n      dup4\n        /* \"forward.sol\":2109:2118  msg.value */\n      callvalue\n        /* \"forward.sol\":2069:2119  Offered(globalIndex++,msg.sender,_price,msg.value) */\n      mload(0x40)\n      tag_48\n      swap4\n      swap3\n      swap2\n      swap1\n      tag_49\n      jump\t// in\n    tag_48:\n      mload(0x40)\n      dup1\n      swap2\n      sub\n      swap1\n      log2\n        /* \"forward.sol\":1865:2124  function giveOffer(uint contractID, uint _price) payable external{... */\n      pop\n      pop\n      jump\t// out\n        /* \"forward.sol\":2465:2997  function margincallRequestorAccept(uint contractID) external {... */\n    tag_22:\n        /* \"forward.sol\":2547:2556  contracts */\n      0x02\n        /* \"forward.sol\":2547:2568  contracts[contractID] */\n      0x00\n        /* \"forward.sol\":2557:2567  contractID */\n      dup3\n        /* \"forward.sol\":2547:2568  contracts[contractID] */\n      dup2\n      mstore\n      0x20\n      add\n      swap1\n      dup2\n      mstore\n      0x20\n      add\n      0x00\n      keccak256\n        /* \"forward.sol\":2547:2575  contracts[contractID].issuer */\n      0x01\n      add\n      0x00\n      swap1\n      sload\n      swap1\n      0x0100\n      exp\n      swap1\n      div\n      0xffffffffffffffffffffffffffffffffffffffff\n      and\n        /* \"forward.sol\":2533:2575  msg.sender == contracts[contractID].issuer */\n      0xffffffffffffffffffffffffffffffffffffffff\n      and\n        /* \"forward.sol\":2533:2543  msg.sender */\n      caller\n        /* \"forward.sol\":2533:2575  msg.sender == contracts[contractID].issuer */\n      0xffffffffffffffffffffffffffffffffffffffff\n      and\n      eq\n        /* \"forward.sol\":2533:2627  msg.sender == contracts[contractID].issuer &&marginCall[contractID].owner==payable(address(0)) */\n      dup1\n      iszero\n      tag_51\n      jumpi\n      pop\n        /* \"forward.sol\":2624:2625  0 */\n      0x00\n        /* \"forward.sol\":2578:2627  marginCall[contractID].owner==payable(address(0)) */\n      0xffffffffffffffffffffffffffffffffffffffff\n      and\n        /* \"forward.sol\":2578:2588  marginCall */\n      0x03\n        /* \"forward.sol\":2578:2600  marginCall[contractID] */\n      0x00\n        /* \"forward.sol\":2589:2599  contractID */\n      dup4\n        /* \"forward.sol\":2578:2600  marginCall[contractID] */\n      dup2\n      mstore\n      0x20\n      add\n      swap1\n      dup2\n      mstore\n      0x20\n      add\n      0x00\n      keccak256\n        /* \"forward.sol\":2578:2606  marginCall[contractID].owner */\n      0x00\n      add\n      0x02\n      swap1\n      sload\n      swap1\n      0x0100\n      exp\n      swap1\n      div\n      0xffffffffffffffffffffffffffffffffffffffff\n      and\n        /* \"forward.sol\":2578:2627  marginCall[contractID].owner==payable(address(0)) */\n      0xffffffffffffffffffffffffffffffffffffffff\n      and\n      eq\n        /* \"forward.sol\":2533:2627  msg.sender == contracts[contractID].issuer &&marginCall[contractID].owner==payable(address(0)) */\n    tag_51:\n        /* \"forward.sol\":2530:2759  if(msg.sender == contracts[contractID].issuer &&marginCall[contractID].owner==payable(address(0))) {... */\n      iszero\n      tag_52\n      jumpi\n        /* \"forward.sol\":2665:2674  contracts */\n      0x02\n        /* \"forward.sol\":2665:2686  contracts[contractID] */\n      0x00\n        /* \"forward.sol\":2675:2685  contractID */\n      dup3\n        /* \"forward.sol\":2665:2686  contracts[contractID] */\n      dup2\n      mstore\n      0x20\n      add\n      swap1\n      dup2\n      mstore\n      0x20\n      add\n      0x00\n      keccak256\n        /* \"forward.sol\":2665:2693  contracts[contractID].signer */\n      0x02\n      add\n      0x00\n      swap1\n      sload\n      swap1\n      0x0100\n      exp\n      swap1\n      div\n      0xffffffffffffffffffffffffffffffffffffffff\n      and\n        /* \"forward.sol\":2634:2644  marginCall */\n      0x03\n        /* \"forward.sol\":2634:2656  marginCall[contractID] */\n      0x00\n        /* \"forward.sol\":2645:2655  contractID */\n      dup4\n        /* \"forward.sol\":2634:2656  marginCall[contractID] */\n      dup2\n      mstore\n      0x20\n      add\n      swap1\n      dup2\n      mstore\n      0x20\n      add\n      0x00\n      keccak256\n        /* \"forward.sol\":2634:2662  marginCall[contractID].owner */\n      0x00\n      add\n      0x02\n        /* \"forward.sol\":2634:2693  marginCall[contractID].owner = contracts[contractID].signer */\n      0x0100\n      exp\n      dup2\n      sload\n      dup2\n      0xffffffffffffffffffffffffffffffffffffffff\n      mul\n      not\n      and\n      swap1\n      dup4\n      0xffffffffffffffffffffffffffffffffffffffff\n      and\n      mul\n      or\n      swap1\n      sstore\n      pop\n        /* \"forward.sol\":2742:2746  true */\n      0x01\n        /* \"forward.sol\":2704:2714  marginCall */\n      0x03\n        /* \"forward.sol\":2704:2726  marginCall[contractID] */\n      0x00\n        /* \"forward.sol\":2715:2725  contractID */\n      dup4\n        /* \"forward.sol\":2704:2726  marginCall[contractID] */\n      dup2\n      mstore\n      0x20\n      add\n      swap1\n      dup2\n      mstore\n      0x20\n      add\n      0x00\n      keccak256\n        /* \"forward.sol\":2704:2739  marginCall[contractID].marginSigner */\n      0x00\n      add\n      0x00\n        /* \"forward.sol\":2704:2746  marginCall[contractID].marginSigner = true */\n      0x0100\n      exp\n      dup2\n      sload\n      dup2\n      0xff\n      mul\n      not\n      and\n      swap1\n      dup4\n      iszero\n      iszero\n      mul\n      or\n      swap1\n      sstore\n      pop\n        /* \"forward.sol\":2530:2759  if(msg.sender == contracts[contractID].issuer &&marginCall[contractID].owner==payable(address(0))) {... */\n    tag_52:\n        /* \"forward.sol\":2779:2788  contracts */\n      0x02\n        /* \"forward.sol\":2779:2800  contracts[contractID] */\n      0x00\n        /* \"forward.sol\":2789:2799  contractID */\n      dup3\n        /* \"forward.sol\":2779:2800  contracts[contractID] */\n      dup2\n      mstore\n      0x20\n      add\n      swap1\n      dup2\n      mstore\n      0x20\n      add\n      0x00\n      keccak256\n        /* \"forward.sol\":2779:2807  contracts[contractID].signer */\n      0x02\n      add\n      0x00\n      swap1\n      sload\n      swap1\n      0x0100\n      exp\n      swap1\n      div\n      0xffffffffffffffffffffffffffffffffffffffff\n      and\n        /* \"forward.sol\":2765:2807  msg.sender == contracts[contractID].signer */\n      0xffffffffffffffffffffffffffffffffffffffff\n      and\n        /* \"forward.sol\":2765:2775  msg.sender */\n      caller\n        /* \"forward.sol\":2765:2807  msg.sender == contracts[contractID].signer */\n      0xffffffffffffffffffffffffffffffffffffffff\n      and\n      eq\n        /* \"forward.sol\":2765:2859  msg.sender == contracts[contractID].signer &&marginCall[contractID].owner==payable(address(0)) */\n      dup1\n      iszero\n      tag_53\n      jumpi\n      pop\n        /* \"forward.sol\":2856:2857  0 */\n      0x00\n        /* \"forward.sol\":2810:2859  marginCall[contractID].owner==payable(address(0)) */\n      0xffffffffffffffffffffffffffffffffffffffff\n      and\n        /* \"forward.sol\":2810:2820  marginCall */\n      0x03\n        /* \"forward.sol\":2810:2832  marginCall[contractID] */\n      0x00\n        /* \"forward.sol\":2821:2831  contractID */\n      dup4\n        /* \"forward.sol\":2810:2832  marginCall[contractID] */\n      dup2\n      mstore\n      0x20\n      add\n      swap1\n      dup2\n      mstore\n      0x20\n      add\n      0x00\n      keccak256\n        /* \"forward.sol\":2810:2838  marginCall[contractID].owner */\n      0x00\n      add\n      0x02\n      swap1\n      sload\n      swap1\n      0x0100\n      exp\n      swap1\n      div\n      0xffffffffffffffffffffffffffffffffffffffff\n      and\n        /* \"forward.sol\":2810:2859  marginCall[contractID].owner==payable(address(0)) */\n      0xffffffffffffffffffffffffffffffffffffffff\n      and\n      eq\n        /* \"forward.sol\":2765:2859  msg.sender == contracts[contractID].signer &&marginCall[contractID].owner==payable(address(0)) */\n    tag_53:\n        /* \"forward.sol\":2762:2990  if(msg.sender == contracts[contractID].signer &&marginCall[contractID].owner==payable(address(0))) {... */\n      iszero\n      tag_54\n      jumpi\n        /* \"forward.sol\":2897:2906  contracts */\n      0x02\n        /* \"forward.sol\":2897:2918  contracts[contractID] */\n      0x00\n        /* \"forward.sol\":2907:2917  contractID */\n      dup3\n        /* \"forward.sol\":2897:2918  contracts[contractID] */\n      dup2\n      mstore\n      0x20\n      add\n      swap1\n      dup2\n      mstore\n      0x20\n      add\n      0x00\n      keccak256\n        /* \"forward.sol\":2897:2925  contracts[contractID].issuer */\n      0x01\n      add\n      0x00\n      swap1\n      sload\n      swap1\n      0x0100\n      exp\n      swap1\n      div\n      0xffffffffffffffffffffffffffffffffffffffff\n      and\n        /* \"forward.sol\":2866:2876  marginCall */\n      0x03\n        /* \"forward.sol\":2866:2888  marginCall[contractID] */\n      0x00\n        /* \"forward.sol\":2877:2887  contractID */\n      dup4\n        /* \"forward.sol\":2866:2888  marginCall[contractID] */\n      dup2\n      mstore\n      0x20\n      add\n      swap1\n      dup2\n      mstore\n      0x20\n      add\n      0x00\n      keccak256\n        /* \"forward.sol\":2866:2894  marginCall[contractID].owner */\n      0x00\n      add\n      0x02\n        /* \"forward.sol\":2866:2925  marginCall[contractID].owner = contracts[contractID].issuer */\n      0x0100\n      exp\n      dup2\n      sload\n      dup2\n      0xffffffffffffffffffffffffffffffffffffffff\n      mul\n      not\n      and\n      swap1\n      dup4\n      0xffffffffffffffffffffffffffffffffffffffff\n      and\n      mul\n      or\n      swap1\n      sstore\n      pop\n        /* \"forward.sol\":2974:2978  true */\n      0x01\n        /* \"forward.sol\":2936:2946  marginCall */\n      0x03\n        /* \"forward.sol\":2936:2958  marginCall[contractID] */\n      0x00\n        /* \"forward.sol\":2947:2957  contractID */\n      dup4\n        /* \"forward.sol\":2936:2958  marginCall[contractID] */\n      dup2\n      mstore\n      0x20\n      add\n      swap1\n      dup2\n      mstore\n      0x20\n      add\n      0x00\n      keccak256\n        /* \"forward.sol\":2936:2971  marginCall[contractID].marginIssuer */\n      0x00\n      add\n      0x01\n        /* \"forward.sol\":2936:2978  marginCall[contractID].marginIssuer = true */\n      0x0100\n      exp\n      dup2\n      sload\n      dup2\n      0xff\n      mul\n      not\n      and\n      swap1\n      dup4\n      iszero\n      iszero\n      mul\n      or\n      swap1\n      sstore\n      pop\n        /* \"forward.sol\":2762:2990  if(msg.sender == contracts[contractID].signer &&marginCall[contractID].owner==payable(address(0))) {... */\n    tag_54:\n        /* \"forward.sol\":2465:2997  function margincallRequestorAccept(uint contractID) external {... */\n      pop\n      jump\t// out\n        /* \"forward.sol\":3002:3344  function margin_Call(uint contractID) external payable {... */\n    tag_25:\n        /* \"forward.sol\":3111:3115  true */\n      0x01\n        /* \"forward.sol\":3072:3115  marginCall[contractID].marginIssuer == true */\n      iszero\n      iszero\n        /* \"forward.sol\":3072:3082  marginCall */\n      0x03\n        /* \"forward.sol\":3072:3094  marginCall[contractID] */\n      0x00\n        /* \"forward.sol\":3083:3093  contractID */\n      dup4\n        /* \"forward.sol\":3072:3094  marginCall[contractID] */\n      dup2\n      mstore\n      0x20\n      add\n      swap1\n      dup2\n      mstore\n      0x20\n      add\n      0x00\n      keccak256\n        /* \"forward.sol\":3072:3107  marginCall[contractID].marginIssuer */\n      0x00\n      add\n      0x01\n      swap1\n      sload\n      swap1\n      0x0100\n      exp\n      swap1\n      div\n      0xff\n      and\n        /* \"forward.sol\":3072:3115  marginCall[contractID].marginIssuer == true */\n      iszero\n      iszero\n      eq\n        /* \"forward.sol\":3072:3162  marginCall[contractID].marginIssuer == true && marginCall[contractID].marginSigner == true */\n      dup1\n      iszero\n      tag_56\n      jumpi\n      pop\n        /* \"forward.sol\":3158:3162  true */\n      0x01\n        /* \"forward.sol\":3119:3162  marginCall[contractID].marginSigner == true */\n      iszero\n      iszero\n        /* \"forward.sol\":3119:3129  marginCall */\n      0x03\n        /* \"forward.sol\":3119:3141  marginCall[contractID] */\n      0x00\n        /* \"forward.sol\":3130:3140  contractID */\n      dup4\n        /* \"forward.sol\":3119:3141  marginCall[contractID] */\n      dup2\n      mstore\n      0x20\n      add\n      swap1\n      dup2\n      mstore\n      0x20\n      add\n      0x00\n      keccak256\n        /* \"forward.sol\":3119:3154  marginCall[contractID].marginSigner */\n      0x00\n      add\n      0x00\n      swap1\n      sload\n      swap1\n      0x0100\n      exp\n      swap1\n      div\n      0xff\n      and\n        /* \"forward.sol\":3119:3162  marginCall[contractID].marginSigner == true */\n      iszero\n      iszero\n      eq\n        /* \"forward.sol\":3072:3162  marginCall[contractID].marginIssuer == true && marginCall[contractID].marginSigner == true */\n    tag_56:\n        /* \"forward.sol\":3064:3179  require(marginCall[contractID].marginIssuer == true && marginCall[contractID].marginSigner == true, \"Not accepted\") */\n      tag_57\n      jumpi\n      mload(0x40)\n      0x08c379a000000000000000000000000000000000000000000000000000000000\n      dup2\n      mstore\n      0x04\n      add\n      tag_58\n      swap1\n      tag_59\n      jump\t// in\n    tag_58:\n      mload(0x40)\n      dup1\n      swap2\n      sub\n      swap1\n      revert\n    tag_57:\n        /* \"forward.sol\":3190:3200  marginCall */\n      0x03\n        /* \"forward.sol\":3190:3212  marginCall[contractID] */\n      0x00\n        /* \"forward.sol\":3201:3211  contractID */\n      dup3\n        /* \"forward.sol\":3190:3212  marginCall[contractID] */\n      dup2\n      mstore\n      0x20\n      add\n      swap1\n      dup2\n      mstore\n      0x20\n      add\n      0x00\n      keccak256\n        /* \"forward.sol\":3190:3218  marginCall[contractID].owner */\n      0x00\n      add\n      0x02\n      swap1\n      sload\n      swap1\n      0x0100\n      exp\n      swap1\n      div\n      0xffffffffffffffffffffffffffffffffffffffff\n      and\n        /* \"forward.sol\":3190:3227  marginCall[contractID].owner.transfer */\n      0xffffffffffffffffffffffffffffffffffffffff\n      and\n        /* \"forward.sol\":3190:3298  marginCall[contractID].owner.transfer(contracts[contractID].marginIssuer+contracts[contractID].marginSigner) */\n      0x08fc\n        /* \"forward.sol\":3263:3272  contracts */\n      0x02\n        /* \"forward.sol\":3263:3284  contracts[contractID] */\n      0x00\n        /* \"forward.sol\":3273:3283  contractID */\n      dup5\n        /* \"forward.sol\":3263:3284  contracts[contractID] */\n      dup2\n      mstore\n      0x20\n      add\n      swap1\n      dup2\n      mstore\n      0x20\n      add\n      0x00\n      keccak256\n        /* \"forward.sol\":3263:3297  contracts[contractID].marginSigner */\n      0x07\n      add\n      sload\n        /* \"forward.sol\":3228:3237  contracts */\n      0x02\n        /* \"forward.sol\":3228:3249  contracts[contractID] */\n      0x00\n        /* \"forward.sol\":3238:3248  contractID */\n      dup6\n        /* \"forward.sol\":3228:3249  contracts[contractID] */\n      dup2\n      mstore\n      0x20\n      add\n      swap1\n      dup2\n      mstore\n      0x20\n      add\n      0x00\n      keccak256\n        /* \"forward.sol\":3228:3262  contracts[contractID].marginIssuer */\n      0x06\n      add\n      sload\n        /* \"forward.sol\":3228:3297  contracts[contractID].marginIssuer+contracts[contractID].marginSigner */\n      tag_60\n      swap2\n      swap1\n      tag_45\n      jump\t// in\n    tag_60:\n        /* \"forward.sol\":3190:3298  marginCall[contractID].owner.transfer(contracts[contractID].marginIssuer+contracts[contractID].marginSigner) */\n      swap1\n      dup2\n      iszero\n      mul\n      swap1\n      mload(0x40)\n      0x00\n      mload(0x40)\n      dup1\n      dup4\n      sub\n      dup2\n      dup6\n      dup9\n      dup9\n      call\n      swap4\n      pop\n      pop\n      pop\n      pop\n      iszero\n      dup1\n      iszero\n      tag_62\n      jumpi\n      returndatasize\n      0x00\n      dup1\n      returndatacopy\n      revert(0x00, returndatasize)\n    tag_62:\n      pop\n        /* \"forward.sol\":3329:3339  contractID */\n      dup1\n        /* \"forward.sol\":3314:3340  MarginCallDone(contractID) */\n      0x27b37245d19baa7036fac055ec38822b4f3527322bf579a64b862a89459bd0b7\n      mload(0x40)\n      mload(0x40)\n      dup1\n      swap2\n      sub\n      swap1\n      log2\n        /* \"forward.sol\":3002:3344  function margin_Call(uint contractID) external payable {... */\n      pop\n      jump\t// out\n        /* \"forward.sol\":2133:2455  function acceptOffer(uint offID, uint contractID) external onlyIssuer(contractID)  {... */\n    tag_29:\n        /* \"forward.sol\":2203:2213  contractID */\n      dup1\n        /* \"forward.sol\":1338:1347  contracts */\n      0x02\n        /* \"forward.sol\":1338:1356  contracts[contrID] */\n      0x00\n        /* \"forward.sol\":1348:1355  contrID */\n      dup3\n        /* \"forward.sol\":1338:1356  contracts[contrID] */\n      dup2\n      mstore\n      0x20\n      add\n      swap1\n      dup2\n      mstore\n      0x20\n      add\n      0x00\n      keccak256\n        /* \"forward.sol\":1338:1363  contracts[contrID].issuer */\n      0x01\n      add\n      0x00\n      swap1\n      sload\n      swap1\n      0x0100\n      exp\n      swap1\n      div\n      0xffffffffffffffffffffffffffffffffffffffff\n      and\n        /* \"forward.sol\":1326:1363  msg.sender==contracts[contrID].issuer */\n      0xffffffffffffffffffffffffffffffffffffffff\n      and\n        /* \"forward.sol\":1326:1336  msg.sender */\n      caller\n        /* \"forward.sol\":1326:1363  msg.sender==contracts[contrID].issuer */\n      0xffffffffffffffffffffffffffffffffffffffff\n      and\n      eq\n        /* \"forward.sol\":1318:1379  require(msg.sender==contracts[contrID].issuer,\"Unauthorized\") */\n      tag_64\n      jumpi\n      mload(0x40)\n      0x08c379a000000000000000000000000000000000000000000000000000000000\n      dup2\n      mstore\n      0x04\n      add\n      tag_65\n      swap1\n      tag_66\n      jump\t// in\n    tag_65:\n      mload(0x40)\n      dup1\n      swap2\n      sub\n      swap1\n      revert\n    tag_64:\n        /* \"forward.sol\":2257:2266  contracts */\n      0x02\n        /* \"forward.sol\":2257:2278  contracts[contractID] */\n      0x00\n        /* \"forward.sol\":2267:2277  contractID */\n      dup4\n        /* \"forward.sol\":2257:2278  contracts[contractID] */\n      dup2\n      mstore\n      0x20\n      add\n      swap1\n      dup2\n      mstore\n      0x20\n      add\n      0x00\n      keccak256\n        /* \"forward.sol\":2257:2285  contracts[contractID].offers */\n      0x09\n      add\n        /* \"forward.sol\":2286:2291  offID */\n      dup4\n        /* \"forward.sol\":2257:2292  contracts[contractID].offers[offID] */\n      dup2\n      sload\n      dup2\n      lt\n      tag_68\n      jumpi\n      tag_69\n      tag_70\n      jump\t// in\n    tag_69:\n    tag_68:\n      swap1\n      0x00\n      mstore\n      keccak256(0x00, 0x20)\n      swap1\n      0x04\n      mul\n      add\n        /* \"forward.sol\":2257:2299  contracts[contractID].offers[offID].margin */\n      0x00\n      add\n      sload\n        /* \"forward.sol\":2220:2229  contracts */\n      0x02\n        /* \"forward.sol\":2220:2241  contracts[contractID] */\n      0x00\n        /* \"forward.sol\":2230:2240  contractID */\n      dup5\n        /* \"forward.sol\":2220:2241  contracts[contractID] */\n      dup2\n      mstore\n      0x20\n      add\n      swap1\n      dup2\n      mstore\n      0x20\n      add\n      0x00\n      keccak256\n        /* \"forward.sol\":2220:2254  contracts[contractID].marginSigner */\n      0x07\n      add\n        /* \"forward.sol\":2220:2299  contracts[contractID].marginSigner = contracts[contractID].offers[offID].margin */\n      dup2\n      swap1\n      sstore\n      pop\n        /* \"forward.sol\":2334:2343  contracts */\n      0x02\n        /* \"forward.sol\":2334:2355  contracts[contractID] */\n      0x00\n        /* \"forward.sol\":2344:2354  contractID */\n      dup4\n        /* \"forward.sol\":2334:2355  contracts[contractID] */\n      dup2\n      mstore\n      0x20\n      add\n      swap1\n      dup2\n      mstore\n      0x20\n      add\n      0x00\n      keccak256\n        /* \"forward.sol\":2334:2362  contracts[contractID].offers */\n      0x09\n      add\n        /* \"forward.sol\":2363:2368  offID */\n      dup4\n        /* \"forward.sol\":2334:2369  contracts[contractID].offers[offID] */\n      dup2\n      sload\n      dup2\n      lt\n      tag_72\n      jumpi\n      tag_73\n      tag_70\n      jump\t// in\n    tag_73:\n    tag_72:\n      swap1\n      0x00\n      mstore\n      keccak256(0x00, 0x20)\n      swap1\n      0x04\n      mul\n      add\n        /* \"forward.sol\":2334:2378  contracts[contractID].offers[offID].offering */\n      0x02\n      add\n      0x00\n      swap1\n      sload\n      swap1\n      0x0100\n      exp\n      swap1\n      div\n      0xffffffffffffffffffffffffffffffffffffffff\n      and\n        /* \"forward.sol\":2303:2312  contracts */\n      0x02\n        /* \"forward.sol\":2303:2324  contracts[contractID] */\n      0x00\n        /* \"forward.sol\":2313:2323  contractID */\n      dup5\n        /* \"forward.sol\":2303:2324  contracts[contractID] */\n      dup2\n      mstore\n      0x20\n      add\n      swap1\n      dup2\n      mstore\n      0x20\n      add\n      0x00\n      keccak256\n        /* \"forward.sol\":2303:2331  contracts[contractID].signer */\n      0x02\n      add\n      0x00\n        /* \"forward.sol\":2303:2378  contracts[contractID].signer = contracts[contractID].offers[offID].offering */\n      0x0100\n      exp\n      dup2\n      sload\n      dup2\n      0xffffffffffffffffffffffffffffffffffffffff\n      mul\n      not\n      and\n      swap1\n      dup4\n      0xffffffffffffffffffffffffffffffffffffffff\n      and\n      mul\n      or\n      swap1\n      sstore\n      pop\n        /* \"forward.sol\":2407:2450  MarginCall(false,false,payable(address(0))) */\n      mload(0x40)\n      dup1\n      0x60\n      add\n      0x40\n      mstore\n      dup1\n        /* \"forward.sol\":2418:2423  false */\n      0x00\n        /* \"forward.sol\":2407:2450  MarginCall(false,false,payable(address(0))) */\n      iszero\n      iszero\n      dup2\n      mstore\n      0x20\n      add\n        /* \"forward.sol\":2424:2429  false */\n      0x00\n        /* \"forward.sol\":2407:2450  MarginCall(false,false,payable(address(0))) */\n      iszero\n      iszero\n      dup2\n      mstore\n      0x20\n      add\n        /* \"forward.sol\":2446:2447  0 */\n      0x00\n        /* \"forward.sol\":2407:2450  MarginCall(false,false,payable(address(0))) */\n      0xffffffffffffffffffffffffffffffffffffffff\n      and\n      dup2\n      mstore\n      pop\n        /* \"forward.sol\":2382:2392  marginCall */\n      0x03\n        /* \"forward.sol\":2382:2404  marginCall[contractID] */\n      0x00\n        /* \"forward.sol\":2393:2403  contractID */\n      dup5\n        /* \"forward.sol\":2382:2404  marginCall[contractID] */\n      dup2\n      mstore\n      0x20\n      add\n      swap1\n      dup2\n      mstore\n      0x20\n      add\n      0x00\n      keccak256\n        /* \"forward.sol\":2382:2450  marginCall[contractID] = MarginCall(false,false,payable(address(0))) */\n      0x00\n      dup3\n      add\n      mload\n      dup2\n      0x00\n      add\n      exp(0x0100, 0x00)\n      dup2\n      sload\n      dup2\n      0xff\n      mul\n      not\n      and\n      swap1\n      dup4\n      iszero\n      iszero\n      mul\n      or\n      swap1\n      sstore\n      pop\n      0x20\n      dup3\n      add\n      mload\n      dup2\n      0x00\n      add\n      exp(0x0100, 0x01)\n      dup2\n      sload\n      dup2\n      0xff\n      mul\n      not\n      and\n      swap1\n      dup4\n      iszero\n      iszero\n      mul\n      or\n      swap1\n      sstore\n      pop\n      0x40\n      dup3\n      add\n      mload\n      dup2\n      0x00\n      add\n      exp(0x0100, 0x02)\n      dup2\n      sload\n      dup2\n      0xffffffffffffffffffffffffffffffffffffffff\n      mul\n      not\n      and\n      swap1\n      dup4\n      0xffffffffffffffffffffffffffffffffffffffff\n      and\n      mul\n      or\n      swap1\n      sstore\n      pop\n      swap1\n      pop\n      pop\n        /* \"forward.sol\":2133:2455  function acceptOffer(uint offID, uint contractID) external onlyIssuer(contractID)  {... */\n      pop\n      pop\n      pop\n      jump\t// out\n        /* \"forward.sol\":1487:1857  function createContract(... */\n    tag_33:\n        /* \"forward.sol\":1603:1613  uint index */\n      0x00\n        /* \"forward.sol\":1659:1664  86400 */\n      0x015180\n        /* \"forward.sol\":1643:1658  block.timestamp */\n      timestamp\n        /* \"forward.sol\":1643:1664  block.timestamp+86400 */\n      tag_76\n      swap2\n      swap1\n      tag_45\n      jump\t// in\n    tag_76:\n        /* \"forward.sol\":1634:1642  _dueDate */\n      dup3\n        /* \"forward.sol\":1634:1664  _dueDate>block.timestamp+86400 */\n      gt\n        /* \"forward.sol\":1626:1684  require(_dueDate>block.timestamp+86400,\"At least one day\") */\n      tag_77\n      jumpi\n      mload(0x40)\n      0x08c379a000000000000000000000000000000000000000000000000000000000\n      dup2\n      mstore\n      0x04\n      add\n      tag_78\n      swap1\n      tag_79\n      jump\t// in\n    tag_78:\n      mload(0x40)\n      dup1\n      swap2\n      sub\n      swap1\n      revert\n    tag_77:\n        /* \"forward.sol\":1709:1718  msg.value */\n      callvalue\n        /* \"forward.sol\":1695:1705  blockedBal */\n      0x01\n      0x00\n        /* \"forward.sol\":1695:1718  blockedBal += msg.value */\n      dup3\n      dup3\n      sload\n      tag_80\n      swap2\n      swap1\n      tag_45\n      jump\t// in\n    tag_80:\n      swap3\n      pop\n      pop\n      dup2\n      swap1\n      sstore\n      pop\n        /* \"forward.sol\":1741:1752  globalIndex */\n      sload(0x00)\n        /* \"forward.sol\":1734:1792  Issued(globalIndex,msg.sender,_product,_dueDate,msg.value) */\n      0xffb39da08503bbf77fd07dd25e2cd85029abeb9618ee7fd7aa5adc468a51ffe2\n        /* \"forward.sol\":1753:1763  msg.sender */\n      caller\n        /* \"forward.sol\":1764:1772  _product */\n      dup7\n      dup7\n        /* \"forward.sol\":1773:1781  _dueDate */\n      dup7\n        /* \"forward.sol\":1782:1791  msg.value */\n      callvalue\n        /* \"forward.sol\":1734:1792  Issued(globalIndex,msg.sender,_product,_dueDate,msg.value) */\n      mload(0x40)\n      tag_81\n      swap6\n      swap5\n      swap4\n      swap3\n      swap2\n      swap1\n      tag_82\n      jump\t// in\n    tag_81:\n      mload(0x40)\n      dup1\n      swap2\n      sub\n      swap1\n      log2\n        /* \"forward.sol\":1803:1814  globalIndex */\n      0x00\n      dup1\n        /* \"forward.sol\":1803:1816  globalIndex++ */\n      dup2\n      sload\n      dup1\n      swap3\n      swap2\n      swap1\n      tag_83\n      swap1\n      tag_47\n      jump\t// in\n    tag_83:\n      swap2\n      swap1\n      pop\n      sstore\n      pop\n        /* \"forward.sol\":1834:1845  globalIndex */\n      sload(0x00)\n        /* \"forward.sol\":1827:1845  return globalIndex */\n      swap1\n      pop\n        /* \"forward.sol\":1487:1857  function createContract(... */\n      swap4\n      swap3\n      pop\n      pop\n      pop\n      jump\t// out\n        /* \"#utility.yul\":88:205   */\n    tag_85:\n        /* \"#utility.yul\":197:198   */\n      0x00\n        /* \"#utility.yul\":194:195   */\n      dup1\n        /* \"#utility.yul\":187:199   */\n      revert\n        /* \"#utility.yul\":211:328   */\n    tag_86:\n        /* \"#utility.yul\":320:321   */\n      0x00\n        /* \"#utility.yul\":317:318   */\n      dup1\n        /* \"#utility.yul\":310:322   */\n      revert\n        /* \"#utility.yul\":334:411   */\n    tag_87:\n        /* \"#utility.yul\":371:378   */\n      0x00\n        /* \"#utility.yul\":400:405   */\n      dup2\n        /* \"#utility.yul\":389:405   */\n      swap1\n      pop\n        /* \"#utility.yul\":334:411   */\n      swap2\n      swap1\n      pop\n      jump\t// out\n        /* \"#utility.yul\":417:539   */\n    tag_88:\n        /* \"#utility.yul\":490:514   */\n      tag_121\n        /* \"#utility.yul\":508:513   */\n      dup2\n        /* \"#utility.yul\":490:514   */\n      tag_87\n      jump\t// in\n    tag_121:\n        /* \"#utility.yul\":483:488   */\n      dup2\n        /* \"#utility.yul\":480:515   */\n      eq\n        /* \"#utility.yul\":470:533   */\n      tag_122\n      jumpi\n        /* \"#utility.yul\":529:530   */\n      0x00\n        /* \"#utility.yul\":526:527   */\n      dup1\n        /* \"#utility.yul\":519:531   */\n      revert\n        /* \"#utility.yul\":470:533   */\n    tag_122:\n        /* \"#utility.yul\":417:539   */\n      pop\n      jump\t// out\n        /* \"#utility.yul\":545:684   */\n    tag_89:\n        /* \"#utility.yul\":591:596   */\n      0x00\n        /* \"#utility.yul\":629:635   */\n      dup2\n        /* \"#utility.yul\":616:636   */\n      calldataload\n        /* \"#utility.yul\":607:636   */\n      swap1\n      pop\n        /* \"#utility.yul\":645:678   */\n      tag_124\n        /* \"#utility.yul\":672:677   */\n      dup2\n        /* \"#utility.yul\":645:678   */\n      tag_88\n      jump\t// in\n    tag_124:\n        /* \"#utility.yul\":545:684   */\n      swap3\n      swap2\n      pop\n      pop\n      jump\t// out\n        /* \"#utility.yul\":690:1019   */\n    tag_11:\n        /* \"#utility.yul\":749:755   */\n      0x00\n        /* \"#utility.yul\":798:800   */\n      0x20\n        /* \"#utility.yul\":786:795   */\n      dup3\n        /* \"#utility.yul\":777:784   */\n      dup5\n        /* \"#utility.yul\":773:796   */\n      sub\n        /* \"#utility.yul\":769:801   */\n      slt\n        /* \"#utility.yul\":766:885   */\n      iszero\n      tag_126\n      jumpi\n        /* \"#utility.yul\":804:883   */\n      tag_127\n      tag_85\n      jump\t// in\n    tag_127:\n        /* \"#utility.yul\":766:885   */\n    tag_126:\n        /* \"#utility.yul\":924:925   */\n      0x00\n        /* \"#utility.yul\":949:1002   */\n      tag_128\n        /* \"#utility.yul\":994:1001   */\n      dup5\n        /* \"#utility.yul\":985:991   */\n      dup3\n        /* \"#utility.yul\":974:983   */\n      dup6\n        /* \"#utility.yul\":970:992   */\n      add\n        /* \"#utility.yul\":949:1002   */\n      tag_89\n      jump\t// in\n    tag_128:\n        /* \"#utility.yul\":939:1002   */\n      swap2\n      pop\n        /* \"#utility.yul\":895:1012   */\n      pop\n        /* \"#utility.yul\":690:1019   */\n      swap3\n      swap2\n      pop\n      pop\n      jump\t// out\n        /* \"#utility.yul\":1025:1124   */\n    tag_90:\n        /* \"#utility.yul\":1077:1083   */\n      0x00\n        /* \"#utility.yul\":1111:1116   */\n      dup2\n        /* \"#utility.yul\":1105:1117   */\n      mload\n        /* \"#utility.yul\":1095:1117   */\n      swap1\n      pop\n        /* \"#utility.yul\":1025:1124   */\n      swap2\n      swap1\n      pop\n      jump\t// out\n        /* \"#utility.yul\":1130:1299   */\n    tag_91:\n        /* \"#utility.yul\":1214:1225   */\n      0x00\n        /* \"#utility.yul\":1248:1254   */\n      dup3\n        /* \"#utility.yul\":1243:1246   */\n      dup3\n        /* \"#utility.yul\":1236:1255   */\n      mstore\n        /* \"#utility.yul\":1288:1292   */\n      0x20\n        /* \"#utility.yul\":1283:1286   */\n      dup3\n        /* \"#utility.yul\":1279:1293   */\n      add\n        /* \"#utility.yul\":1264:1293   */\n      swap1\n      pop\n        /* \"#utility.yul\":1130:1299   */\n      swap3\n      swap2\n      pop\n      pop\n      jump\t// out\n        /* \"#utility.yul\":1305:1551   */\n    tag_92:\n        /* \"#utility.yul\":1386:1387   */\n      0x00\n        /* \"#utility.yul\":1396:1509   */\n    tag_132:\n        /* \"#utility.yul\":1410:1416   */\n      dup4\n        /* \"#utility.yul\":1407:1408   */\n      dup2\n        /* \"#utility.yul\":1404:1417   */\n      lt\n        /* \"#utility.yul\":1396:1509   */\n      iszero\n      tag_134\n      jumpi\n        /* \"#utility.yul\":1495:1496   */\n      dup1\n        /* \"#utility.yul\":1490:1493   */\n      dup3\n        /* \"#utility.yul\":1486:1497   */\n      add\n        /* \"#utility.yul\":1480:1498   */\n      mload\n        /* \"#utility.yul\":1476:1477   */\n      dup2\n        /* \"#utility.yul\":1471:1474   */\n      dup5\n        /* \"#utility.yul\":1467:1478   */\n      add\n        /* \"#utility.yul\":1460:1499   */\n      mstore\n        /* \"#utility.yul\":1432:1434   */\n      0x20\n        /* \"#utility.yul\":1429:1430   */\n      dup2\n        /* \"#utility.yul\":1425:1435   */\n      add\n        /* \"#utility.yul\":1420:1435   */\n      swap1\n      pop\n        /* \"#utility.yul\":1396:1509   */\n      jump(tag_132)\n    tag_134:\n        /* \"#utility.yul\":1543:1544   */\n      0x00\n        /* \"#utility.yul\":1534:1540   */\n      dup5\n        /* \"#utility.yul\":1529:1532   */\n      dup5\n        /* \"#utility.yul\":1525:1541   */\n      add\n        /* \"#utility.yul\":1518:1545   */\n      mstore\n        /* \"#utility.yul\":1367:1551   */\n      pop\n        /* \"#utility.yul\":1305:1551   */\n      pop\n      pop\n      pop\n      jump\t// out\n        /* \"#utility.yul\":1557:1659   */\n    tag_93:\n        /* \"#utility.yul\":1598:1604   */\n      0x00\n        /* \"#utility.yul\":1649:1651   */\n      0x1f\n        /* \"#utility.yul\":1645:1652   */\n      not\n        /* \"#utility.yul\":1640:1642   */\n      0x1f\n        /* \"#utility.yul\":1633:1638   */\n      dup4\n        /* \"#utility.yul\":1629:1643   */\n      add\n        /* \"#utility.yul\":1625:1653   */\n      and\n        /* \"#utility.yul\":1615:1653   */\n      swap1\n      pop\n        /* \"#utility.yul\":1557:1659   */\n      swap2\n      swap1\n      pop\n      jump\t// out\n        /* \"#utility.yul\":1665:2042   */\n    tag_94:\n        /* \"#utility.yul\":1753:1756   */\n      0x00\n        /* \"#utility.yul\":1781:1820   */\n      tag_137\n        /* \"#utility.yul\":1814:1819   */\n      dup3\n        /* \"#utility.yul\":1781:1820   */\n      tag_90\n      jump\t// in\n    tag_137:\n        /* \"#utility.yul\":1836:1907   */\n      tag_138\n        /* \"#utility.yul\":1900:1906   */\n      dup2\n        /* \"#utility.yul\":1895:1898   */\n      dup6\n        /* \"#utility.yul\":1836:1907   */\n      tag_91\n      jump\t// in\n    tag_138:\n        /* \"#utility.yul\":1829:1907   */\n      swap4\n      pop\n        /* \"#utility.yul\":1916:1981   */\n      tag_139\n        /* \"#utility.yul\":1974:1980   */\n      dup2\n        /* \"#utility.yul\":1969:1972   */\n      dup6\n        /* \"#utility.yul\":1962:1966   */\n      0x20\n        /* \"#utility.yul\":1955:1960   */\n      dup7\n        /* \"#utility.yul\":1951:1967   */\n      add\n        /* \"#utility.yul\":1916:1981   */\n      tag_92\n      jump\t// in\n    tag_139:\n        /* \"#utility.yul\":2006:2035   */\n      tag_140\n        /* \"#utility.yul\":2028:2034   */\n      dup2\n        /* \"#utility.yul\":2006:2035   */\n      tag_93\n      jump\t// in\n    tag_140:\n        /* \"#utility.yul\":2001:2004   */\n      dup5\n        /* \"#utility.yul\":1997:2036   */\n      add\n        /* \"#utility.yul\":1990:2036   */\n      swap2\n      pop\n        /* \"#utility.yul\":1757:2042   */\n      pop\n        /* \"#utility.yul\":1665:2042   */\n      swap3\n      swap2\n      pop\n      pop\n      jump\t// out\n        /* \"#utility.yul\":2048:2174   */\n    tag_95:\n        /* \"#utility.yul\":2085:2092   */\n      0x00\n        /* \"#utility.yul\":2125:2167   */\n      0xffffffffffffffffffffffffffffffffffffffff\n        /* \"#utility.yul\":2118:2123   */\n      dup3\n        /* \"#utility.yul\":2114:2168   */\n      and\n        /* \"#utility.yul\":2103:2168   */\n      swap1\n      pop\n        /* \"#utility.yul\":2048:2174   */\n      swap2\n      swap1\n      pop\n      jump\t// out\n        /* \"#utility.yul\":2180:2284   */\n    tag_96:\n        /* \"#utility.yul\":2225:2232   */\n      0x00\n        /* \"#utility.yul\":2254:2278   */\n      tag_143\n        /* \"#utility.yul\":2272:2277   */\n      dup3\n        /* \"#utility.yul\":2254:2278   */\n      tag_95\n      jump\t// in\n    tag_143:\n        /* \"#utility.yul\":2243:2278   */\n      swap1\n      pop\n        /* \"#utility.yul\":2180:2284   */\n      swap2\n      swap1\n      pop\n      jump\t// out\n        /* \"#utility.yul\":2290:2432   */\n    tag_97:\n        /* \"#utility.yul\":2393:2425   */\n      tag_145\n        /* \"#utility.yul\":2419:2424   */\n      dup2\n        /* \"#utility.yul\":2393:2425   */\n      tag_96\n      jump\t// in\n    tag_145:\n        /* \"#utility.yul\":2388:2391   */\n      dup3\n        /* \"#utility.yul\":2381:2426   */\n      mstore\n        /* \"#utility.yul\":2290:2432   */\n      pop\n      pop\n      jump\t// out\n        /* \"#utility.yul\":2438:2556   */\n    tag_98:\n        /* \"#utility.yul\":2525:2549   */\n      tag_147\n        /* \"#utility.yul\":2543:2548   */\n      dup2\n        /* \"#utility.yul\":2525:2549   */\n      tag_87\n      jump\t// in\n    tag_147:\n        /* \"#utility.yul\":2520:2523   */\n      dup3\n        /* \"#utility.yul\":2513:2550   */\n      mstore\n        /* \"#utility.yul\":2438:2556   */\n      pop\n      pop\n      jump\t// out\n        /* \"#utility.yul\":2562:3825   */\n    tag_14:\n        /* \"#utility.yul\":2931:2935   */\n      0x00\n        /* \"#utility.yul\":2969:2972   */\n      0x0120\n        /* \"#utility.yul\":2958:2967   */\n      dup3\n        /* \"#utility.yul\":2954:2973   */\n      add\n        /* \"#utility.yul\":2946:2973   */\n      swap1\n      pop\n        /* \"#utility.yul\":3019:3028   */\n      dup2\n        /* \"#utility.yul\":3013:3017   */\n      dup2\n        /* \"#utility.yul\":3009:3029   */\n      sub\n        /* \"#utility.yul\":3005:3006   */\n      0x00\n        /* \"#utility.yul\":2994:3003   */\n      dup4\n        /* \"#utility.yul\":2990:3007   */\n      add\n        /* \"#utility.yul\":2983:3030   */\n      mstore\n        /* \"#utility.yul\":3047:3125   */\n      tag_149\n        /* \"#utility.yul\":3120:3124   */\n      dup2\n        /* \"#utility.yul\":3111:3117   */\n      dup13\n        /* \"#utility.yul\":3047:3125   */\n      tag_94\n      jump\t// in\n    tag_149:\n        /* \"#utility.yul\":3039:3125   */\n      swap1\n      pop\n        /* \"#utility.yul\":3135:3223   */\n      tag_150\n        /* \"#utility.yul\":3219:3221   */\n      0x20\n        /* \"#utility.yul\":3208:3217   */\n      dup4\n        /* \"#utility.yul\":3204:3222   */\n      add\n        /* \"#utility.yul\":3195:3201   */\n      dup12\n        /* \"#utility.yul\":3135:3223   */\n      tag_97\n      jump\t// in\n    tag_150:\n        /* \"#utility.yul\":3233:3321   */\n      tag_151\n        /* \"#utility.yul\":3317:3319   */\n      0x40\n        /* \"#utility.yul\":3306:3315   */\n      dup4\n        /* \"#utility.yul\":3302:3320   */\n      add\n        /* \"#utility.yul\":3293:3299   */\n      dup11\n        /* \"#utility.yul\":3233:3321   */\n      tag_97\n      jump\t// in\n    tag_151:\n        /* \"#utility.yul\":3331:3403   */\n      tag_152\n        /* \"#utility.yul\":3399:3401   */\n      0x60\n        /* \"#utility.yul\":3388:3397   */\n      dup4\n        /* \"#utility.yul\":3384:3402   */\n      add\n        /* \"#utility.yul\":3375:3381   */\n      dup10\n        /* \"#utility.yul\":3331:3403   */\n      tag_98\n      jump\t// in\n    tag_152:\n        /* \"#utility.yul\":3413:3486   */\n      tag_153\n        /* \"#utility.yul\":3481:3484   */\n      0x80\n        /* \"#utility.yul\":3470:3479   */\n      dup4\n        /* \"#utility.yul\":3466:3485   */\n      add\n        /* \"#utility.yul\":3457:3463   */\n      dup9\n        /* \"#utility.yul\":3413:3486   */\n      tag_98\n      jump\t// in\n    tag_153:\n        /* \"#utility.yul\":3496:3569   */\n      tag_154\n        /* \"#utility.yul\":3564:3567   */\n      0xa0\n        /* \"#utility.yul\":3553:3562   */\n      dup4\n        /* \"#utility.yul\":3549:3568   */\n      add\n        /* \"#utility.yul\":3540:3546   */\n      dup8\n        /* \"#utility.yul\":3496:3569   */\n      tag_98\n      jump\t// in\n    tag_154:\n        /* \"#utility.yul\":3579:3652   */\n      tag_155\n        /* \"#utility.yul\":3647:3650   */\n      0xc0\n        /* \"#utility.yul\":3636:3645   */\n      dup4\n        /* \"#utility.yul\":3632:3651   */\n      add\n        /* \"#utility.yul\":3623:3629   */\n      dup7\n        /* \"#utility.yul\":3579:3652   */\n      tag_98\n      jump\t// in\n    tag_155:\n        /* \"#utility.yul\":3662:3735   */\n      tag_156\n        /* \"#utility.yul\":3730:3733   */\n      0xe0\n        /* \"#utility.yul\":3719:3728   */\n      dup4\n        /* \"#utility.yul\":3715:3734   */\n      add\n        /* \"#utility.yul\":3706:3712   */\n      dup6\n        /* \"#utility.yul\":3662:3735   */\n      tag_98\n      jump\t// in\n    tag_156:\n        /* \"#utility.yul\":3745:3818   */\n      tag_157\n        /* \"#utility.yul\":3813:3816   */\n      0x0100\n        /* \"#utility.yul\":3802:3811   */\n      dup4\n        /* \"#utility.yul\":3798:3817   */\n      add\n        /* \"#utility.yul\":3789:3795   */\n      dup5\n        /* \"#utility.yul\":3745:3818   */\n      tag_98\n      jump\t// in\n    tag_157:\n        /* \"#utility.yul\":2562:3825   */\n      swap11\n      swap10\n      pop\n      pop\n      pop\n      pop\n      pop\n      pop\n      pop\n      pop\n      pop\n      pop\n      jump\t// out\n        /* \"#utility.yul\":3831:4305   */\n    tag_17:\n        /* \"#utility.yul\":3899:3905   */\n      0x00\n        /* \"#utility.yul\":3907:3913   */\n      dup1\n        /* \"#utility.yul\":3956:3958   */\n      0x40\n        /* \"#utility.yul\":3944:3953   */\n      dup4\n        /* \"#utility.yul\":3935:3942   */\n      dup6\n        /* \"#utility.yul\":3931:3954   */\n      sub\n        /* \"#utility.yul\":3927:3959   */\n      slt\n        /* \"#utility.yul\":3924:4043   */\n      iszero\n      tag_159\n      jumpi\n        /* \"#utility.yul\":3962:4041   */\n      tag_160\n      tag_85\n      jump\t// in\n    tag_160:\n        /* \"#utility.yul\":3924:4043   */\n    tag_159:\n        /* \"#utility.yul\":4082:4083   */\n      0x00\n        /* \"#utility.yul\":4107:4160   */\n      tag_161\n        /* \"#utility.yul\":4152:4159   */\n      dup6\n        /* \"#utility.yul\":4143:4149   */\n      dup3\n        /* \"#utility.yul\":4132:4141   */\n      dup7\n        /* \"#utility.yul\":4128:4150   */\n      add\n        /* \"#utility.yul\":4107:4160   */\n      tag_89\n      jump\t// in\n    tag_161:\n        /* \"#utility.yul\":4097:4160   */\n      swap3\n      pop\n        /* \"#utility.yul\":4053:4170   */\n      pop\n        /* \"#utility.yul\":4209:4211   */\n      0x20\n        /* \"#utility.yul\":4235:4288   */\n      tag_162\n        /* \"#utility.yul\":4280:4287   */\n      dup6\n        /* \"#utility.yul\":4271:4277   */\n      dup3\n        /* \"#utility.yul\":4260:4269   */\n      dup7\n        /* \"#utility.yul\":4256:4278   */\n      add\n        /* \"#utility.yul\":4235:4288   */\n      tag_89\n      jump\t// in\n    tag_162:\n        /* \"#utility.yul\":4225:4288   */\n      swap2\n      pop\n        /* \"#utility.yul\":4180:4298   */\n      pop\n        /* \"#utility.yul\":3831:4305   */\n      swap3\n      pop\n      swap3\n      swap1\n      pop\n      jump\t// out\n        /* \"#utility.yul\":4311:4428   */\n    tag_99:\n        /* \"#utility.yul\":4420:4421   */\n      0x00\n        /* \"#utility.yul\":4417:4418   */\n      dup1\n        /* \"#utility.yul\":4410:4422   */\n      revert\n        /* \"#utility.yul\":4434:4551   */\n    tag_100:\n        /* \"#utility.yul\":4543:4544   */\n      0x00\n        /* \"#utility.yul\":4540:4541   */\n      dup1\n        /* \"#utility.yul\":4533:4545   */\n      revert\n        /* \"#utility.yul\":4557:4674   */\n    tag_101:\n        /* \"#utility.yul\":4666:4667   */\n      0x00\n        /* \"#utility.yul\":4663:4664   */\n      dup1\n        /* \"#utility.yul\":4656:4668   */\n      revert\n        /* \"#utility.yul\":4694:5247   */\n    tag_102:\n        /* \"#utility.yul\":4752:4760   */\n      0x00\n        /* \"#utility.yul\":4762:4768   */\n      dup1\n        /* \"#utility.yul\":4812:4815   */\n      dup4\n        /* \"#utility.yul\":4805:4809   */\n      0x1f\n        /* \"#utility.yul\":4797:4803   */\n      dup5\n        /* \"#utility.yul\":4793:4810   */\n      add\n        /* \"#utility.yul\":4789:4816   */\n      slt\n        /* \"#utility.yul\":4779:4901   */\n      tag_167\n      jumpi\n        /* \"#utility.yul\":4820:4899   */\n      tag_168\n      tag_99\n      jump\t// in\n    tag_168:\n        /* \"#utility.yul\":4779:4901   */\n    tag_167:\n        /* \"#utility.yul\":4933:4939   */\n      dup3\n        /* \"#utility.yul\":4920:4940   */\n      calldataload\n        /* \"#utility.yul\":4910:4940   */\n      swap1\n      pop\n        /* \"#utility.yul\":4963:4981   */\n      0xffffffffffffffff\n        /* \"#utility.yul\":4955:4961   */\n      dup2\n        /* \"#utility.yul\":4952:4982   */\n      gt\n        /* \"#utility.yul\":4949:5066   */\n      iszero\n      tag_169\n      jumpi\n        /* \"#utility.yul\":4985:5064   */\n      tag_170\n      tag_100\n      jump\t// in\n    tag_170:\n        /* \"#utility.yul\":4949:5066   */\n    tag_169:\n        /* \"#utility.yul\":5099:5103   */\n      0x20\n        /* \"#utility.yul\":5091:5097   */\n      dup4\n        /* \"#utility.yul\":5087:5104   */\n      add\n        /* \"#utility.yul\":5075:5104   */\n      swap2\n      pop\n        /* \"#utility.yul\":5153:5156   */\n      dup4\n        /* \"#utility.yul\":5145:5149   */\n      0x01\n        /* \"#utility.yul\":5137:5143   */\n      dup3\n        /* \"#utility.yul\":5133:5150   */\n      mul\n        /* \"#utility.yul\":5123:5131   */\n      dup4\n        /* \"#utility.yul\":5119:5151   */\n      add\n        /* \"#utility.yul\":5116:5157   */\n      gt\n        /* \"#utility.yul\":5113:5241   */\n      iszero\n      tag_171\n      jumpi\n        /* \"#utility.yul\":5160:5239   */\n      tag_172\n      tag_101\n      jump\t// in\n    tag_172:\n        /* \"#utility.yul\":5113:5241   */\n    tag_171:\n        /* \"#utility.yul\":4694:5247   */\n      swap3\n      pop\n      swap3\n      swap1\n      pop\n      jump\t// out\n        /* \"#utility.yul\":5253:5927   */\n    tag_32:\n        /* \"#utility.yul\":5333:5339   */\n      0x00\n        /* \"#utility.yul\":5341:5347   */\n      dup1\n        /* \"#utility.yul\":5349:5355   */\n      0x00\n        /* \"#utility.yul\":5398:5400   */\n      0x40\n        /* \"#utility.yul\":5386:5395   */\n      dup5\n        /* \"#utility.yul\":5377:5384   */\n      dup7\n        /* \"#utility.yul\":5373:5396   */\n      sub\n        /* \"#utility.yul\":5369:5401   */\n      slt\n        /* \"#utility.yul\":5366:5485   */\n      iszero\n      tag_174\n      jumpi\n        /* \"#utility.yul\":5404:5483   */\n      tag_175\n      tag_85\n      jump\t// in\n    tag_175:\n        /* \"#utility.yul\":5366:5485   */\n    tag_174:\n        /* \"#utility.yul\":5552:5553   */\n      0x00\n        /* \"#utility.yul\":5541:5550   */\n      dup5\n        /* \"#utility.yul\":5537:5554   */\n      add\n        /* \"#utility.yul\":5524:5555   */\n      calldataload\n        /* \"#utility.yul\":5582:5600   */\n      0xffffffffffffffff\n        /* \"#utility.yul\":5574:5580   */\n      dup2\n        /* \"#utility.yul\":5571:5601   */\n      gt\n        /* \"#utility.yul\":5568:5685   */\n      iszero\n      tag_176\n      jumpi\n        /* \"#utility.yul\":5604:5683   */\n      tag_177\n      tag_86\n      jump\t// in\n    tag_177:\n        /* \"#utility.yul\":5568:5685   */\n    tag_176:\n        /* \"#utility.yul\":5717:5782   */\n      tag_178\n        /* \"#utility.yul\":5774:5781   */\n      dup7\n        /* \"#utility.yul\":5765:5771   */\n      dup3\n        /* \"#utility.yul\":5754:5763   */\n      dup8\n        /* \"#utility.yul\":5750:5772   */\n      add\n        /* \"#utility.yul\":5717:5782   */\n      tag_102\n      jump\t// in\n    tag_178:\n        /* \"#utility.yul\":5699:5782   */\n      swap4\n      pop\n      swap4\n      pop\n        /* \"#utility.yul\":5495:5792   */\n      pop\n        /* \"#utility.yul\":5831:5833   */\n      0x20\n        /* \"#utility.yul\":5857:5910   */\n      tag_179\n        /* \"#utility.yul\":5902:5909   */\n      dup7\n        /* \"#utility.yul\":5893:5899   */\n      dup3\n        /* \"#utility.yul\":5882:5891   */\n      dup8\n        /* \"#utility.yul\":5878:5900   */\n      add\n        /* \"#utility.yul\":5857:5910   */\n      tag_89\n      jump\t// in\n    tag_179:\n        /* \"#utility.yul\":5847:5910   */\n      swap2\n      pop\n        /* \"#utility.yul\":5802:5920   */\n      pop\n        /* \"#utility.yul\":5253:5927   */\n      swap3\n      pop\n      swap3\n      pop\n      swap3\n      jump\t// out\n        /* \"#utility.yul\":5933:6155   */\n    tag_35:\n        /* \"#utility.yul\":6026:6030   */\n      0x00\n        /* \"#utility.yul\":6064:6066   */\n      0x20\n        /* \"#utility.yul\":6053:6062   */\n      dup3\n        /* \"#utility.yul\":6049:6067   */\n      add\n        /* \"#utility.yul\":6041:6067   */\n      swap1\n      pop\n        /* \"#utility.yul\":6077:6148   */\n      tag_181\n        /* \"#utility.yul\":6145:6146   */\n      0x00\n        /* \"#utility.yul\":6134:6143   */\n      dup4\n        /* \"#utility.yul\":6130:6147   */\n      add\n        /* \"#utility.yul\":6121:6127   */\n      dup5\n        /* \"#utility.yul\":6077:6148   */\n      tag_98\n      jump\t// in\n    tag_181:\n        /* \"#utility.yul\":5933:6155   */\n      swap3\n      swap2\n      pop\n      pop\n      jump\t// out\n        /* \"#utility.yul\":6161:6341   */\n    tag_103:\n        /* \"#utility.yul\":6209:6286   */\n      0x4e487b7100000000000000000000000000000000000000000000000000000000\n        /* \"#utility.yul\":6206:6207   */\n      0x00\n        /* \"#utility.yul\":6199:6287   */\n      mstore\n        /* \"#utility.yul\":6306:6310   */\n      0x22\n        /* \"#utility.yul\":6303:6304   */\n      0x04\n        /* \"#utility.yul\":6296:6311   */\n      mstore\n        /* \"#utility.yul\":6330:6334   */\n      0x24\n        /* \"#utility.yul\":6327:6328   */\n      0x00\n        /* \"#utility.yul\":6320:6335   */\n      revert\n        /* \"#utility.yul\":6347:6667   */\n    tag_37:\n        /* \"#utility.yul\":6391:6397   */\n      0x00\n        /* \"#utility.yul\":6428:6429   */\n      0x02\n        /* \"#utility.yul\":6422:6426   */\n      dup3\n        /* \"#utility.yul\":6418:6430   */\n      div\n        /* \"#utility.yul\":6408:6430   */\n      swap1\n      pop\n        /* \"#utility.yul\":6475:6476   */\n      0x01\n        /* \"#utility.yul\":6469:6473   */\n      dup3\n        /* \"#utility.yul\":6465:6477   */\n      and\n        /* \"#utility.yul\":6496:6514   */\n      dup1\n        /* \"#utility.yul\":6486:6567   */\n      tag_184\n      jumpi\n        /* \"#utility.yul\":6552:6556   */\n      0x7f\n        /* \"#utility.yul\":6544:6550   */\n      dup3\n        /* \"#utility.yul\":6540:6557   */\n      and\n        /* \"#utility.yul\":6530:6557   */\n      swap2\n      pop\n        /* \"#utility.yul\":6486:6567   */\n    tag_184:\n        /* \"#utility.yul\":6614:6616   */\n      0x20\n        /* \"#utility.yul\":6606:6612   */\n      dup3\n        /* \"#utility.yul\":6603:6617   */\n      lt\n        /* \"#utility.yul\":6583:6601   */\n      dup2\n        /* \"#utility.yul\":6580:6618   */\n      sub\n        /* \"#utility.yul\":6577:6661   */\n      tag_185\n      jumpi\n        /* \"#utility.yul\":6633:6651   */\n      tag_186\n      tag_103\n      jump\t// in\n    tag_186:\n        /* \"#utility.yul\":6577:6661   */\n    tag_185:\n        /* \"#utility.yul\":6398:6667   */\n      pop\n        /* \"#utility.yul\":6347:6667   */\n      swap2\n      swap1\n      pop\n      jump\t// out\n        /* \"#utility.yul\":6673:6853   */\n    tag_104:\n        /* \"#utility.yul\":6721:6798   */\n      0x4e487b7100000000000000000000000000000000000000000000000000000000\n        /* \"#utility.yul\":6718:6719   */\n      0x00\n        /* \"#utility.yul\":6711:6799   */\n      mstore\n        /* \"#utility.yul\":6818:6822   */\n      0x11\n        /* \"#utility.yul\":6815:6816   */\n      0x04\n        /* \"#utility.yul\":6808:6823   */\n      mstore\n        /* \"#utility.yul\":6842:6846   */\n      0x24\n        /* \"#utility.yul\":6839:6840   */\n      0x00\n        /* \"#utility.yul\":6832:6847   */\n      revert\n        /* \"#utility.yul\":6859:7050   */\n    tag_45:\n        /* \"#utility.yul\":6899:6902   */\n      0x00\n        /* \"#utility.yul\":6918:6938   */\n      tag_189\n        /* \"#utility.yul\":6936:6937   */\n      dup3\n        /* \"#utility.yul\":6918:6938   */\n      tag_87\n      jump\t// in\n    tag_189:\n        /* \"#utility.yul\":6913:6938   */\n      swap2\n      pop\n        /* \"#utility.yul\":6952:6972   */\n      tag_190\n        /* \"#utility.yul\":6970:6971   */\n      dup4\n        /* \"#utility.yul\":6952:6972   */\n      tag_87\n      jump\t// in\n    tag_190:\n        /* \"#utility.yul\":6947:6972   */\n      swap3\n      pop\n        /* \"#utility.yul\":6995:6996   */\n      dup3\n        /* \"#utility.yul\":6992:6993   */\n      dup3\n        /* \"#utility.yul\":6988:6997   */\n      add\n        /* \"#utility.yul\":6981:6997   */\n      swap1\n      pop\n        /* \"#utility.yul\":7016:7019   */\n      dup1\n        /* \"#utility.yul\":7013:7014   */\n      dup3\n        /* \"#utility.yul\":7010:7020   */\n      gt\n        /* \"#utility.yul\":7007:7043   */\n      iszero\n      tag_191\n      jumpi\n        /* \"#utility.yul\":7023:7041   */\n      tag_192\n      tag_104\n      jump\t// in\n    tag_192:\n        /* \"#utility.yul\":7007:7043   */\n    tag_191:\n        /* \"#utility.yul\":6859:7050   */\n      swap3\n      swap2\n      pop\n      pop\n      jump\t// out\n        /* \"#utility.yul\":7056:7289   */\n    tag_47:\n        /* \"#utility.yul\":7095:7098   */\n      0x00\n        /* \"#utility.yul\":7118:7142   */\n      tag_194\n        /* \"#utility.yul\":7136:7141   */\n      dup3\n        /* \"#utility.yul\":7118:7142   */\n      tag_87\n      jump\t// in\n    tag_194:\n        /* \"#utility.yul\":7109:7142   */\n      swap2\n      pop\n        /* \"#utility.yul\":7164:7230   */\n      0xffffffffffffffffffffffffffffffffffffffffffffffffffffffffffffffff\n        /* \"#utility.yul\":7157:7162   */\n      dup3\n        /* \"#utility.yul\":7154:7231   */\n      sub\n        /* \"#utility.yul\":7151:7254   */\n      tag_195\n      jumpi\n        /* \"#utility.yul\":7234:7252   */\n      tag_196\n      tag_104\n      jump\t// in\n    tag_196:\n        /* \"#utility.yul\":7151:7254   */\n    tag_195:\n        /* \"#utility.yul\":7281:7282   */\n      0x01\n        /* \"#utility.yul\":7274:7279   */\n      dup3\n        /* \"#utility.yul\":7270:7283   */\n      add\n        /* \"#utility.yul\":7263:7283   */\n      swap1\n      pop\n        /* \"#utility.yul\":7056:7289   */\n      swap2\n      swap1\n      pop\n      jump\t// out\n        /* \"#utility.yul\":7295:7391   */\n    tag_105:\n        /* \"#utility.yul\":7332:7339   */\n      0x00\n        /* \"#utility.yul\":7361:7385   */\n      tag_198\n        /* \"#utility.yul\":7379:7384   */\n      dup3\n        /* \"#utility.yul\":7361:7385   */\n      tag_95\n      jump\t// in\n    tag_198:\n        /* \"#utility.yul\":7350:7385   */\n      swap1\n      pop\n        /* \"#utility.yul\":7295:7391   */\n      swap2\n      swap1\n      pop\n      jump\t// out\n        /* \"#utility.yul\":7397:7515   */\n    tag_106:\n        /* \"#utility.yul\":7484:7508   */\n      tag_200\n        /* \"#utility.yul\":7502:7507   */\n      dup2\n        /* \"#utility.yul\":7484:7508   */\n      tag_105\n      jump\t// in\n    tag_200:\n        /* \"#utility.yul\":7479:7482   */\n      dup3\n        /* \"#utility.yul\":7472:7509   */\n      mstore\n        /* \"#utility.yul\":7397:7515   */\n      pop\n      pop\n      jump\t// out\n        /* \"#utility.yul\":7521:7963   */\n    tag_49:\n        /* \"#utility.yul\":7670:7674   */\n      0x00\n        /* \"#utility.yul\":7708:7710   */\n      0x60\n        /* \"#utility.yul\":7697:7706   */\n      dup3\n        /* \"#utility.yul\":7693:7711   */\n      add\n        /* \"#utility.yul\":7685:7711   */\n      swap1\n      pop\n        /* \"#utility.yul\":7721:7792   */\n      tag_202\n        /* \"#utility.yul\":7789:7790   */\n      0x00\n        /* \"#utility.yul\":7778:7787   */\n      dup4\n        /* \"#utility.yul\":7774:7791   */\n      add\n        /* \"#utility.yul\":7765:7771   */\n      dup7\n        /* \"#utility.yul\":7721:7792   */\n      tag_106\n      jump\t// in\n    tag_202:\n        /* \"#utility.yul\":7802:7874   */\n      tag_203\n        /* \"#utility.yul\":7870:7872   */\n      0x20\n        /* \"#utility.yul\":7859:7868   */\n      dup4\n        /* \"#utility.yul\":7855:7873   */\n      add\n        /* \"#utility.yul\":7846:7852   */\n      dup6\n        /* \"#utility.yul\":7802:7874   */\n      tag_98\n      jump\t// in\n    tag_203:\n        /* \"#utility.yul\":7884:7956   */\n      tag_204\n        /* \"#utility.yul\":7952:7954   */\n      0x40\n        /* \"#utility.yul\":7941:7950   */\n      dup4\n        /* \"#utility.yul\":7937:7955   */\n      add\n        /* \"#utility.yul\":7928:7934   */\n      dup5\n        /* \"#utility.yul\":7884:7956   */\n      tag_98\n      jump\t// in\n    tag_204:\n        /* \"#utility.yul\":7521:7963   */\n      swap5\n      swap4\n      pop\n      pop\n      pop\n      pop\n      jump\t// out\n        /* \"#utility.yul\":7969:8131   */\n    tag_107:\n        /* \"#utility.yul\":8109:8123   */\n      0x4e6f742061636365707465640000000000000000000000000000000000000000\n        /* \"#utility.yul\":8105:8106   */\n      0x00\n        /* \"#utility.yul\":8097:8103   */\n      dup3\n        /* \"#utility.yul\":8093:8107   */\n      add\n        /* \"#utility.yul\":8086:8124   */\n      mstore\n        /* \"#utility.yul\":7969:8131   */\n      pop\n      jump\t// out\n        /* \"#utility.yul\":8137:8503   */\n    tag_108:\n        /* \"#utility.yul\":8279:8282   */\n      0x00\n        /* \"#utility.yul\":8300:8367   */\n      tag_207\n        /* \"#utility.yul\":8364:8366   */\n      0x0c\n        /* \"#utility.yul\":8359:8362   */\n      dup4\n        /* \"#utility.yul\":8300:8367   */\n      tag_91\n      jump\t// in\n    tag_207:\n        /* \"#utility.yul\":8293:8367   */\n      swap2\n      pop\n        /* \"#utility.yul\":8376:8469   */\n      tag_208\n        /* \"#utility.yul\":8465:8468   */\n      dup3\n        /* \"#utility.yul\":8376:8469   */\n      tag_107\n      jump\t// in\n    tag_208:\n        /* \"#utility.yul\":8494:8496   */\n      0x20\n        /* \"#utility.yul\":8489:8492   */\n      dup3\n        /* \"#utility.yul\":8485:8497   */\n      add\n        /* \"#utility.yul\":8478:8497   */\n      swap1\n      pop\n        /* \"#utility.yul\":8137:8503   */\n      swap2\n      swap1\n      pop\n      jump\t// out\n        /* \"#utility.yul\":8509:8928   */\n    tag_59:\n        /* \"#utility.yul\":8675:8679   */\n      0x00\n        /* \"#utility.yul\":8713:8715   */\n      0x20\n        /* \"#utility.yul\":8702:8711   */\n      dup3\n        /* \"#utility.yul\":8698:8716   */\n      add\n        /* \"#utility.yul\":8690:8716   */\n      swap1\n      pop\n        /* \"#utility.yul\":8762:8771   */\n      dup2\n        /* \"#utility.yul\":8756:8760   */\n      dup2\n        /* \"#utility.yul\":8752:8772   */\n      sub\n        /* \"#utility.yul\":8748:8749   */\n      0x00\n        /* \"#utility.yul\":8737:8746   */\n      dup4\n        /* \"#utility.yul\":8733:8750   */\n      add\n        /* \"#utility.yul\":8726:8773   */\n      mstore\n        /* \"#utility.yul\":8790:8921   */\n      tag_210\n        /* \"#utility.yul\":8916:8920   */\n      dup2\n        /* \"#utility.yul\":8790:8921   */\n      tag_108\n      jump\t// in\n    tag_210:\n        /* \"#utility.yul\":8782:8921   */\n      swap1\n      pop\n        /* \"#utility.yul\":8509:8928   */\n      swap2\n      swap1\n      pop\n      jump\t// out\n        /* \"#utility.yul\":8934:9096   */\n    tag_109:\n        /* \"#utility.yul\":9074:9088   */\n      0x556e617574686f72697a65640000000000000000000000000000000000000000\n        /* \"#utility.yul\":9070:9071   */\n      0x00\n        /* \"#utility.yul\":9062:9068   */\n      dup3\n        /* \"#utility.yul\":9058:9072   */\n      add\n        /* \"#utility.yul\":9051:9089   */\n      mstore\n        /* \"#utility.yul\":8934:9096   */\n      pop\n      jump\t// out\n        /* \"#utility.yul\":9102:9468   */\n    tag_110:\n        /* \"#utility.yul\":9244:9247   */\n      0x00\n        /* \"#utility.yul\":9265:9332   */\n      tag_213\n        /* \"#utility.yul\":9329:9331   */\n      0x0c\n        /* \"#utility.yul\":9324:9327   */\n      dup4\n        /* \"#utility.yul\":9265:9332   */\n      tag_91\n      jump\t// in\n    tag_213:\n        /* \"#utility.yul\":9258:9332   */\n      swap2\n      pop\n        /* \"#utility.yul\":9341:9434   */\n      tag_214\n        /* \"#utility.yul\":9430:9433   */\n      dup3\n        /* \"#utility.yul\":9341:9434   */\n      tag_109\n      jump\t// in\n    tag_214:\n        /* \"#utility.yul\":9459:9461   */\n      0x20\n        /* \"#utility.yul\":9454:9457   */\n      dup3\n        /* \"#utility.yul\":9450:9462   */\n      add\n        /* \"#utility.yul\":9443:9462   */\n      swap1\n      pop\n        /* \"#utility.yul\":9102:9468   */\n      swap2\n      swap1\n      pop\n      jump\t// out\n        /* \"#utility.yul\":9474:9893   */\n    tag_66:\n        /* \"#utility.yul\":9640:9644   */\n      0x00\n        /* \"#utility.yul\":9678:9680   */\n      0x20\n        /* \"#utility.yul\":9667:9676   */\n      dup3\n        /* \"#utility.yul\":9663:9681   */\n      add\n        /* \"#utility.yul\":9655:9681   */\n      swap1\n      pop\n        /* \"#utility.yul\":9727:9736   */\n      dup2\n        /* \"#utility.yul\":9721:9725   */\n      dup2\n        /* \"#utility.yul\":9717:9737   */\n      sub\n        /* \"#utility.yul\":9713:9714   */\n      0x00\n        /* \"#utility.yul\":9702:9711   */\n      dup4\n        /* \"#utility.yul\":9698:9715   */\n      add\n        /* \"#utility.yul\":9691:9738   */\n      mstore\n        /* \"#utility.yul\":9755:9886   */\n      tag_216\n        /* \"#utility.yul\":9881:9885   */\n      dup2\n        /* \"#utility.yul\":9755:9886   */\n      tag_110\n      jump\t// in\n    tag_216:\n        /* \"#utility.yul\":9747:9886   */\n      swap1\n      pop\n        /* \"#utility.yul\":9474:9893   */\n      swap2\n      swap1\n      pop\n      jump\t// out\n        /* \"#utility.yul\":9899:10079   */\n    tag_70:\n        /* \"#utility.yul\":9947:10024   */\n      0x4e487b7100000000000000000000000000000000000000000000000000000000\n        /* \"#utility.yul\":9944:9945   */\n      0x00\n        /* \"#utility.yul\":9937:10025   */\n      mstore\n        /* \"#utility.yul\":10044:10048   */\n      0x32\n        /* \"#utility.yul\":10041:10042   */\n      0x04\n        /* \"#utility.yul\":10034:10049   */\n      mstore\n        /* \"#utility.yul\":10068:10072   */\n      0x24\n        /* \"#utility.yul\":10065:10066   */\n      0x00\n        /* \"#utility.yul\":10058:10073   */\n      revert\n        /* \"#utility.yul\":10085:10251   */\n    tag_111:\n        /* \"#utility.yul\":10225:10243   */\n      0x4174206c65617374206f6e652064617900000000000000000000000000000000\n        /* \"#utility.yul\":10221:10222   */\n      0x00\n        /* \"#utility.yul\":10213:10219   */\n      dup3\n        /* \"#utility.yul\":10209:10223   */\n      add\n        /* \"#utility.yul\":10202:10244   */\n      mstore\n        /* \"#utility.yul\":10085:10251   */\n      pop\n      jump\t// out\n        /* \"#utility.yul\":10257:10623   */\n    tag_112:\n        /* \"#utility.yul\":10399:10402   */\n      0x00\n        /* \"#utility.yul\":10420:10487   */\n      tag_220\n        /* \"#utility.yul\":10484:10486   */\n      0x10\n        /* \"#utility.yul\":10479:10482   */\n      dup4\n        /* \"#utility.yul\":10420:10487   */\n      tag_91\n      jump\t// in\n    tag_220:\n        /* \"#utility.yul\":10413:10487   */\n      swap2\n      pop\n        /* \"#utility.yul\":10496:10589   */\n      tag_221\n        /* \"#utility.yul\":10585:10588   */\n      dup3\n        /* \"#utility.yul\":10496:10589   */\n      tag_111\n      jump\t// in\n    tag_221:\n        /* \"#utility.yul\":10614:10616   */\n      0x20\n        /* \"#utility.yul\":10609:10612   */\n      dup3\n        /* \"#utility.yul\":10605:10617   */\n      add\n        /* \"#utility.yul\":10598:10617   */\n      swap1\n      pop\n        /* \"#utility.yul\":10257:10623   */\n      swap2\n      swap1\n      pop\n      jump\t// out\n        /* \"#utility.yul\":10629:11048   */\n    tag_79:\n        /* \"#utility.yul\":10795:10799   */\n      0x00\n        /* \"#utility.yul\":10833:10835   */\n      0x20\n        /* \"#utility.yul\":10822:10831   */\n      dup3\n        /* \"#utility.yul\":10818:10836   */\n      add\n        /* \"#utility.yul\":10810:10836   */\n      swap1\n      pop\n        /* \"#utility.yul\":10882:10891   */\n      dup2\n        /* \"#utility.yul\":10876:10880   */\n      dup2\n        /* \"#utility.yul\":10872:10892   */\n      sub\n        /* \"#utility.yul\":10868:10869   */\n      0x00\n        /* \"#utility.yul\":10857:10866   */\n      dup4\n        /* \"#utility.yul\":10853:10870   */\n      add\n        /* \"#utility.yul\":10846:10893   */\n      mstore\n        /* \"#utility.yul\":10910:11041   */\n      tag_223\n        /* \"#utility.yul\":11036:11040   */\n      dup2\n        /* \"#utility.yul\":10910:11041   */\n      tag_112\n      jump\t// in\n    tag_223:\n        /* \"#utility.yul\":10902:11041   */\n      swap1\n      pop\n        /* \"#utility.yul\":10629:11048   */\n      swap2\n      swap1\n      pop\n      jump\t// out\n        /* \"#utility.yul\":11054:11200   */\n    tag_113:\n        /* \"#utility.yul\":11151:11157   */\n      dup3\n        /* \"#utility.yul\":11146:11149   */\n      dup2\n        /* \"#utility.yul\":11141:11144   */\n      dup4\n        /* \"#utility.yul\":11128:11158   */\n      calldatacopy\n        /* \"#utility.yul\":11192:11193   */\n      0x00\n        /* \"#utility.yul\":11183:11189   */\n      dup4\n        /* \"#utility.yul\":11178:11181   */\n      dup4\n        /* \"#utility.yul\":11174:11190   */\n      add\n        /* \"#utility.yul\":11167:11194   */\n      mstore\n        /* \"#utility.yul\":11054:11200   */\n      pop\n      pop\n      pop\n      jump\t// out\n        /* \"#utility.yul\":11230:11547   */\n    tag_114:\n        /* \"#utility.yul\":11328:11331   */\n      0x00\n        /* \"#utility.yul\":11349:11420   */\n      tag_226\n        /* \"#utility.yul\":11413:11419   */\n      dup4\n        /* \"#utility.yul\":11408:11411   */\n      dup6\n        /* \"#utility.yul\":11349:11420   */\n      tag_91\n      jump\t// in\n    tag_226:\n        /* \"#utility.yul\":11342:11420   */\n      swap4\n      pop\n        /* \"#utility.yul\":11430:11486   */\n      tag_227\n        /* \"#utility.yul\":11479:11485   */\n      dup4\n        /* \"#utility.yul\":11474:11477   */\n      dup6\n        /* \"#utility.yul\":11467:11472   */\n      dup5\n        /* \"#utility.yul\":11430:11486   */\n      tag_113\n      jump\t// in\n    tag_227:\n        /* \"#utility.yul\":11511:11540   */\n      tag_228\n        /* \"#utility.yul\":11533:11539   */\n      dup4\n        /* \"#utility.yul\":11511:11540   */\n      tag_93\n      jump\t// in\n    tag_228:\n        /* \"#utility.yul\":11506:11509   */\n      dup5\n        /* \"#utility.yul\":11502:11541   */\n      add\n        /* \"#utility.yul\":11495:11541   */\n      swap1\n      pop\n        /* \"#utility.yul\":11230:11547   */\n      swap4\n      swap3\n      pop\n      pop\n      pop\n      jump\t// out\n        /* \"#utility.yul\":11553:12217   */\n    tag_82:\n        /* \"#utility.yul\":11760:11764   */\n      0x00\n        /* \"#utility.yul\":11798:11801   */\n      0x80\n        /* \"#utility.yul\":11787:11796   */\n      dup3\n        /* \"#utility.yul\":11783:11802   */\n      add\n        /* \"#utility.yul\":11775:11802   */\n      swap1\n      pop\n        /* \"#utility.yul\":11812:11883   */\n      tag_230\n        /* \"#utility.yul\":11880:11881   */\n      0x00\n        /* \"#utility.yul\":11869:11878   */\n      dup4\n        /* \"#utility.yul\":11865:11882   */\n      add\n        /* \"#utility.yul\":11856:11862   */\n      dup9\n        /* \"#utility.yul\":11812:11883   */\n      tag_106\n      jump\t// in\n    tag_230:\n        /* \"#utility.yul\":11930:11939   */\n      dup2\n        /* \"#utility.yul\":11924:11928   */\n      dup2\n        /* \"#utility.yul\":11920:11940   */\n      sub\n        /* \"#utility.yul\":11915:11917   */\n      0x20\n        /* \"#utility.yul\":11904:11913   */\n      dup4\n        /* \"#utility.yul\":11900:11918   */\n      add\n        /* \"#utility.yul\":11893:11941   */\n      mstore\n        /* \"#utility.yul\":11958:12046   */\n      tag_231\n        /* \"#utility.yul\":12041:12045   */\n      dup2\n        /* \"#utility.yul\":12032:12038   */\n      dup7\n        /* \"#utility.yul\":12024:12030   */\n      dup9\n        /* \"#utility.yul\":11958:12046   */\n      tag_114\n      jump\t// in\n    tag_231:\n        /* \"#utility.yul\":11950:12046   */\n      swap1\n      pop\n        /* \"#utility.yul\":12056:12128   */\n      tag_232\n        /* \"#utility.yul\":12124:12126   */\n      0x40\n        /* \"#utility.yul\":12113:12122   */\n      dup4\n        /* \"#utility.yul\":12109:12127   */\n      add\n        /* \"#utility.yul\":12100:12106   */\n      dup6\n        /* \"#utility.yul\":12056:12128   */\n      tag_98\n      jump\t// in\n    tag_232:\n        /* \"#utility.yul\":12138:12210   */\n      tag_233\n        /* \"#utility.yul\":12206:12208   */\n      0x60\n        /* \"#utility.yul\":12195:12204   */\n      dup4\n        /* \"#utility.yul\":12191:12209   */\n      add\n        /* \"#utility.yul\":12182:12188   */\n      dup5\n        /* \"#utility.yul\":12138:12210   */\n      tag_98\n      jump\t// in\n    tag_233:\n        /* \"#utility.yul\":11553:12217   */\n      swap7\n      swap6\n      pop\n      pop\n      pop\n      pop\n      pop\n      pop\n      jump\t// out\n\n    auxdata: 0xa264697066735822122070d49277f678560b482143c98ef6927eb3fc9f2eae8250ba3a786ec9e850861a64736f6c63430008110033\n}\n",
				"bytecode": {
					"linkReferences": {},
					"object": "608060405260008055600060015534801561001957600080fd5b5061124e806100296000396000f3fe6080604052600436106100555760003560e01c8063474da79a1461005a5780636328febc1461009f5780636e24f037146100bb5780637e0b8ff0146100e457806381257bd514610100578063a962fb3914610129575b600080fd5b34801561006657600080fd5b50610081600480360381019061007c9190610bf7565b610159565b60405161009699989796959493929190610d04565b60405180910390f35b6100b960048036038101906100b49190610d98565b61026f565b005b3480156100c757600080fd5b506100e260048036038101906100dd9190610bf7565b6103bc565b005b6100fe60048036038101906100f99190610bf7565b6106e5565b005b34801561010c57600080fd5b5061012760048036038101906101229190610d98565b610866565b005b610143600480360381019061013e9190610e3d565b610ae7565b6040516101509190610e9d565b60405180910390f35b600260205280600052604060002060009150905080600001805461017c90610ee7565b80601f01602080910402602001604051908101604052809291908181526020018280546101a890610ee7565b80156101f55780601f106101ca576101008083540402835291602001916101f5565b820191906000526020600020905b8154815290600101906020018083116101d857829003601f168201915b5050505050908060010160009054906101000a900473ffffffffffffffffffffffffffffffffffffffff16908060020160009054906101000a900473ffffffffffffffffffffffffffffffffffffffff16908060030154908060040154908060050154908060060154908060070154908060080154905089565b6002600083815260200190815260200160002060090160405180608001604052803481526020018381526020013373ffffffffffffffffffffffffffffffffffffffff1681526020016000548152509080600181540180825580915050600190039060005260206000209060040201600090919091909150600082015181600001556020820151816001015560408201518160020160006101000a81548173ffffffffffffffffffffffffffffffffffffffff021916908373ffffffffffffffffffffffffffffffffffffffff16021790555060608201518160030155505034600160008282546103609190610f47565b9250508190555060008081548092919061037990610f7b565b919050557fbd50812ed14fe4caeab6a9edec79c48f0cb0efa5a704560c6b8d66bd60e0cfe93383346040516103b093929190610fe4565b60405180910390a25050565b6002600082815260200190815260200160002060010160009054906101000a900473ffffffffffffffffffffffffffffffffffffffff1673ffffffffffffffffffffffffffffffffffffffff163373ffffffffffffffffffffffffffffffffffffffff1614801561048f5750600073ffffffffffffffffffffffffffffffffffffffff166003600083815260200190815260200160002060000160029054906101000a900473ffffffffffffffffffffffffffffffffffffffff1673ffffffffffffffffffffffffffffffffffffffff16145b1561054f576002600082815260200190815260200160002060020160009054906101000a900473ffffffffffffffffffffffffffffffffffffffff166003600083815260200190815260200160002060000160026101000a81548173ffffffffffffffffffffffffffffffffffffffff021916908373ffffffffffffffffffffffffffffffffffffffff16021790555060016003600083815260200190815260200160002060000160006101000a81548160ff0219169083151502179055505b6002600082815260200190815260200160002060020160009054906101000a900473ffffffffffffffffffffffffffffffffffffffff1673ffffffffffffffffffffffffffffffffffffffff163373ffffffffffffffffffffffffffffffffffffffff161480156106225750600073ffffffffffffffffffffffffffffffffffffffff166003600083815260200190815260200160002060000160029054906101000a900473ffffffffffffffffffffffffffffffffffffffff1673ffffffffffffffffffffffffffffffffffffffff16145b156106e2576002600082815260200190815260200160002060010160009054906101000a900473ffffffffffffffffffffffffffffffffffffffff166003600083815260200190815260200160002060000160026101000a81548173ffffffffffffffffffffffffffffffffffffffff021916908373ffffffffffffffffffffffffffffffffffffffff16021790555060016003600083815260200190815260200160002060000160016101000a81548160ff0219169083151502179055505b50565b600115156003600083815260200190815260200160002060000160019054906101000a900460ff1615151480156107435750600115156003600083815260200190815260200160002060000160009054906101000a900460ff161515145b610782576040517f08c379a000000000000000000000000000000000000000000000000000000000815260040161077990611067565b60405180910390fd5b6003600082815260200190815260200160002060000160029054906101000a900473ffffffffffffffffffffffffffffffffffffffff1673ffffffffffffffffffffffffffffffffffffffff166108fc6002600084815260200190815260200160002060070154600260008581526020019081526020016000206006015461080a9190610f47565b9081150290604051600060405180830381858888f19350505050158015610835573d6000803e3d6000fd5b50807f27b37245d19baa7036fac055ec38822b4f3527322bf579a64b862a89459bd0b760405160405180910390a250565b806002600082815260200190815260200160002060010160009054906101000a900473ffffffffffffffffffffffffffffffffffffffff1673ffffffffffffffffffffffffffffffffffffffff163373ffffffffffffffffffffffffffffffffffffffff161461090b576040517f08c379a0000000000000000000000000000000000000000000000000000000008152600401610902906110d3565b60405180910390fd5b600260008381526020019081526020016000206009018381548110610933576109326110f3565b5b9060005260206000209060040201600001546002600084815260200190815260200160002060070181905550600260008381526020019081526020016000206009018381548110610987576109866110f3565b5b906000526020600020906004020160020160009054906101000a900473ffffffffffffffffffffffffffffffffffffffff166002600084815260200190815260200160002060020160006101000a81548173ffffffffffffffffffffffffffffffffffffffff021916908373ffffffffffffffffffffffffffffffffffffffff1602179055506040518060600160405280600015158152602001600015158152602001600073ffffffffffffffffffffffffffffffffffffffff168152506003600084815260200190815260200160002060008201518160000160006101000a81548160ff02191690831515021790555060208201518160000160016101000a81548160ff02191690831515021790555060408201518160000160026101000a81548173ffffffffffffffffffffffffffffffffffffffff021916908373ffffffffffffffffffffffffffffffffffffffff160217905550905050505050565b60006201518042610af89190610f47565b8211610b39576040517f08c379a0000000000000000000000000000000000000000000000000000000008152600401610b309061116e565b60405180910390fd5b3460016000828254610b4b9190610f47565b925050819055506000547fffb39da08503bbf77fd07dd25e2cd85029abeb9618ee7fd7aa5adc468a51ffe23386868634604051610b8c9594939291906111ca565b60405180910390a2600080815480929190610ba690610f7b565b919050555060005490509392505050565b600080fd5b600080fd5b6000819050919050565b610bd481610bc1565b8114610bdf57600080fd5b50565b600081359050610bf181610bcb565b92915050565b600060208284031215610c0d57610c0c610bb7565b5b6000610c1b84828501610be2565b91505092915050565b600081519050919050565b600082825260208201905092915050565b60005b83811015610c5e578082015181840152602081019050610c43565b60008484015250505050565b6000601f19601f8301169050919050565b6000610c8682610c24565b610c908185610c2f565b9350610ca0818560208601610c40565b610ca981610c6a565b840191505092915050565b600073ffffffffffffffffffffffffffffffffffffffff82169050919050565b6000610cdf82610cb4565b9050919050565b610cef81610cd4565b82525050565b610cfe81610bc1565b82525050565b6000610120820190508181036000830152610d1f818c610c7b565b9050610d2e602083018b610ce6565b610d3b604083018a610ce6565b610d486060830189610cf5565b610d556080830188610cf5565b610d6260a0830187610cf5565b610d6f60c0830186610cf5565b610d7c60e0830185610cf5565b610d8a610100830184610cf5565b9a9950505050505050505050565b60008060408385031215610daf57610dae610bb7565b5b6000610dbd85828601610be2565b9250506020610dce85828601610be2565b9150509250929050565b600080fd5b600080fd5b600080fd5b60008083601f840112610dfd57610dfc610dd8565b5b8235905067ffffffffffffffff811115610e1a57610e19610ddd565b5b602083019150836001820283011115610e3657610e35610de2565b5b9250929050565b600080600060408486031215610e5657610e55610bb7565b5b600084013567ffffffffffffffff811115610e7457610e73610bbc565b5b610e8086828701610de7565b93509350506020610e9386828701610be2565b9150509250925092565b6000602082019050610eb26000830184610cf5565b92915050565b7f4e487b7100000000000000000000000000000000000000000000000000000000600052602260045260246000fd5b60006002820490506001821680610eff57607f821691505b602082108103610f1257610f11610eb8565b5b50919050565b7f4e487b7100000000000000000000000000000000000000000000000000000000600052601160045260246000fd5b6000610f5282610bc1565b9150610f5d83610bc1565b9250828201905080821115610f7557610f74610f18565b5b92915050565b6000610f8682610bc1565b91507fffffffffffffffffffffffffffffffffffffffffffffffffffffffffffffffff8203610fb857610fb7610f18565b5b600182019050919050565b6000610fce82610cb4565b9050919050565b610fde81610fc3565b82525050565b6000606082019050610ff96000830186610fd5565b6110066020830185610cf5565b6110136040830184610cf5565b949350505050565b7f4e6f742061636365707465640000000000000000000000000000000000000000600082015250565b6000611051600c83610c2f565b915061105c8261101b565b602082019050919050565b6000602082019050818103600083015261108081611044565b9050919050565b7f556e617574686f72697a65640000000000000000000000000000000000000000600082015250565b60006110bd600c83610c2f565b91506110c882611087565b602082019050919050565b600060208201905081810360008301526110ec816110b0565b9050919050565b7f4e487b7100000000000000000000000000000000000000000000000000000000600052603260045260246000fd5b7f4174206c65617374206f6e652064617900000000000000000000000000000000600082015250565b6000611158601083610c2f565b915061116382611122565b602082019050919050565b600060208201905081810360008301526111878161114b565b9050919050565b82818337600083830152505050565b60006111a98385610c2f565b93506111b683858461118e565b6111bf83610c6a565b840190509392505050565b60006080820190506111df6000830188610fd5565b81810360208301526111f281868861119d565b90506112016040830185610cf5565b61120e6060830184610cf5565b969550505050505056fea264697066735822122070d49277f678560b482143c98ef6927eb3fc9f2eae8250ba3a786ec9e850861a64736f6c63430008110033",
					"opcodes": "PUSH1 0x80 PUSH1 0x40 MSTORE PUSH1 0x0 DUP1 SSTORE PUSH1 0x0 PUSH1 0x1 SSTORE CALLVALUE DUP1 ISZERO PUSH2 0x19 JUMPI PUSH1 0x0 DUP1 REVERT JUMPDEST POP PUSH2 0x124E DUP1 PUSH2 0x29 PUSH1 0x0 CODECOPY PUSH1 0x0 RETURN INVALID PUSH1 0x80 PUSH1 0x40 MSTORE PUSH1 0x4 CALLDATASIZE LT PUSH2 0x55 JUMPI PUSH1 0x0 CALLDATALOAD PUSH1 0xE0 SHR DUP1 PUSH4 0x474DA79A EQ PUSH2 0x5A JUMPI DUP1 PUSH4 0x6328FEBC EQ PUSH2 0x9F JUMPI DUP1 PUSH4 0x6E24F037 EQ PUSH2 0xBB JUMPI DUP1 PUSH4 0x7E0B8FF0 EQ PUSH2 0xE4 JUMPI DUP1 PUSH4 0x81257BD5 EQ PUSH2 0x100 JUMPI DUP1 PUSH4 0xA962FB39 EQ PUSH2 0x129 JUMPI JUMPDEST PUSH1 0x0 DUP1 REVERT JUMPDEST CALLVALUE DUP1 ISZERO PUSH2 0x66 JUMPI PUSH1 0x0 DUP1 REVERT JUMPDEST POP PUSH2 0x81 PUSH1 0x4 DUP1 CALLDATASIZE SUB DUP2 ADD SWAP1 PUSH2 0x7C SWAP2 SWAP1 PUSH2 0xBF7 JUMP JUMPDEST PUSH2 0x159 JUMP JUMPDEST PUSH1 0x40 MLOAD PUSH2 0x96 SWAP10 SWAP9 SWAP8 SWAP7 SWAP6 SWAP5 SWAP4 SWAP3 SWAP2 SWAP1 PUSH2 0xD04 JUMP JUMPDEST PUSH1 0x40 MLOAD DUP1 SWAP2 SUB SWAP1 RETURN JUMPDEST PUSH2 0xB9 PUSH1 0x4 DUP1 CALLDATASIZE SUB DUP2 ADD SWAP1 PUSH2 0xB4 SWAP2 SWAP1 PUSH2 0xD98 JUMP JUMPDEST PUSH2 0x26F JUMP JUMPDEST STOP JUMPDEST CALLVALUE DUP1 ISZERO PUSH2 0xC7 JUMPI PUSH1 0x0 DUP1 REVERT JUMPDEST POP PUSH2 0xE2 PUSH1 0x4 DUP1 CALLDATASIZE SUB DUP2 ADD SWAP1 PUSH2 0xDD SWAP2 SWAP1 PUSH2 0xBF7 JUMP JUMPDEST PUSH2 0x3BC JUMP JUMPDEST STOP JUMPDEST PUSH2 0xFE PUSH1 0x4 DUP1 CALLDATASIZE SUB DUP2 ADD SWAP1 PUSH2 0xF9 SWAP2 SWAP1 PUSH2 0xBF7 JUMP JUMPDEST PUSH2 0x6E5 JUMP JUMPDEST STOP JUMPDEST CALLVALUE DUP1 ISZERO PUSH2 0x10C JUMPI PUSH1 0x0 DUP1 REVERT JUMPDEST POP PUSH2 0x127 PUSH1 0x4 DUP1 CALLDATASIZE SUB DUP2 ADD SWAP1 PUSH2 0x122 SWAP2 SWAP1 PUSH2 0xD98 JUMP JUMPDEST PUSH2 0x866 JUMP JUMPDEST STOP JUMPDEST PUSH2 0x143 PUSH1 0x4 DUP1 CALLDATASIZE SUB DUP2 ADD SWAP1 PUSH2 0x13E SWAP2 SWAP1 PUSH2 0xE3D JUMP JUMPDEST PUSH2 0xAE7 JUMP JUMPDEST PUSH1 0x40 MLOAD PUSH2 0x150 SWAP2 SWAP1 PUSH2 0xE9D JUMP JUMPDEST PUSH1 0x40 MLOAD DUP1 SWAP2 SUB SWAP1 RETURN JUMPDEST PUSH1 0x2 PUSH1 0x20 MSTORE DUP1 PUSH1 0x0 MSTORE PUSH1 0x40 PUSH1 0x0 KECCAK256 PUSH1 0x0 SWAP2 POP SWAP1 POP DUP1 PUSH1 0x0 ADD DUP1 SLOAD PUSH2 0x17C SWAP1 PUSH2 0xEE7 JUMP JUMPDEST DUP1 PUSH1 0x1F ADD PUSH1 0x20 DUP1 SWAP2 DIV MUL PUSH1 0x20 ADD PUSH1 0x40 MLOAD SWAP1 DUP2 ADD PUSH1 0x40 MSTORE DUP1 SWAP3 SWAP2 SWAP1 DUP2 DUP2 MSTORE PUSH1 0x20 ADD DUP3 DUP1 SLOAD PUSH2 0x1A8 SWAP1 PUSH2 0xEE7 JUMP JUMPDEST DUP1 ISZERO PUSH2 0x1F5 JUMPI DUP1 PUSH1 0x1F LT PUSH2 0x1CA JUMPI PUSH2 0x100 DUP1 DUP4 SLOAD DIV MUL DUP4 MSTORE SWAP2 PUSH1 0x20 ADD SWAP2 PUSH2 0x1F5 JUMP JUMPDEST DUP3 ADD SWAP2 SWAP1 PUSH1 0x0 MSTORE PUSH1 0x20 PUSH1 0x0 KECCAK256 SWAP1 JUMPDEST DUP2 SLOAD DUP2 MSTORE SWAP1 PUSH1 0x1 ADD SWAP1 PUSH1 0x20 ADD DUP1 DUP4 GT PUSH2 0x1D8 JUMPI DUP3 SWAP1 SUB PUSH1 0x1F AND DUP3 ADD SWAP2 JUMPDEST POP POP POP POP POP SWAP1 DUP1 PUSH1 0x1 ADD PUSH1 0x0 SWAP1 SLOAD SWAP1 PUSH2 0x100 EXP SWAP1 DIV PUSH20 0xFFFFFFFFFFFFFFFFFFFFFFFFFFFFFFFFFFFFFFFF AND SWAP1 DUP1 PUSH1 0x2 ADD PUSH1 0x0 SWAP1 SLOAD SWAP1 PUSH2 0x100 EXP SWAP1 DIV PUSH20 0xFFFFFFFFFFFFFFFFFFFFFFFFFFFFFFFFFFFFFFFF AND SWAP1 DUP1 PUSH1 0x3 ADD SLOAD SWAP1 DUP1 PUSH1 0x4 ADD SLOAD SWAP1 DUP1 PUSH1 0x5 ADD SLOAD SWAP1 DUP1 PUSH1 0x6 ADD SLOAD SWAP1 DUP1 PUSH1 0x7 ADD SLOAD SWAP1 DUP1 PUSH1 0x8 ADD SLOAD SWAP1 POP DUP10 JUMP JUMPDEST PUSH1 0x2 PUSH1 0x0 DUP4 DUP2 MSTORE PUSH1 0x20 ADD SWAP1 DUP2 MSTORE PUSH1 0x20 ADD PUSH1 0x0 KECCAK256 PUSH1 0x9 ADD PUSH1 0x40 MLOAD DUP1 PUSH1 0x80 ADD PUSH1 0x40 MSTORE DUP1 CALLVALUE DUP2 MSTORE PUSH1 0x20 ADD DUP4 DUP2 MSTORE PUSH1 0x20 ADD CALLER PUSH20 0xFFFFFFFFFFFFFFFFFFFFFFFFFFFFFFFFFFFFFFFF AND DUP2 MSTORE PUSH1 0x20 ADD PUSH1 0x0 SLOAD DUP2 MSTORE POP SWAP1 DUP1 PUSH1 0x1 DUP2 SLOAD ADD DUP1 DUP3 SSTORE DUP1 SWAP2 POP POP PUSH1 0x1 SWAP1 SUB SWAP1 PUSH1 0x0 MSTORE PUSH1 0x20 PUSH1 0x0 KECCAK256 SWAP1 PUSH1 0x4 MUL ADD PUSH1 0x0 SWAP1 SWAP2 SWAP1 SWAP2 SWAP1 SWAP2 POP PUSH1 0x0 DUP3 ADD MLOAD DUP2 PUSH1 0x0 ADD SSTORE PUSH1 0x20 DUP3 ADD MLOAD DUP2 PUSH1 0x1 ADD SSTORE PUSH1 0x40 DUP3 ADD MLOAD DUP2 PUSH1 0x2 ADD PUSH1 0x0 PUSH2 0x100 EXP DUP2 SLOAD DUP2 PUSH20 0xFFFFFFFFFFFFFFFFFFFFFFFFFFFFFFFFFFFFFFFF MUL NOT AND SWAP1 DUP4 PUSH20 0xFFFFFFFFFFFFFFFFFFFFFFFFFFFFFFFFFFFFFFFF AND MUL OR SWAP1 SSTORE POP PUSH1 0x60 DUP3 ADD MLOAD DUP2 PUSH1 0x3 ADD SSTORE POP POP CALLVALUE PUSH1 0x1 PUSH1 0x0 DUP3 DUP3 SLOAD PUSH2 0x360 SWAP2 SWAP1 PUSH2 0xF47 JUMP JUMPDEST SWAP3 POP POP DUP2 SWAP1 SSTORE POP PUSH1 0x0 DUP1 DUP2 SLOAD DUP1 SWAP3 SWAP2 SWAP1 PUSH2 0x379 SWAP1 PUSH2 0xF7B JUMP JUMPDEST SWAP2 SWAP1 POP SSTORE PUSH32 0xBD50812ED14FE4CAEAB6A9EDEC79C48F0CB0EFA5A704560C6B8D66BD60E0CFE9 CALLER DUP4 CALLVALUE PUSH1 0x40 MLOAD PUSH2 0x3B0 SWAP4 SWAP3 SWAP2 SWAP1 PUSH2 0xFE4 JUMP JUMPDEST PUSH1 0x40 MLOAD DUP1 SWAP2 SUB SWAP1 LOG2 POP POP JUMP JUMPDEST PUSH1 0x2 PUSH1 0x0 DUP3 DUP2 MSTORE PUSH1 0x20 ADD SWAP1 DUP2 MSTORE PUSH1 0x20 ADD PUSH1 0x0 KECCAK256 PUSH1 0x1 ADD PUSH1 0x0 SWAP1 SLOAD SWAP1 PUSH2 0x100 EXP SWAP1 DIV PUSH20 0xFFFFFFFFFFFFFFFFFFFFFFFFFFFFFFFFFFFFFFFF AND PUSH20 0xFFFFFFFFFFFFFFFFFFFFFFFFFFFFFFFFFFFFFFFF AND CALLER PUSH20 0xFFFFFFFFFFFFFFFFFFFFFFFFFFFFFFFFFFFFFFFF AND EQ DUP1 ISZERO PUSH2 0x48F JUMPI POP PUSH1 0x0 PUSH20 0xFFFFFFFFFFFFFFFFFFFFFFFFFFFFFFFFFFFFFFFF AND PUSH1 0x3 PUSH1 0x0 DUP4 DUP2 MSTORE PUSH1 0x20 ADD SWAP1 DUP2 MSTORE PUSH1 0x20 ADD PUSH1 0x0 KECCAK256 PUSH1 0x0 ADD PUSH1 0x2 SWAP1 SLOAD SWAP1 PUSH2 0x100 EXP SWAP1 DIV PUSH20 0xFFFFFFFFFFFFFFFFFFFFFFFFFFFFFFFFFFFFFFFF AND PUSH20 0xFFFFFFFFFFFFFFFFFFFFFFFFFFFFFFFFFFFFFFFF AND EQ JUMPDEST ISZERO PUSH2 0x54F JUMPI PUSH1 0x2 PUSH1 0x0 DUP3 DUP2 MSTORE PUSH1 0x20 ADD SWAP1 DUP2 MSTORE PUSH1 0x20 ADD PUSH1 0x0 KECCAK256 PUSH1 0x2 ADD PUSH1 0x0 SWAP1 SLOAD SWAP1 PUSH2 0x100 EXP SWAP1 DIV PUSH20 0xFFFFFFFFFFFFFFFFFFFFFFFFFFFFFFFFFFFFFFFF AND PUSH1 0x3 PUSH1 0x0 DUP4 DUP2 MSTORE PUSH1 0x20 ADD SWAP1 DUP2 MSTORE PUSH1 0x20 ADD PUSH1 0x0 KECCAK256 PUSH1 0x0 ADD PUSH1 0x2 PUSH2 0x100 EXP DUP2 SLOAD DUP2 PUSH20 0xFFFFFFFFFFFFFFFFFFFFFFFFFFFFFFFFFFFFFFFF MUL NOT AND SWAP1 DUP4 PUSH20 0xFFFFFFFFFFFFFFFFFFFFFFFFFFFFFFFFFFFFFFFF AND MUL OR SWAP1 SSTORE POP PUSH1 0x1 PUSH1 0x3 PUSH1 0x0 DUP4 DUP2 MSTORE PUSH1 0x20 ADD SWAP1 DUP2 MSTORE PUSH1 0x20 ADD PUSH1 0x0 KECCAK256 PUSH1 0x0 ADD PUSH1 0x0 PUSH2 0x100 EXP DUP2 SLOAD DUP2 PUSH1 0xFF MUL NOT AND SWAP1 DUP4 ISZERO ISZERO MUL OR SWAP1 SSTORE POP JUMPDEST PUSH1 0x2 PUSH1 0x0 DUP3 DUP2 MSTORE PUSH1 0x20 ADD SWAP1 DUP2 MSTORE PUSH1 0x20 ADD PUSH1 0x0 KECCAK256 PUSH1 0x2 ADD PUSH1 0x0 SWAP1 SLOAD SWAP1 PUSH2 0x100 EXP SWAP1 DIV PUSH20 0xFFFFFFFFFFFFFFFFFFFFFFFFFFFFFFFFFFFFFFFF AND PUSH20 0xFFFFFFFFFFFFFFFFFFFFFFFFFFFFFFFFFFFFFFFF AND CALLER PUSH20 0xFFFFFFFFFFFFFFFFFFFFFFFFFFFFFFFFFFFFFFFF AND EQ DUP1 ISZERO PUSH2 0x622 JUMPI POP PUSH1 0x0 PUSH20 0xFFFFFFFFFFFFFFFFFFFFFFFFFFFFFFFFFFFFFFFF AND PUSH1 0x3 PUSH1 0x0 DUP4 DUP2 MSTORE PUSH1 0x20 ADD SWAP1 DUP2 MSTORE PUSH1 0x20 ADD PUSH1 0x0 KECCAK256 PUSH1 0x0 ADD PUSH1 0x2 SWAP1 SLOAD SWAP1 PUSH2 0x100 EXP SWAP1 DIV PUSH20 0xFFFFFFFFFFFFFFFFFFFFFFFFFFFFFFFFFFFFFFFF AND PUSH20 0xFFFFFFFFFFFFFFFFFFFFFFFFFFFFFFFFFFFFFFFF AND EQ JUMPDEST ISZERO PUSH2 0x6E2 JUMPI PUSH1 0x2 PUSH1 0x0 DUP3 DUP2 MSTORE PUSH1 0x20 ADD SWAP1 DUP2 MSTORE PUSH1 0x20 ADD PUSH1 0x0 KECCAK256 PUSH1 0x1 ADD PUSH1 0x0 SWAP1 SLOAD SWAP1 PUSH2 0x100 EXP SWAP1 DIV PUSH20 0xFFFFFFFFFFFFFFFFFFFFFFFFFFFFFFFFFFFFFFFF AND PUSH1 0x3 PUSH1 0x0 DUP4 DUP2 MSTORE PUSH1 0x20 ADD SWAP1 DUP2 MSTORE PUSH1 0x20 ADD PUSH1 0x0 KECCAK256 PUSH1 0x0 ADD PUSH1 0x2 PUSH2 0x100 EXP DUP2 SLOAD DUP2 PUSH20 0xFFFFFFFFFFFFFFFFFFFFFFFFFFFFFFFFFFFFFFFF MUL NOT AND SWAP1 DUP4 PUSH20 0xFFFFFFFFFFFFFFFFFFFFFFFFFFFFFFFFFFFFFFFF AND MUL OR SWAP1 SSTORE POP PUSH1 0x1 PUSH1 0x3 PUSH1 0x0 DUP4 DUP2 MSTORE PUSH1 0x20 ADD SWAP1 DUP2 MSTORE PUSH1 0x20 ADD PUSH1 0x0 KECCAK256 PUSH1 0x0 ADD PUSH1 0x1 PUSH2 0x100 EXP DUP2 SLOAD DUP2 PUSH1 0xFF MUL NOT AND SWAP1 DUP4 ISZERO ISZERO MUL OR SWAP1 SSTORE POP JUMPDEST POP JUMP JUMPDEST PUSH1 0x1 ISZERO ISZERO PUSH1 0x3 PUSH1 0x0 DUP4 DUP2 MSTORE PUSH1 0x20 ADD SWAP1 DUP2 MSTORE PUSH1 0x20 ADD PUSH1 0x0 KECCAK256 PUSH1 0x0 ADD PUSH1 0x1 SWAP1 SLOAD SWAP1 PUSH2 0x100 EXP SWAP1 DIV PUSH1 0xFF AND ISZERO ISZERO EQ DUP1 ISZERO PUSH2 0x743 JUMPI POP PUSH1 0x1 ISZERO ISZERO PUSH1 0x3 PUSH1 0x0 DUP4 DUP2 MSTORE PUSH1 0x20 ADD SWAP1 DUP2 MSTORE PUSH1 0x20 ADD PUSH1 0x0 KECCAK256 PUSH1 0x0 ADD PUSH1 0x0 SWAP1 SLOAD SWAP1 PUSH2 0x100 EXP SWAP1 DIV PUSH1 0xFF AND ISZERO ISZERO EQ JUMPDEST PUSH2 0x782 JUMPI PUSH1 0x40 MLOAD PUSH32 0x8C379A000000000000000000000000000000000000000000000000000000000 DUP2 MSTORE PUSH1 0x4 ADD PUSH2 0x779 SWAP1 PUSH2 0x1067 JUMP JUMPDEST PUSH1 0x40 MLOAD DUP1 SWAP2 SUB SWAP1 REVERT JUMPDEST PUSH1 0x3 PUSH1 0x0 DUP3 DUP2 MSTORE PUSH1 0x20 ADD SWAP1 DUP2 MSTORE PUSH1 0x20 ADD PUSH1 0x0 KECCAK256 PUSH1 0x0 ADD PUSH1 0x2 SWAP1 SLOAD SWAP1 PUSH2 0x100 EXP SWAP1 DIV PUSH20 0xFFFFFFFFFFFFFFFFFFFFFFFFFFFFFFFFFFFFFFFF AND PUSH20 0xFFFFFFFFFFFFFFFFFFFFFFFFFFFFFFFFFFFFFFFF AND PUSH2 0x8FC PUSH1 0x2 PUSH1 0x0 DUP5 DUP2 MSTORE PUSH1 0x20 ADD SWAP1 DUP2 MSTORE PUSH1 0x20 ADD PUSH1 0x0 KECCAK256 PUSH1 0x7 ADD SLOAD PUSH1 0x2 PUSH1 0x0 DUP6 DUP2 MSTORE PUSH1 0x20 ADD SWAP1 DUP2 MSTORE PUSH1 0x20 ADD PUSH1 0x0 KECCAK256 PUSH1 0x6 ADD SLOAD PUSH2 0x80A SWAP2 SWAP1 PUSH2 0xF47 JUMP JUMPDEST SWAP1 DUP2 ISZERO MUL SWAP1 PUSH1 0x40 MLOAD PUSH1 0x0 PUSH1 0x40 MLOAD DUP1 DUP4 SUB DUP2 DUP6 DUP9 DUP9 CALL SWAP4 POP POP POP POP ISZERO DUP1 ISZERO PUSH2 0x835 JUMPI RETURNDATASIZE PUSH1 0x0 DUP1 RETURNDATACOPY RETURNDATASIZE PUSH1 0x0 REVERT JUMPDEST POP DUP1 PUSH32 0x27B37245D19BAA7036FAC055EC38822B4F3527322BF579A64B862A89459BD0B7 PUSH1 0x40 MLOAD PUSH1 0x40 MLOAD DUP1 SWAP2 SUB SWAP1 LOG2 POP JUMP JUMPDEST DUP1 PUSH1 0x2 PUSH1 0x0 DUP3 DUP2 MSTORE PUSH1 0x20 ADD SWAP1 DUP2 MSTORE PUSH1 0x20 ADD PUSH1 0x0 KECCAK256 PUSH1 0x1 ADD PUSH1 0x0 SWAP1 SLOAD SWAP1 PUSH2 0x100 EXP SWAP1 DIV PUSH20 0xFFFFFFFFFFFFFFFFFFFFFFFFFFFFFFFFFFFFFFFF AND PUSH20 0xFFFFFFFFFFFFFFFFFFFFFFFFFFFFFFFFFFFFFFFF AND CALLER PUSH20 0xFFFFFFFFFFFFFFFFFFFFFFFFFFFFFFFFFFFFFFFF AND EQ PUSH2 0x90B JUMPI PUSH1 0x40 MLOAD PUSH32 0x8C379A000000000000000000000000000000000000000000000000000000000 DUP2 MSTORE PUSH1 0x4 ADD PUSH2 0x902 SWAP1 PUSH2 0x10D3 JUMP JUMPDEST PUSH1 0x40 MLOAD DUP1 SWAP2 SUB SWAP1 REVERT JUMPDEST PUSH1 0x2 PUSH1 0x0 DUP4 DUP2 MSTORE PUSH1 0x20 ADD SWAP1 DUP2 MSTORE PUSH1 0x20 ADD PUSH1 0x0 KECCAK256 PUSH1 0x9 ADD DUP4 DUP2 SLOAD DUP2 LT PUSH2 0x933 JUMPI PUSH2 0x932 PUSH2 0x10F3 JUMP JUMPDEST JUMPDEST SWAP1 PUSH1 0x0 MSTORE PUSH1 0x20 PUSH1 0x0 KECCAK256 SWAP1 PUSH1 0x4 MUL ADD PUSH1 0x0 ADD SLOAD PUSH1 0x2 PUSH1 0x0 DUP5 DUP2 MSTORE PUSH1 0x20 ADD SWAP1 DUP2 MSTORE PUSH1 0x20 ADD PUSH1 0x0 KECCAK256 PUSH1 0x7 ADD DUP2 SWAP1 SSTORE POP PUSH1 0x2 PUSH1 0x0 DUP4 DUP2 MSTORE PUSH1 0x20 ADD SWAP1 DUP2 MSTORE PUSH1 0x20 ADD PUSH1 0x0 KECCAK256 PUSH1 0x9 ADD DUP4 DUP2 SLOAD DUP2 LT PUSH2 0x987 JUMPI PUSH2 0x986 PUSH2 0x10F3 JUMP JUMPDEST JUMPDEST SWAP1 PUSH1 0x0 MSTORE PUSH1 0x20 PUSH1 0x0 KECCAK256 SWAP1 PUSH1 0x4 MUL ADD PUSH1 0x2 ADD PUSH1 0x0 SWAP1 SLOAD SWAP1 PUSH2 0x100 EXP SWAP1 DIV PUSH20 0xFFFFFFFFFFFFFFFFFFFFFFFFFFFFFFFFFFFFFFFF AND PUSH1 0x2 PUSH1 0x0 DUP5 DUP2 MSTORE PUSH1 0x20 ADD SWAP1 DUP2 MSTORE PUSH1 0x20 ADD PUSH1 0x0 KECCAK256 PUSH1 0x2 ADD PUSH1 0x0 PUSH2 0x100 EXP DUP2 SLOAD DUP2 PUSH20 0xFFFFFFFFFFFFFFFFFFFFFFFFFFFFFFFFFFFFFFFF MUL NOT AND SWAP1 DUP4 PUSH20 0xFFFFFFFFFFFFFFFFFFFFFFFFFFFFFFFFFFFFFFFF AND MUL OR SWAP1 SSTORE POP PUSH1 0x40 MLOAD DUP1 PUSH1 0x60 ADD PUSH1 0x40 MSTORE DUP1 PUSH1 0x0 ISZERO ISZERO DUP2 MSTORE PUSH1 0x20 ADD PUSH1 0x0 ISZERO ISZERO DUP2 MSTORE PUSH1 0x20 ADD PUSH1 0x0 PUSH20 0xFFFFFFFFFFFFFFFFFFFFFFFFFFFFFFFFFFFFFFFF AND DUP2 MSTORE POP PUSH1 0x3 PUSH1 0x0 DUP5 DUP2 MSTORE PUSH1 0x20 ADD SWAP1 DUP2 MSTORE PUSH1 0x20 ADD PUSH1 0x0 KECCAK256 PUSH1 0x0 DUP3 ADD MLOAD DUP2 PUSH1 0x0 ADD PUSH1 0x0 PUSH2 0x100 EXP DUP2 SLOAD DUP2 PUSH1 0xFF MUL NOT AND SWAP1 DUP4 ISZERO ISZERO MUL OR SWAP1 SSTORE POP PUSH1 0x20 DUP3 ADD MLOAD DUP2 PUSH1 0x0 ADD PUSH1 0x1 PUSH2 0x100 EXP DUP2 SLOAD DUP2 PUSH1 0xFF MUL NOT AND SWAP1 DUP4 ISZERO ISZERO MUL OR SWAP1 SSTORE POP PUSH1 0x40 DUP3 ADD MLOAD DUP2 PUSH1 0x0 ADD PUSH1 0x2 PUSH2 0x100 EXP DUP2 SLOAD DUP2 PUSH20 0xFFFFFFFFFFFFFFFFFFFFFFFFFFFFFFFFFFFFFFFF MUL NOT AND SWAP1 DUP4 PUSH20 0xFFFFFFFFFFFFFFFFFFFFFFFFFFFFFFFFFFFFFFFF AND MUL OR SWAP1 SSTORE POP SWAP1 POP POP POP POP POP JUMP JUMPDEST PUSH1 0x0 PUSH3 0x15180 TIMESTAMP PUSH2 0xAF8 SWAP2 SWAP1 PUSH2 0xF47 JUMP JUMPDEST DUP3 GT PUSH2 0xB39 JUMPI PUSH1 0x40 MLOAD PUSH32 0x8C379A000000000000000000000000000000000000000000000000000000000 DUP2 MSTORE PUSH1 0x4 ADD PUSH2 0xB30 SWAP1 PUSH2 0x116E JUMP JUMPDEST PUSH1 0x40 MLOAD DUP1 SWAP2 SUB SWAP1 REVERT JUMPDEST CALLVALUE PUSH1 0x1 PUSH1 0x0 DUP3 DUP3 SLOAD PUSH2 0xB4B SWAP2 SWAP1 PUSH2 0xF47 JUMP JUMPDEST SWAP3 POP POP DUP2 SWAP1 SSTORE POP PUSH1 0x0 SLOAD PUSH32 0xFFB39DA08503BBF77FD07DD25E2CD85029ABEB9618EE7FD7AA5ADC468A51FFE2 CALLER DUP7 DUP7 DUP7 CALLVALUE PUSH1 0x40 MLOAD PUSH2 0xB8C SWAP6 SWAP5 SWAP4 SWAP3 SWAP2 SWAP1 PUSH2 0x11CA JUMP JUMPDEST PUSH1 0x40 MLOAD DUP1 SWAP2 SUB SWAP1 LOG2 PUSH1 0x0 DUP1 DUP2 SLOAD DUP1 SWAP3 SWAP2 SWAP1 PUSH2 0xBA6 SWAP1 PUSH2 0xF7B JUMP JUMPDEST SWAP2 SWAP1 POP SSTORE POP PUSH1 0x0 SLOAD SWAP1 POP SWAP4 SWAP3 POP POP POP JUMP JUMPDEST PUSH1 0x0 DUP1 REVERT JUMPDEST PUSH1 0x0 DUP1 REVERT JUMPDEST PUSH1 0x0 DUP2 SWAP1 POP SWAP2 SWAP1 POP JUMP JUMPDEST PUSH2 0xBD4 DUP2 PUSH2 0xBC1 JUMP JUMPDEST DUP2 EQ PUSH2 0xBDF JUMPI PUSH1 0x0 DUP1 REVERT JUMPDEST POP JUMP JUMPDEST PUSH1 0x0 DUP2 CALLDATALOAD SWAP1 POP PUSH2 0xBF1 DUP2 PUSH2 0xBCB JUMP JUMPDEST SWAP3 SWAP2 POP POP JUMP JUMPDEST PUSH1 0x0 PUSH1 0x20 DUP3 DUP5 SUB SLT ISZERO PUSH2 0xC0D JUMPI PUSH2 0xC0C PUSH2 0xBB7 JUMP JUMPDEST JUMPDEST PUSH1 0x0 PUSH2 0xC1B DUP5 DUP3 DUP6 ADD PUSH2 0xBE2 JUMP JUMPDEST SWAP2 POP POP SWAP3 SWAP2 POP POP JUMP JUMPDEST PUSH1 0x0 DUP2 MLOAD SWAP1 POP SWAP2 SWAP1 POP JUMP JUMPDEST PUSH1 0x0 DUP3 DUP3 MSTORE PUSH1 0x20 DUP3 ADD SWAP1 POP SWAP3 SWAP2 POP POP JUMP JUMPDEST PUSH1 0x0 JUMPDEST DUP4 DUP2 LT ISZERO PUSH2 0xC5E JUMPI DUP1 DUP3 ADD MLOAD DUP2 DUP5 ADD MSTORE PUSH1 0x20 DUP2 ADD SWAP1 POP PUSH2 0xC43 JUMP JUMPDEST PUSH1 0x0 DUP5 DUP5 ADD MSTORE POP POP POP POP JUMP JUMPDEST PUSH1 0x0 PUSH1 0x1F NOT PUSH1 0x1F DUP4 ADD AND SWAP1 POP SWAP2 SWAP1 POP JUMP JUMPDEST PUSH1 0x0 PUSH2 0xC86 DUP3 PUSH2 0xC24 JUMP JUMPDEST PUSH2 0xC90 DUP2 DUP6 PUSH2 0xC2F JUMP JUMPDEST SWAP4 POP PUSH2 0xCA0 DUP2 DUP6 PUSH1 0x20 DUP7 ADD PUSH2 0xC40 JUMP JUMPDEST PUSH2 0xCA9 DUP2 PUSH2 0xC6A JUMP JUMPDEST DUP5 ADD SWAP2 POP POP SWAP3 SWAP2 POP POP JUMP JUMPDEST PUSH1 0x0 PUSH20 0xFFFFFFFFFFFFFFFFFFFFFFFFFFFFFFFFFFFFFFFF DUP3 AND SWAP1 POP SWAP2 SWAP1 POP JUMP JUMPDEST PUSH1 0x0 PUSH2 0xCDF DUP3 PUSH2 0xCB4 JUMP JUMPDEST SWAP1 POP SWAP2 SWAP1 POP JUMP JUMPDEST PUSH2 0xCEF DUP2 PUSH2 0xCD4 JUMP JUMPDEST DUP3 MSTORE POP POP JUMP JUMPDEST PUSH2 0xCFE DUP2 PUSH2 0xBC1 JUMP JUMPDEST DUP3 MSTORE POP POP JUMP JUMPDEST PUSH1 0x0 PUSH2 0x120 DUP3 ADD SWAP1 POP DUP2 DUP2 SUB PUSH1 0x0 DUP4 ADD MSTORE PUSH2 0xD1F DUP2 DUP13 PUSH2 0xC7B JUMP JUMPDEST SWAP1 POP PUSH2 0xD2E PUSH1 0x20 DUP4 ADD DUP12 PUSH2 0xCE6 JUMP JUMPDEST PUSH2 0xD3B PUSH1 0x40 DUP4 ADD DUP11 PUSH2 0xCE6 JUMP JUMPDEST PUSH2 0xD48 PUSH1 0x60 DUP4 ADD DUP10 PUSH2 0xCF5 JUMP JUMPDEST PUSH2 0xD55 PUSH1 0x80 DUP4 ADD DUP9 PUSH2 0xCF5 JUMP JUMPDEST PUSH2 0xD62 PUSH1 0xA0 DUP4 ADD DUP8 PUSH2 0xCF5 JUMP JUMPDEST PUSH2 0xD6F PUSH1 0xC0 DUP4 ADD DUP7 PUSH2 0xCF5 JUMP JUMPDEST PUSH2 0xD7C PUSH1 0xE0 DUP4 ADD DUP6 PUSH2 0xCF5 JUMP JUMPDEST PUSH2 0xD8A PUSH2 0x100 DUP4 ADD DUP5 PUSH2 0xCF5 JUMP JUMPDEST SWAP11 SWAP10 POP POP POP POP POP POP POP POP POP POP JUMP JUMPDEST PUSH1 0x0 DUP1 PUSH1 0x40 DUP4 DUP6 SUB SLT ISZERO PUSH2 0xDAF JUMPI PUSH2 0xDAE PUSH2 0xBB7 JUMP JUMPDEST JUMPDEST PUSH1 0x0 PUSH2 0xDBD DUP6 DUP3 DUP7 ADD PUSH2 0xBE2 JUMP JUMPDEST SWAP3 POP POP PUSH1 0x20 PUSH2 0xDCE DUP6 DUP3 DUP7 ADD PUSH2 0xBE2 JUMP JUMPDEST SWAP2 POP POP SWAP3 POP SWAP3 SWAP1 POP JUMP JUMPDEST PUSH1 0x0 DUP1 REVERT JUMPDEST PUSH1 0x0 DUP1 REVERT JUMPDEST PUSH1 0x0 DUP1 REVERT JUMPDEST PUSH1 0x0 DUP1 DUP4 PUSH1 0x1F DUP5 ADD SLT PUSH2 0xDFD JUMPI PUSH2 0xDFC PUSH2 0xDD8 JUMP JUMPDEST JUMPDEST DUP3 CALLDATALOAD SWAP1 POP PUSH8 0xFFFFFFFFFFFFFFFF DUP2 GT ISZERO PUSH2 0xE1A JUMPI PUSH2 0xE19 PUSH2 0xDDD JUMP JUMPDEST JUMPDEST PUSH1 0x20 DUP4 ADD SWAP2 POP DUP4 PUSH1 0x1 DUP3 MUL DUP4 ADD GT ISZERO PUSH2 0xE36 JUMPI PUSH2 0xE35 PUSH2 0xDE2 JUMP JUMPDEST JUMPDEST SWAP3 POP SWAP3 SWAP1 POP JUMP JUMPDEST PUSH1 0x0 DUP1 PUSH1 0x0 PUSH1 0x40 DUP5 DUP7 SUB SLT ISZERO PUSH2 0xE56 JUMPI PUSH2 0xE55 PUSH2 0xBB7 JUMP JUMPDEST JUMPDEST PUSH1 0x0 DUP5 ADD CALLDATALOAD PUSH8 0xFFFFFFFFFFFFFFFF DUP2 GT ISZERO PUSH2 0xE74 JUMPI PUSH2 0xE73 PUSH2 0xBBC JUMP JUMPDEST JUMPDEST PUSH2 0xE80 DUP7 DUP3 DUP8 ADD PUSH2 0xDE7 JUMP JUMPDEST SWAP4 POP SWAP4 POP POP PUSH1 0x20 PUSH2 0xE93 DUP7 DUP3 DUP8 ADD PUSH2 0xBE2 JUMP JUMPDEST SWAP2 POP POP SWAP3 POP SWAP3 POP SWAP3 JUMP JUMPDEST PUSH1 0x0 PUSH1 0x20 DUP3 ADD SWAP1 POP PUSH2 0xEB2 PUSH1 0x0 DUP4 ADD DUP5 PUSH2 0xCF5 JUMP JUMPDEST SWAP3 SWAP2 POP POP JUMP JUMPDEST PUSH32 0x4E487B7100000000000000000000000000000000000000000000000000000000 PUSH1 0x0 MSTORE PUSH1 0x22 PUSH1 0x4 MSTORE PUSH1 0x24 PUSH1 0x0 REVERT JUMPDEST PUSH1 0x0 PUSH1 0x2 DUP3 DIV SWAP1 POP PUSH1 0x1 DUP3 AND DUP1 PUSH2 0xEFF JUMPI PUSH1 0x7F DUP3 AND SWAP2 POP JUMPDEST PUSH1 0x20 DUP3 LT DUP2 SUB PUSH2 0xF12 JUMPI PUSH2 0xF11 PUSH2 0xEB8 JUMP JUMPDEST JUMPDEST POP SWAP2 SWAP1 POP JUMP JUMPDEST PUSH32 0x4E487B7100000000000000000000000000000000000000000000000000000000 PUSH1 0x0 MSTORE PUSH1 0x11 PUSH1 0x4 MSTORE PUSH1 0x24 PUSH1 0x0 REVERT JUMPDEST PUSH1 0x0 PUSH2 0xF52 DUP3 PUSH2 0xBC1 JUMP JUMPDEST SWAP2 POP PUSH2 0xF5D DUP4 PUSH2 0xBC1 JUMP JUMPDEST SWAP3 POP DUP3 DUP3 ADD SWAP1 POP DUP1 DUP3 GT ISZERO PUSH2 0xF75 JUMPI PUSH2 0xF74 PUSH2 0xF18 JUMP JUMPDEST JUMPDEST SWAP3 SWAP2 POP POP JUMP JUMPDEST PUSH1 0x0 PUSH2 0xF86 DUP3 PUSH2 0xBC1 JUMP JUMPDEST SWAP2 POP PUSH32 0xFFFFFFFFFFFFFFFFFFFFFFFFFFFFFFFFFFFFFFFFFFFFFFFFFFFFFFFFFFFFFFFF DUP3 SUB PUSH2 0xFB8 JUMPI PUSH2 0xFB7 PUSH2 0xF18 JUMP JUMPDEST JUMPDEST PUSH1 0x1 DUP3 ADD SWAP1 POP SWAP2 SWAP1 POP JUMP JUMPDEST PUSH1 0x0 PUSH2 0xFCE DUP3 PUSH2 0xCB4 JUMP JUMPDEST SWAP1 POP SWAP2 SWAP1 POP JUMP JUMPDEST PUSH2 0xFDE DUP2 PUSH2 0xFC3 JUMP JUMPDEST DUP3 MSTORE POP POP JUMP JUMPDEST PUSH1 0x0 PUSH1 0x60 DUP3 ADD SWAP1 POP PUSH2 0xFF9 PUSH1 0x0 DUP4 ADD DUP7 PUSH2 0xFD5 JUMP JUMPDEST PUSH2 0x1006 PUSH1 0x20 DUP4 ADD DUP6 PUSH2 0xCF5 JUMP JUMPDEST PUSH2 0x1013 PUSH1 0x40 DUP4 ADD DUP5 PUSH2 0xCF5 JUMP JUMPDEST SWAP5 SWAP4 POP POP POP POP JUMP JUMPDEST PUSH32 0x4E6F742061636365707465640000000000000000000000000000000000000000 PUSH1 0x0 DUP3 ADD MSTORE POP JUMP JUMPDEST PUSH1 0x0 PUSH2 0x1051 PUSH1 0xC DUP4 PUSH2 0xC2F JUMP JUMPDEST SWAP2 POP PUSH2 0x105C DUP3 PUSH2 0x101B JUMP JUMPDEST PUSH1 0x20 DUP3 ADD SWAP1 POP SWAP2 SWAP1 POP JUMP JUMPDEST PUSH1 0x0 PUSH1 0x20 DUP3 ADD SWAP1 POP DUP2 DUP2 SUB PUSH1 0x0 DUP4 ADD MSTORE PUSH2 0x1080 DUP2 PUSH2 0x1044 JUMP JUMPDEST SWAP1 POP SWAP2 SWAP1 POP JUMP JUMPDEST PUSH32 0x556E617574686F72697A65640000000000000000000000000000000000000000 PUSH1 0x0 DUP3 ADD MSTORE POP JUMP JUMPDEST PUSH1 0x0 PUSH2 0x10BD PUSH1 0xC DUP4 PUSH2 0xC2F JUMP JUMPDEST SWAP2 POP PUSH2 0x10C8 DUP3 PUSH2 0x1087 JUMP JUMPDEST PUSH1 0x20 DUP3 ADD SWAP1 POP SWAP2 SWAP1 POP JUMP JUMPDEST PUSH1 0x0 PUSH1 0x20 DUP3 ADD SWAP1 POP DUP2 DUP2 SUB PUSH1 0x0 DUP4 ADD MSTORE PUSH2 0x10EC DUP2 PUSH2 0x10B0 JUMP JUMPDEST SWAP1 POP SWAP2 SWAP1 POP JUMP JUMPDEST PUSH32 0x4E487B7100000000000000000000000000000000000000000000000000000000 PUSH1 0x0 MSTORE PUSH1 0x32 PUSH1 0x4 MSTORE PUSH1 0x24 PUSH1 0x0 REVERT JUMPDEST PUSH32 0x4174206C65617374206F6E652064617900000000000000000000000000000000 PUSH1 0x0 DUP3 ADD MSTORE POP JUMP JUMPDEST PUSH1 0x0 PUSH2 0x1158 PUSH1 0x10 DUP4 PUSH2 0xC2F JUMP JUMPDEST SWAP2 POP PUSH2 0x1163 DUP3 PUSH2 0x1122 JUMP JUMPDEST PUSH1 0x20 DUP3 ADD SWAP1 POP SWAP2 SWAP1 POP JUMP JUMPDEST PUSH1 0x0 PUSH1 0x20 DUP3 ADD SWAP1 POP DUP2 DUP2 SUB PUSH1 0x0 DUP4 ADD MSTORE PUSH2 0x1187 DUP2 PUSH2 0x114B JUMP JUMPDEST SWAP1 POP SWAP2 SWAP1 POP JUMP JUMPDEST DUP3 DUP2 DUP4 CALLDATACOPY PUSH1 0x0 DUP4 DUP4 ADD MSTORE POP POP POP JUMP JUMPDEST PUSH1 0x0 PUSH2 0x11A9 DUP4 DUP6 PUSH2 0xC2F JUMP JUMPDEST SWAP4 POP PUSH2 0x11B6 DUP4 DUP6 DUP5 PUSH2 0x118E JUMP JUMPDEST PUSH2 0x11BF DUP4 PUSH2 0xC6A JUMP JUMPDEST DUP5 ADD SWAP1 POP SWAP4 SWAP3 POP POP POP JUMP JUMPDEST PUSH1 0x0 PUSH1 0x80 DUP3 ADD SWAP1 POP PUSH2 0x11DF PUSH1 0x0 DUP4 ADD DUP9 PUSH2 0xFD5 JUMP JUMPDEST DUP2 DUP2 SUB PUSH1 0x20 DUP4 ADD MSTORE PUSH2 0x11F2 DUP2 DUP7 DUP9 PUSH2 0x119D JUMP JUMPDEST SWAP1 POP PUSH2 0x1201 PUSH1 0x40 DUP4 ADD DUP6 PUSH2 0xCF5 JUMP JUMPDEST PUSH2 0x120E PUSH1 0x60 DUP4 ADD DUP5 PUSH2 0xCF5 JUMP JUMPDEST SWAP7 SWAP6 POP POP POP POP POP POP JUMP INVALID LOG2 PUSH5 0x6970667358 0x22 SLT KECCAK256 PUSH17 0xD49277F678560B482143C98EF6927EB3FC SWAP16 0x2E 0xAE DUP3 POP 0xBA GASPRICE PUSH25 0x6EC9E850861A64736F6C634300081100330000000000000000 "
				},
				"gasEstimates": {
					"creation": {
						"codeDepositCost": "937200",
						"executionCost": "10987",
						"totalCost": "948187"
					},
					"external": {
						"acceptOffer(uint256,uint256)": "infinite",
						"contracts(uint256)": "infinite",
						"createContract(string,uint256)": "infinite",
						"giveOffer(uint256,uint256)": "infinite",
						"margin_Call(uint256)": "infinite",
						"margincallRequestorAccept(uint256)": "111562"
					}
				},
				"methodIdentifiers": {
					"acceptOffer(uint256,uint256)": "81257bd5",
					"contracts(uint256)": "474da79a",
					"createContract(string,uint256)": "a962fb39",
					"giveOffer(uint256,uint256)": "6328febc",
					"margin_Call(uint256)": "7e0b8ff0",
					"margincallRequestorAccept(uint256)": "6e24f037"
				}
			},
			"storageLayout": {
				"storage": [
					{
						"astId": 4,
						"contract": "forward.sol:Forward",
						"label": "globalIndex",
						"offset": 0,
						"slot": "0",
						"type": "t_uint256"
					},
					{
						"astId": 7,
						"contract": "forward.sol:Forward",
						"label": "blockedBal",
						"offset": 0,
						"slot": "1",
						"type": "t_uint256"
					},
					{
						"astId": 83,
						"contract": "forward.sol:Forward",
						"label": "contracts",
						"offset": 0,
						"slot": "2",
						"type": "t_mapping(t_uint256,t_struct(Contract)62_storage)"
					},
					{
						"astId": 88,
						"contract": "forward.sol:Forward",
						"label": "marginCall",
						"offset": 0,
						"slot": "3",
						"type": "t_mapping(t_uint256,t_struct(MarginCall)78_storage)"
					}
				],
				"types": {
					"t_address_payable": {
						"encoding": "inplace",
						"label": "address payable",
						"numberOfBytes": "20"
					},
					"t_array(t_struct(Offer)71_storage)dyn_storage": {
						"base": "t_struct(Offer)71_storage",
						"encoding": "dynamic_array",
						"label": "struct Forward.Offer[]",
						"numberOfBytes": "32"
					},
					"t_bool": {
						"encoding": "inplace",
						"label": "bool",
						"numberOfBytes": "1"
					},
					"t_mapping(t_uint256,t_struct(Contract)62_storage)": {
						"encoding": "mapping",
						"key": "t_uint256",
						"label": "mapping(uint256 => struct Forward.Contract)",
						"numberOfBytes": "32",
						"value": "t_struct(Contract)62_storage"
					},
					"t_mapping(t_uint256,t_struct(MarginCall)78_storage)": {
						"encoding": "mapping",
						"key": "t_uint256",
						"label": "mapping(uint256 => struct Forward.MarginCall)",
						"numberOfBytes": "32",
						"value": "t_struct(MarginCall)78_storage"
					},
					"t_string_storage": {
						"encoding": "bytes",
						"label": "string",
						"numberOfBytes": "32"
					},
					"t_struct(Contract)62_storage": {
						"encoding": "inplace",
						"label": "struct Forward.Contract",
						"members": [
							{
								"astId": 41,
								"contract": "forward.sol:Forward",
								"label": "product",
								"offset": 0,
								"slot": "0",
								"type": "t_string_storage"
							},
							{
								"astId": 43,
								"contract": "forward.sol:Forward",
								"label": "issuer",
								"offset": 0,
								"slot": "1",
								"type": "t_address_payable"
							},
							{
								"astId": 45,
								"contract": "forward.sol:Forward",
								"label": "signer",
								"offset": 0,
								"slot": "2",
								"type": "t_address_payable"
							},
							{
								"astId": 47,
								"contract": "forward.sol:Forward",
								"label": "price",
								"offset": 0,
								"slot": "3",
								"type": "t_uint256"
							},
							{
								"astId": 49,
								"contract": "forward.sol:Forward",
								"label": "amount",
								"offset": 0,
								"slot": "4",
								"type": "t_uint256"
							},
							{
								"astId": 51,
								"contract": "forward.sol:Forward",
								"label": "dueDate",
								"offset": 0,
								"slot": "5",
								"type": "t_uint256"
							},
							{
								"astId": 53,
								"contract": "forward.sol:Forward",
								"label": "marginIssuer",
								"offset": 0,
								"slot": "6",
								"type": "t_uint256"
							},
							{
								"astId": 55,
								"contract": "forward.sol:Forward",
								"label": "marginSigner",
								"offset": 0,
								"slot": "7",
								"type": "t_uint256"
							},
							{
								"astId": 57,
								"contract": "forward.sol:Forward",
								"label": "index",
								"offset": 0,
								"slot": "8",
								"type": "t_uint256"
							},
							{
								"astId": 61,
								"contract": "forward.sol:Forward",
								"label": "offers",
								"offset": 0,
								"slot": "9",
								"type": "t_array(t_struct(Offer)71_storage)dyn_storage"
							}
						],
						"numberOfBytes": "320"
					},
					"t_struct(MarginCall)78_storage": {
						"encoding": "inplace",
						"label": "struct Forward.MarginCall",
						"members": [
							{
								"astId": 73,
								"contract": "forward.sol:Forward",
								"label": "marginSigner",
								"offset": 0,
								"slot": "0",
								"type": "t_bool"
							},
							{
								"astId": 75,
								"contract": "forward.sol:Forward",
								"label": "marginIssuer",
								"offset": 1,
								"slot": "0",
								"type": "t_bool"
							},
							{
								"astId": 77,
								"contract": "forward.sol:Forward",
								"label": "owner",
								"offset": 2,
								"slot": "0",
								"type": "t_address_payable"
							}
						],
						"numberOfBytes": "32"
					},
					"t_struct(Offer)71_storage": {
						"encoding": "inplace",
						"label": "struct Forward.Offer",
						"members": [
							{
								"astId": 64,
								"contract": "forward.sol:Forward",
								"label": "margin",
								"offset": 0,
								"slot": "0",
								"type": "t_uint256"
							},
							{
								"astId": 66,
								"contract": "forward.sol:Forward",
								"label": "price",
								"offset": 0,
								"slot": "1",
								"type": "t_uint256"
							},
							{
								"astId": 68,
								"contract": "forward.sol:Forward",
								"label": "offering",
								"offset": 0,
								"slot": "2",
								"type": "t_address_payable"
							},
							{
								"astId": 70,
								"contract": "forward.sol:Forward",
								"label": "index",
								"offset": 0,
								"slot": "3",
								"type": "t_uint256"
							}
						],
						"numberOfBytes": "128"
					},
					"t_uint256": {
						"encoding": "inplace",
						"label": "uint256",
						"numberOfBytes": "32"
					}
				}
			},
			"userdoc": {
				"kind": "user",
				"methods": {},
				"version": 1
			}
		}
	}
}